:1000000003C100001EC100001CC100001AC1000095
:1000100018C1000016C1000014C1000012C1000088
:1000200010C100000EC100000CC100000AC1000098
:1000300008C1000006C100000C9429120C94521251
:100040000C947B120C94A4120C94CD120C94F61206
:100050000C941F130C9448130C9471130C949A1362
:10006000F0C00000EEC00000ECC00000EAC00000DC
:10007000E8C00000E6C00000E4C00000E2C00000EC
:10008000E0C00000DEC00000DCC00000DAC00000FC
:10009000D8C00000D6C00000D4C00000D2C000000C
:1000A000D0C00000CEC00000CCC00000CAC000001C
:1000B000C8C00000C6C00000C4C000000C945D159C
:1000C0000C9486150C94AF150C94D8150C9401164D
:1000D0000C942A16B6C00000B4C00000B2C00000E4
:1000E000B0C00000AEC00000ACC00000AAC000005C
:1000F000A8C00000A6C00000A4C00000A2C000006C
:10010000A0C000009EC000009CC000009AC000007B
:1001100098C0000096C0000094C0000092C000008B
:1001200090C000008EC000008CC000008AC000009B
:1001300088C000000C94C3130C94EC130C94151499
:100140000C943E140C9467140C9490140C94B914F1
:100150000C94E2140C940B150C94341572C000002E
:100160000C943C206EC000006CC000006AC000000F
:1001700068C0000066C0000064C0000062C00000EB
:1001800060C000005EC000005CC000005AC00000FB
:1001900058C0000056C0000054C0000052C000000B
:1001A00050C000004EC000004CC000004AC000001B
:1001B00048C0000046C0000044C0000042C000002B
:1001C00040C000003EC000003CC000003AC000003B
:1001D00038C0000036C0000034C0000032C000004B
:1001E00030C000002EC000002CC000002AC000005B
:1001F00028C000000C941E1D0C94D01D6364696E11
:100200006F70737578585B0011241FBECFEFDFE26B
:10021000DEBFCDBF10E2A0E0B0E2E8EFF1E502C042
:1002200005900D92AC3AB107D9F723E2ACEAB0E2FF
:1002300001C01D92AC3AB207E1F70E94AB230C94C7
:10024000FA28DECECF92DF92EF92FF920F931F93A8
:100250006B017C0120E030E040E05FE498D487FD52
:100260000CC020E030E040E05FE4C701B601E1D21D
:1002700041D58B019C01305805C0C701B6013AD564
:100280008B019C01B801C9011F910F91FF90EF9064
:10029000DF90CF900895A0E0B0E0E1E5F1E00C94AC
:1002A0005C256B017C0120E030E040E85FE39BD4FB
:1002B00087FD80C020E030E040E85FE4C701B60180
:1002C00092D487FF09C0C701B601BCDF4B015C01B6
:1002D000C12CD12C760187C020E030E040E85FE5FA
:1002E000C701B60180D487FF6EC020E030E040E84F
:1002F0005FE2C701B601C9D28B01D82FC92F95E0A3
:10030000292E312C20E1C22ED12CE12CF12C812C74
:10031000912C540161E070E080E090E00C2C04C06E
:10032000660F771F881F991F0A94D2F731D52B01CA
:100330003C01762F272F352D462D572DFE01602F9E
:10034000712F8F2F9C2F23D487FD11C08C289D28BF
:10035000AE28BF28242D352D462D572DFE01602FA8
:10036000712F8F2F9C2F73D38B01D82FC92FF69409
:10037000E794D794C79481E0281A310859F620E011
:1003800030E040E85FE4FE01602F712F8F2F9C2F3B
:100390007CD258DFDC01CB019C01AD0160E070E054
:1003A00080E090E0082D0E948D2549015A016B01E3
:1003B0007C0119C0812C912CA12CB12CC12CD12CE9
:1003C000E12CF12C10C088248A9499249A94AA24B0
:1003D000AA94BB24BA94CC24CA94DD24DA94EE24E3
:1003E000EA94FF24FA949401A501B601C701CDB7A0
:1003F000DEB7E2E10C9475252F923F924F925F9207
:100400006F927F928F929F92AF92BF92CF92DF9224
:10041000EF92FF920F931F93CF9319012A013B0193
:100420004C0160E070E080E090E0510162017301F6
:1004300084010E94AB2521F4B101C201A9D463C09B
:100440009101A201B301C40100E20E949C25B901FF
:10045000CA010E944325AA2797FDA095BA2F20E242
:10046000C22ED12CE12CF12CC81AD90AEA0AFB0AB7
:10047000CC2D9101A201B301C4010C2D0E949C2539
:1004800060E270E06C197D0904C0220C331C441C2E
:10049000551C6A95D2F7622F23282428252809F4B1
:1004A00001C06160732FCA0173D43B014C0180E22B
:1004B000C816D104E104F104A1F09FE1C916D104EA
:1004C000E104F10491F061E070E080E090E004C0AC
:1004D000660F771F881F991FCA95D2F7B0D3272FB1
:1004E00008C060E020E080E803C060E020E080E039
:1004F0009FE4F22F262F3F2F482F592F662D772D5F
:10050000882D992DC2D1CF911F910F91FF90EF901F
:10051000DF90CF90BF90AF909F908F907F906F9023
:100520005F904F903F902F900895A4E0B0E0EBE9EA
:10053000F2E00C945E257C016A01FC01808182302E
:1005400008F44AC1FB019081923008F442C1843022
:1005500079F4943009F040C1F7019181FB01818168
:10056000981709F439C1A2E9EA2EA0E2FA2E34C1A3
:10057000943009F42EC1923091F4823009F02CC1EC
:1005800088E0F701DA0101900D928A95E1F7FB010D
:100590008181F70191818923FA0181831CC1823015
:1005A00009F417C1F70182819381FB01A281B38114
:1005B000F7010481158126813781FB0184809580B4
:1005C000A680B780FC01EA1BFB0BAF01F7FF04C05C
:1005D000442755274E1B5F0B403251050CF074C069
:1005E0001E161F06B4F524013501042E04C07694AE
:1005F0006794579447940A94D2F749825A826B823F
:100600007C82412C512C3201439404C0440C551C73
:10061000661C771C4A95D2F741E0441A51086108DC
:100620007108482059206A207B20812C912C54018C
:10063000839445284628472819F4812C912C54018D
:1006400049805A806B807C8084289528A628B7280A
:1006500046C0EF2B09F443C0840F951F28013901D0
:10066000042E04C076946794579447940A94D2F762
:1006700049825A826B827C82412C512C32014394F4
:1006800004C0440C551C661C771C4A95D2F741E007
:10069000441A5108610871084022512262227322D3
:1006A00001E010E020E030E045284628472819F412
:1006B00000E010E0980149805A806B807C8004291A
:1006C0001529262937290BC0A817B90724F4812C2E
:1006D000912C540104C0CD0100E010E09801F70115
:1006E0004181FB015181451709F446C0442349F07B
:1006F00024013501401A510A620A730A93018201EA
:1007000004C0081919092A093B0937FD05C0F6017B
:100710001182828393830CC041E0F601418382837E
:10072000938330952095109501951F4F2F4F3F4F84
:1007300004831583268337830EC0880F991FAA1F51
:10074000BB1FF60184839583A683B783828193813F
:10075000019782839383F60184819581A681B78175
:10076000AC01BD0141505109610971094F3F5F4F13
:100770006F4F7F4310F30CC0F60141838283938354
:10078000080D191D2A1D3B1D0483158326833783FD
:1007900083E0F6018083448155816681778177FF0C
:1007A0001AC0DB01CA0181709927AA27BB27769559
:1007B000679557954795842B952BA62BB72B84834C
:1007C0009583A683B78382819381019682839383E5
:1007D00002C07B0101C07601C7012496E0E10C94C0
:1007E0007725A0E2B0E0E7EFF3E00C946C256D8F85
:1007F0007E8F8F8F98A3298F3A8F4B8F5C8FBE018E
:100800006F5E7F4FCE014D9602D4BE01675F7F4F72
:10081000CE014996FCD3AE014F5F5F4FBE01675FCB
:100820007F4FCE01419681DE28D3A096E2E00C9462
:100830008525A0E2B0E0EFE1F4E00C946C256D8F2B
:100840007E8F8F8F98A3298F3A8F4B8F5C8FBE013D
:100850006F5E7F4FCE014D96DAD3BE01675F7F4F4B
:10086000CE014996D4D38A8591E089278A87AE0143
:100870004F5F5F4FBE01675F7F4FCE01419655DEF0
:10088000FCD2A096E2E00C948525A0E2B0E0EBE477
:10089000F4E00C945E256D8F7E8F8F8F98A3298F47
:1008A0003A8F4B8F5C8FBE016F5E7F4FCE014D96AE
:1008B000AED3BE01675F7F4FCE014996A8D3998919
:1008C000923008F412C08985823008F41AC094303E
:1008D00021F4823009F4B4C008C0843021F492308D
:1008E00009F4AEC00EC0923051F481E02A899A8595
:1008F000291301C080E08A8BCE014196A3C08230CB
:1009000051F481E02A899A85291301C080E08A8701
:10091000CE01099697C08D889E88AF88B88C0D85CA
:100920001E852F853889E0E2F0E080E090E0DC0170
:10093000C12CD12C760140E050E0BA0180FE18C0F5
:10094000400F511F621F731F8C0D9D1DAE1DBF1DDB
:10095000412C512C32014394401751076207730711
:1009600018F0412C512C3201840D951DA61DB71D88
:10097000CC0CDD1CEE1CFF1C37FF02C06894C0F8D5
:10098000000F111F221F331FB694A79497948794CA
:100990003197A1F62B893C89EB85FC852E0F3F1FF3
:1009A0002E5F3F4F2B833C8321E0EA893A85E31396
:1009B00001C020E02A83EB81FC810CC080FF05C0D0
:1009C00076956795579547957068B695A7959795CD
:1009D00087953196B7FDF2CF9F010CC0880F991F04
:1009E000AA1FBB1F77FD8160440F551F661F771F2D
:1009F000215031090097A105E0E4BE0778F32B836D
:100A00003C838C019D010F77112722273327003467
:100A100011052105310559F487FD09C0452B462BE9
:100A2000472B29F0805C9F4FAF4FBF4F80788D835D
:100A30009E83AF83B88783E08983CE01019602C08D
:100A400082E990E21AD2A096E0E10C947725A8E121
:100A5000B0E0EDE2F5E00C9466256D8B7E8B8F8B1C
:100A6000988F298B3A8B4B8B5C8BBE01675F7F4FD6
:100A7000CE014596CCD2BE016F5F7F4FCE0141962D
:100A8000C6D29985923008F475C08981823008F405
:100A900074C02A853A8123272A87943011F0923036
:100AA00019F4981367C06CC0843039F41D861E8613
:100AB0001F86188A1B861C8604C0823029F484E0B5
:100AC0008987CE0109965EC08B859C852B813C81F0
:100AD000821B930B8B879C874D855E856F857889FC
:100AE000CD80DE80EF80F8844C155D056E057F05B6
:100AF00038F4440F551F661F771F01978B879C871B
:100B0000EFE1F0E000E010E020E030E480E090E091
:100B1000DC014C155D056E057F0540F0802B912BA7
:100B2000A22BB32B4C195D096E097F0936952795C9
:100B300017950795440F551F661F771F319749F783
:100B40008C019D010F7711272227332700341105CF
:100B50002105310559F487FD09C0452B462B472B4C
:100B600029F0805C9F4FAF4FBF4F80788D879E8765
:100B7000AF87B88BCE01099605C0CE01019602C0A1
:100B800082E990E27AD16896E8E00C947F25A8E1AA
:100B9000B0E0EDECF5E00C946C256D8B7E8B8F8BCB
:100BA000988F298B3A8B4B8B5C8BBE01675F7F4F95
:100BB000CE0145962CD2BE016F5F7F4FCE0141968C
:100BC00026D28985823050F08981823038F0BE018A
:100BD0006F5F7F4FCE01099689D201C08FEF689673
:100BE000E2E00C948525A8E1B0E0E9EFF5E00C9493
:100BF0006C256D8B7E8B8F8B988F298B3A8B4B8BD3
:100C00005C8BBE01675F7F4FCE01459600D2BE016F
:100C10006F5F7F4FCE014196FAD18985823050F0C7
:100C20008981823038F0BE016F5F7F4FCE01099617
:100C30005DD201C081E06896E2E00C948525A8E0D1
:100C4000B0E0E5E2F6E00C946A2523E029838B010D
:100C50009C01002737FD0395112722273327402FBA
:100C60000A83611571058105910519F482E0898374
:100C700035C02EE130E02B833C83442371F06115B5
:100C80007105810520E8920769F100271127980175
:100C9000061B170B280B390B02C08B019C01C901E5
:100CA000B8010E9443250197181619062CF00D83F0
:100CB0001E832F83388712C0082E04C0000F111F17
:100CC000221F331F0A94D2F70D831E832F83388788
:100CD0002EE130E0281B390B2B833C83CE0101969B
:100CE000CCD004C060E070E080E09FEC2896E4E0A7
:100CF0000C948325ACE0B0E0E0E8F6E00C946A25C3
:100D000069877A878B879C87BE016F5F7F4FCE0193
:100D100009967DD18981823091F1823080F18430D1
:100D200041F48A81882331F100E010E020E030E8CE
:100D300029C02B813C8137FD22C02F3131058CF732
:100D40008EE190E0821B930B0D811E812F813885EF
:100D500004C036952795179507958A95D2F78A810D
:100D6000882381F030952095109501951F4F2F4FC6
:100D70003F4F08C00FEF1FEF2FEF3FE703C000E02A
:100D800010E09801B801C9012C96E4E00C94832589
:100D9000A8E0B0E0EEECF6E00C9466258B019C0137
:100DA0001A82611571058105910519F482E0898324
:100DB0005DC083E089834EE150E04B835C83C901D1
:100DC000B8010E944325019797FF39C0EE27FF27FE
:100DD000E81BF90B41E050E060E070E00E2E04C02B
:100DE000440F551F661F771F0A94D2F741505109CF
:100DF000610971094023512362237323C12CD12C33
:100E00007601C394452B462B472B19F4C12CD12CCA
:100E1000760104C03695279517950795EA95D2F780
:100E20000C291D292E293F290D831E832F833887E6
:100E30002EE130E0281B390B2B833C8317C0009731
:100E400029F40D831E832F83388710C0082E04C019
:100E5000000F111F221F331F0A94D2F70D831E8328
:100E60002F833887481B590B4B835C83CE01019637
:100E700004D02896E8E00C947F250F931F93CF931E
:100E8000DF93DC0114964D915D916D917C911797E4
:100E90001196EC9111978C91823020F460618FEF64
:100EA00090E0A6C0843009F49EC0823009F495C059
:100EB000411551056105710509F492C012962D91F5
:100EC0003C91139722388FEF38070CF058C0C2E8D6
:100ED000DFEFC21BD30BCA31D1056CF58A019B0130
:100EE0000C2E04C036952795179507950A94D2F7CE
:100EF00081E090E0A0E0B0E00C2E04C0880F991FC4
:100F0000AA1FBB1F0A94D2F70197A109B109842334
:100F10009523A623B72341E050E060E070E0892BE1
:100F20008A2B8B2B19F440E050E0BA01402B512B57
:100F3000622B732B03C040E050E0BA01DB01CA0111
:100F40008F779927AA27BB2780349105A105B10582
:100F500039F447FF09C0405C5F4F6F4F7F4F04C0BB
:100F6000415C5F4F6F4F7F4F81E090E0411551052D
:100F7000610520E4720748F580E090E026C0203843
:100F800031058CF5DB01CA018F779927AA27BB278A
:100F900080349105A105B10539F447FF09C0405CD3
:100FA0005F4F6F4F7F4F04C0415C5F4F6F4F7F4F6C
:100FB00077FD04C0C90181589F4F07C0769567959A
:100FC00057954795C90180589F4F97E0769567954B
:100FD000579547959A95D1F70BC080E090E005C0F2
:100FE00080E090E005C08FEF90E040E050E0BA0173
:100FF000982F9695E0FB97F9362F80FB37F9642FF1
:10100000752F832FDF91CF911F910F910895CF926C
:10101000DF92EF92DC01FB01CC901196DC901197EE
:1010200012968C9112973FE7E32EE8226E2DA601CF
:1010300070E0982F991F9927991F13962C91822F52
:10104000880F892B90E027FB222720F92183009726
:1010500029F5411551056105710511F482E027C09C
:1010600082E89FEF8283938327E0440F551F661F1A
:10107000771F2A95D1F783E0808309C0440F551F5D
:10108000661F771F82819381019782839383411525
:101090005105610580E4780788F320C08F3F9105F2
:1010A00079F4411551056105710519F484E08083D7
:1010B00019C0E4FE03C081E0808310C010820EC01E
:1010C0008F5791098283938383E0808387E0440F65
:1010D000551F661F771F8A95D1F770644483558327
:1010E00066837783EF90DF90CF900895CF93FC01D4
:1010F000DB019081923008F452C08C91823008F468
:101100004EC0943071F4843039F411962C9130E053
:101110008181281B310948C08181882309F43FC09F
:101120003BC0843029F411968C91811138C034C0B1
:10113000923019F48230B9F735C0823069F3C18139
:1011400011968C911197C8131DC02281338112967C
:101150008D919C911397821793070CF413C0281755
:1011600039070CF417C04481558166817781149644
:101170008D919D910D90BC91A02D84179507A60788
:10118000B70718F4C11108C00AC0481759076A0701
:101190007B0740F4C11103C02FEF3FEF05C021E0F2
:1011A00030E002C020E030E0C901CF910895CF9334
:1011B000DF93CDB7DEB72997CDBFDEBF88E0E0E68D
:1011C000F6E0818380910420909105208D839E8399
:1011D00080910620909107208F8398878091082026
:1011E00089878091002090910120A0910220B091E8
:1011F000032089839A83AB83BC8360E184E090E021
:1012000012D3BE016F5F7F4F80EA99E00E94CD1735
:1012100089E090E28093A8239093A9238093A6234A
:101220009093A7232996CDBFDEBFDF91CF9108957C
:10123000682F80EA99E00C94AD16CF93C82F8A30BE
:1012400011F48DE0F5DF8C2FF3DF80E090E0CF919B
:10125000089580EA99E00C94B5161F93CF93DF931D
:10126000EC01F7DF182FBE01E8DF812F90E0DF915E
:10127000CF911F910895E0EAF9E08181992787FDD8
:101280009095892F881F8827881F90E00895E0E4B3
:10129000F6E080E1818380E2818380E88183A0EEB3
:1012A000B7E082E011968C93119781E011968C93B0
:1012B00080E4818308958130910531F08230910579
:1012C00069F0892B31F0089580E1E0E4F6E0858350
:1012D000089580E1E0E4F6E08683089580E1E0E4AB
:1012E000F6E0878308958130910531F082309105D1
:1012F00069F0892B31F0089580E2E0E4F6E085831F
:10130000089580E2E0E4F6E08683089580E2E0E478
:10131000F6E0878308958130910531F082309105A0
:1013200069F0892B31F0089580E8E0E4F6E08583E8
:10133000089580E8E0E4F6E08683089580E8E0E43C
:10134000F6E0878308958130910531F08230910570
:1013500069F0892B31F0089582E0E0EEF7E08583B3
:10136000089582E0E0EEF7E08683089582E0E0EE03
:10137000F7E08783089520E137E243E050E064E03E
:1013800070E084E593E20E94241F20E137E242E00E
:1013900050E064E070E082E793E20E94241F20E1C5
:1013A00037E244E050E064E070E08CE793E20E94B2
:1013B000241F20E137E241E050E064E070E08AE47D
:1013C00093E20E94241F60E084E593E20E94E61FFE
:1013D00060E082E793E20E94E61F60E08CE793E220
:1013E0000E94E61F60E08AE493E20E94E61FE0E0CC
:1013F000F6E080E4818380E2818380E8818380E17C
:1014000081830895A4D143DFD2DE9AD1B4CF813055
:101410009105D1F01CF4892B41F00895823091059B
:1014200011F1039709F03DC02DC022E330E041E007
:1014300050E062E070E080E493E20E94241F63E0E9
:1014400080E493E20C94E61F22E330E042E050E0B7
:1014500062E070E08EE593E20E94241F6AE08EE570
:1014600093E20C94E61F22E330E041E050E063E0B9
:1014700070E086E893E20E94241F66E086E893E22B
:101480000C94E61F22E330E042E050E063E070E0BD
:1014900088E693E20E94241F6AE088E693E20C94B7
:1014A000E61F0895CF92DF92EF92FF92CF93DF93E2
:1014B000EB018130910509F459C01CF4892B49F0E6
:1014C00038C18230910509F49EC0039709F031C1FB
:1014D000E7C0609148237091492380E090E058DC98
:1014E0006B017C01BE01882777FD8095982FA7DBD3
:1014F0009B01AC01C701B601C8D920E030E04AE742
:1015000054E4A5DA0E942201809142239091432362
:10151000E0914023F0914123E6FD1BC0823091050C
:1015200079F020F4019709F004C107C083309105D8
:1015300051F0049709F0FDC009C060AF71AFF9C068
:1015400062AF73AFF6C064AF75AFF3C066AF77AF8D
:10155000F0C08130910521F0029709F0EAC003C084
:1015600060AF71AFE6C062AF73AFE3C06091662356
:101570007091672380E090E00BDC6B017C01BE0181
:10158000882777FD8095982F5ADB9B01AC01C70116
:10159000B6017BD920E030E04AE754E458DA0E94F3
:1015A00022018091602390916123E0915E23F0916C
:1015B0005F23E6FD1BC08230910579F020F401978E
:1015C00009F0B7C007C08330910551F0049709F0C6
:1015D000B0C009C060AF71AFACC062AF73AFA9C09B
:1015E00064AF75AFA6C066AF77AFA3C08130910579
:1015F00021F0029709F09DC003C060AF71AF99C0A0
:1016000062AF73AF96C060918E2370918F2380E09C
:1016100090E0BEDB6B017C01BE01882777FD8095E1
:10162000982F0DDB9B01AC01C701B6012ED920E03C
:1016300030E04AE754E40BDA0E94220180918823CB
:1016400090918923E0918623F0918723E6FD1BC0CA
:101650008230910579F020F4019709F06AC007C043
:101660008330910551F0049709F063C009C060AF61
:1016700071AF5FC062AF73AF5CC064AF75AF59C08C
:1016800066AF77AF56C08130910521F0029709F01F
:1016900050C003C060AF71AF4CC062AF73AF49C000
:1016A000609170237091712380E090E071DB6B0199
:1016B0007C01BE01882777FD8095982FC0DA9B01B9
:1016C000AC01C701B601E1D820E030E04AE754E4BC
:1016D000BED90E94220180916A2390916B23E091F0
:1016E0006823F0916923E6FD19C08230910569F005
:1016F00018F40197F1F406C08330910549F004977E
:10170000C1F409C060AF71AF14C062AF73AF11C054
:1017100064AF75AF0EC066AF77AF0BC08130910577
:1017200019F0029731F403C060AF71AF02C062AF2D
:1017300073AFDF91CF91FF90EF90DF90CF9008953E
:10174000E0E4F6E084E0828388E0828308950F93EA
:101750001F93CF93DF9300D000D0CDB7DEB78FEFCC
:101760008093700080937100809372008093730067
:101770008093740080937500809376006CE170E034
:1017800082E05DD68A836DE170E082E058D689837D
:1017900089819A81019621F480E493E289839A8376
:1017A00089819A818B839C83E0E6F0E082838C813F
:1017B00083838FB7F894E0E5F0E0908192609083A6
:1017C0008FBF818181FFFDCF8FB7F89400E510E0D6
:1017D000D80116969C911697997F16969C9316970A
:1017E000E0E6F0E090E895839BEB968316969C915B
:1017F0001697946016969C939081916090838FBF0A
:1018000061E080E490E015D68FB7F894F8019081FC
:101810009E7F90838FBF2496CDBFDEBFDF91CF9197
:101820001F910F9108952FB7F894FC01E059FF4FD5
:1018300060958081682360832FBF08951092B52042
:101840001092B6201092B72081EA8093B82080E2EF
:101850008093B9201092BA201092BB201092BC2025
:101860001092BD2082E090E08093BE209093BF2034
:101870001092C0201092C12080E092ECA1E0B0E074
:101880008093C2209093C320A093C420B093C5201E
:101890001092C6201092C72088E08093C8208091C3
:1018A000B5208F5F8093B52081E008958091B520A9
:1018B00081508093B52008958091B4208150809309
:1018C000B4208091B4201092B320089580E0089550
:1018D00080E00895809196238823DCF4807680321E
:1018E000E9F5809197238132D9F580919C239091DD
:1018F0009D230797B9F582EC90E280939E23909305
:101900009F2387E090E08093A0239093A12381E020
:1019100008958076803241F580919723803221F0BE
:10192000823221F581E0089580919C2390919D233E
:101930000797F1F48AEB9CE08093A2239093A32372
:1019400082EC90E280939E2390939F2387E090E027
:101950008093A0239093A12381E0089580E00895CF
:1019600080E0089580E0089580E0089580E0089583
:1019700080E008950895FF920F931F93CF93DF9314
:101980008091AD2081119CC00E94031C882351F0DE
:10199000C091CD20D091CE200E94121CC817D9072B
:1019A00059F48EC0C091CD20D091CE200E940B1C46
:1019B000C817D90709F484C0DFB7F894C091AE20E6
:1019C000EC2FF0E0EE0FFF1FE753FF4D8081918178
:1019D000892B09F58091D3209091D4200196809392
:1019E000D3209093D4200E94031C811107C08091C2
:1019F000D3209091D4208436910558F00E94031C86
:101A0000882349F08091D3209091D4208032934054
:101A100010F4DFBF55C01092D3201092D4208091D3
:101A2000AC20811106C081E0C11180E08093AE201E
:101A300004C081E0C11180E0C82F81E08093AD2017
:101A4000DFBFD0E0FE01EE0FFF1FE753FF4DFF2485
:101A5000F394808191818034910509F4F12CFF2069
:101A600091F00E94031C882339F00E94121C80937D
:101A7000CD209093CE200BC00E940B1C8093CD20D4
:101A80009093CE2004C01092CD201092CE20FE0163
:101A9000EE0FFF1FE753FF4D20813181AE0100247F
:101AA000569547950794569547950794542F402D82
:101AB0004A525F4D08E61DE06F2D81E80E94671CC9
:101AC000DF91CF911F910F91FF90089580E053CF48
:101AD000892BA9F42091AE2081E090E0222311F01F
:101AE00080E090E0FC01EE0FFF1FE753FF4D1082F6
:101AF00011821092AC201092AD2080E03CCF08956E
:101B00004FB7F8948091B0209091B120E091B2202D
:101B1000F0E0EE0FFF1FE153FF4D20813181281BC4
:101B2000390B4FBF822F932F0895EADF21E0892BD5
:101B300009F420E0822F08950F931F93CF93DF9332
:101B40004FB7F8945091B2208091AF20811110C00E
:101B50002091B0203091B120C52FD0E0FE01EE0FD2
:101B6000FF1FE153FF4D808191812817390718F439
:101B70004FBF80E023C01092B0201092B12081E0CE
:101B8000511180E08093B22081E08093AF204FBF5D
:101B900080E0CBDFAE01002456954795079456951B
:101BA00047950794542F402D4A5A5E4D03EE1DE091
:101BB00020E430E061E082E00E94671CDF91CF9179
:101BC0001F910F9108950F931F93A42F892B49F50F
:101BD0008091B220E1E08111E0E061157105B1F47E
:101BE000F0E00024F695E7950794F695E7950794BD
:101BF000FE2FE02DAF014A5A5E4D03EE1DE020E4BA
:101C000030E061E08A2F0E94671C0BC0F0E0EE0F0D
:101C1000FF1FE153FF4D608371831092AF2080E07E
:101C20008BDF1F910F9108951092B4201092AD2078
:101C30001092AC201092AE201092C9201092CA20AF
:101C40001092CB201092CC201092CD201092CE205A
:101C500080E091DE1092AF201092B2201092CF203F
:101C60001092D0201092B0201092B12080E064DF5A
:101C7000882361F08091B4208F5F8093B42080919D
:101C8000B420813029F48093B320089580E0089532
:101C900081E00895E091D921F091DA210190F0815D
:101CA000E02D228133812E0F3F1F822F932F089525
:101CB0001F93CF93DF93EC01162FECDF2881FE01F9
:101CC000E20FF11DE817F907A0F421812430A1F0FB
:101CD000211306C016C02181243089F0211789F014
:101CE0002081E20FF11DE817F907A8F3E0E0F0E02A
:101CF00008C0E0E0F0E005C0E0E0F0E002C0E0E0B5
:101D0000F0E08E2F9F2FDF91CF911F9108950F93B9
:101D10001F93CF93DF93182F062F8091D82188230C
:101D200069F1E091D921F091DA21C081D1818C81D2
:101D3000181730F5C093D621D093D721ABDF9C0183
:101D4000C817D907F8F49981943061F49A819113F6
:101D500009C08B81801306C0C093D621D093D721B0
:101D600081E011C09881C90FD11DC217D30758F364
:101D7000C093D621D093D72180E005C080E003C076
:101D800080E001C080E0DF91CF911F910F91089515
:101D9000809198238F770C94051C1F93CF93DF932A
:101DA000182FB5DF882349F1C091D621D091D721D2
:101DB00065E0CE017DDFEC01009749F04C815D814B
:101DC0006B818A810E941E1C8111F2CF17C0A091E5
:101DD000D921B091DA21812F90E0880F991F1296B6
:101DE000ED91FC911397E80FF91F0190F081E02D20
:101DF0000190F081E02D099501C080E0DF91CF9145
:101E00001F9108950F931F93CF93DF93C82F60E026
:101E10007EDF882389F1A091D921B091DA21EC2FBE
:101E2000F0E0EE0FFF1F12962D913C911397E20FF9
:101E3000F31F00811181D8011696ED91FC9117973F
:101E40000995682F8C2F63DF8823C1F0C091D621BC
:101E5000D091D72165E0CE012BDFEC01009721F076
:101E60008A810E94151DF6CFD8011296ED91FC9142
:101E70001397099581E003C080E001C080E0DF9105
:101E8000CF911F910F910895CF938091D8218823EE
:101E9000C1F0E091D921F091DA210190F081E02D9B
:101EA0008481882371F0C0E08C2FACDFCF5FE0919C
:101EB000D921F091DA210190F081E02D8481C817B9
:101EC00098F31092D82181E090E08093DB219093E9
:101ED000DC21CF910895CF938091D821882341F1BF
:101EE000E091D921F091DA21A081B18114968C91F1
:101EF0008823F1F0C0E08C2F90E0880F991F0280BA
:101F0000F381E02DE80FF91F0190F081E02D0084AE
:101F1000F185E02D309709F00995CF5FE091D92147
:101F2000F091DA21A081B18114968C91C81718F331
:101F3000CF910895FF920F931F93CF93DF93109249
:101F4000A0231092A1231092A2231092A3231092F7
:101F5000A4231092A5232091962322230CF059C28A
:101F600080919C2390919D23009709F057C249C20C
:101F70002F7109F07CC030919723363089F03830CA
:101F800009F469C0311173C0029741F462E070E056
:101F90008BED91E20E94151C81E0BCC180E0BAC1CA
:101FA0002091982330919923832F9927823091058E
:101FB00081F08330910571F1019709F044C080915F
:101FC0002B2090912C20DC016C9170E00E94151C5C
:101FD00029C0E0912B20F0912C2081892817A8F5A9
:101FE000C9019927880F991F880F991FE0912D200B
:101FF000F0912E20E80FF91F80819181FC01628110
:1020000073810E94151CE0919E23F0919F2382E032
:10201000818308C021111BC064E070E08EE890E26B
:102020000E94151C80919C2390919D232091A023B8
:102030003091A1238217930760F48093A02390939B
:10204000A12381E067C180E065C180E063C180E0D9
:1020500061C181E05FC1019741F461E070E088ED0A
:1020600091E20E94151C81E055C180E053C12130EE
:1020700009F041C0309197233A30E9F5019799F57D
:102080008091D821882389F1C0919A23D0919B23F4
:102090008C2F0091D9211091DA21D801ED91FC917A
:1020A0009481C91720F560E032DE882311F1CE015A
:1020B0009927880F991FD8011296ED91FC911397DB
:1020C000E80FF91F0190F081E02D86819781FC01D6
:1020D00009958093DD2161E070E08DED91E20E9431
:1020E000151C81E017C180E015C180E013C180E0BC
:1020F00011C180E00FC1223009F00EC12091972359
:10210000211103C1029781F480919A230E94471CF8
:102110008093DE211092DF2162E070E08EED91E28B
:102120000E94151C81E0F6C080E0F4C02F7109F018
:1021300093C080919723833009F4E9C020F4813063
:1021400009F08AC016C0853021F0893009F084C0BA
:102150002BC080919C2390919D23892B41F488EC86
:102160009EE08093A2239093A32381E0D3C080E0DC
:10217000D1C080919C2390919D23892B89F48091DB
:10218000982390919923019769F48091DB21909194
:10219000DC218D7F8093DB219093DC2181E0BAC02C
:1021A00080E0B8C080E0B6C080919C2390919D23D0
:1021B000892B09F045C00E94081C882309F442C0FD
:1021C00020919823309199233327E0912B20F0918F
:1021D0002C20818990E082179307B0F155DE809121
:1021E0009823909199238093D821882379F1992776
:1021F0000197880F991F880F991FE0912D20F0916A
:102200002E20E80FF91FE093D921F093DA210190F5
:10221000F081E02D84818823D9F0C0E060E08C2F2C
:10222000BCDD8823B9F0CF5FE091D921F091DA21AC
:102230000190F081E02D8481C81780F381E06AC0AD
:1022400080E068C080E066C080E064C081E062C079
:1022500081E060C080E05EC0213001F5809197236D
:102260008B30E1F480919C2390919D23892B81F404
:102270008091D821882371F0C0919A23D09198231E
:102280008C2FC0DD882341F06D2F8C2F86DD42C05E
:1022900080E040C080E03EC080E03CC02230E1F5FC
:1022A00080919723813019F0833099F515C0809182
:1022B0009C2390919D23892B59F480919823909190
:1022C0009923892B39F480919A230E944E1C22C0B5
:1022D00080E020C080E01EC080919C2390919D23CF
:1022E000892B79F48091982390919923892B59F423
:1022F000CAE9D3E288810E94DD1C88810E94051D05
:1023000009C080E007C080E005C080E003C080E035
:1023100001C080E0811177C0809196238F71813058
:1023200071F58091D821882351F100919A23109161
:102330009B23F02EC091D921D091DA21E881F98137
:1023400084810817E0F460E0802FE1DC8823B9F095
:1023500011279801220F331FEA81FB81E20FF31F3F
:10236000C081D181EE81FF810995682F8F2DCFDC4F
:10237000882329F0EC81FD810995811146C0809167
:1023800096238F71823009F042C08091D821882332
:1023900081F1E091D921F091DA21A081B1811496E7
:1023A0008C91882341F110E0212F30E0220F331F60
:1023B0000280F381E02DE20FF31FC081D181EE8115
:1023C000FF810995682F812FA2DC8823B1F0EC8171
:1023D000FD810995811113C01F5FE091D921F09112
:1023E000DA21A081B18114968C911817E8F280E06F
:1023F0001AC080E018C080E016C080E014C081E000
:1024000012C080E010C081E00EC081E00CC080E00E
:102410000AC0822F807609F07FCF88CE322F3076A7
:1024200009F07ACFA5CDDF91CF911F910F91FF9049
:1024300008951BBEFC0128ED24BF608308954091E0
:10244000CA01E62FF72F8093CA0184914093CA01F5
:1024500008951F920F920FB60F9211242F933F935E
:102460004F935F936F937F938F939F93AF93BF939C
:10247000EF93FF93E091E021F091E121309709F093
:102480000995FF91EF91BF91AF919F918F917F91AE
:102490006F915F914F913F912F910F900FBE0F90D1
:1024A0001F9018951F920F920FB60F9211242F9321
:1024B0003F934F935F936F937F938F939F93AF93CC
:1024C000BF93EF93FF93E091E221F091E3213097E6
:1024D00009F00995FF91EF91BF91AF919F918F9175
:1024E0007F916F915F914F913F912F910F900FBE10
:1024F0000F901F9018951F920F920FB60F921124F4
:102500002F933F934F935F936F937F938F939F93FB
:10251000AF93BF93EF93FF93E091E421F091E52116
:10252000309709F00995FF91EF91BF91AF919F917D
:102530008F917F916F915F914F913F912F910F906C
:102540000FBE0F901F9018951F920F920FB60F920B
:1025500011242F933F934F935F936F937F938F93A8
:102560009F93AF93BF93EF93FF93E091E621F09198
:10257000E721309709F00995FF91EF91BF91AF9155
:102580009F918F917F916F915F914F913F912F918B
:102590000F900FBE0F901F9018951F920F920FB6BD
:1025A0000F9211242F933F934F935F936F937F93D9
:1025B0008F939F93AF93BF93EF93FF93E091E821A5
:1025C000F091E921309709F00995FF91EF91BF91C2
:1025D000AF919F918F917F916F915F914F913F91BB
:1025E0002F910F900FBE0F901F9018951F920F9272
:1025F0000FB60F9211242F933F934F935F936F93D6
:102600007F938F939F93AF93BF93EF93FF93E0914B
:10261000EA21F091EB21309709F00995FF91EF91B4
:10262000BF91AF919F918F917F916F915F914F91EA
:102630003F912F910F900FBE0F901F9018951F92F2
:102640000F920FB60F9211242F933F934F935F93E6
:102650006F937F938F939F93AF93BF93EF93FF936A
:10266000E091EC21F091ED21309709F00995FF916F
:10267000EF91BF91AF919F918F917F916F915F91FA
:102680004F913F912F910F900FBE0F901F90189573
:102690001F920F920FB60F9211242F933F934F93D7
:1026A0005F936F937F938F939F93AF93BF93EF93BA
:1026B000FF93E091EE21F091EF21309709F0099519
:1026C000FF91EF91BF91AF919F918F917F916F910A
:1026D0005F914F913F912F910F900FBE0F901F90E0
:1026E00018951F920F920FB60F9211242F933F93BC
:1026F0004F935F936F937F938F939F93AF93BF930A
:10270000EF93FF93E091F021F091F121309709F0E0
:102710000995FF91EF91BF91AF919F918F917F911B
:102720006F915F914F913F912F910F900FBE0F903E
:102730001F9018951F920F920FB60F9211242F938E
:102740003F934F935F936F937F938F939F93AF9339
:10275000BF93EF93FF93E091F221F091F321309733
:1027600009F00995FF91EF91BF91AF919F918F91E2
:102770007F916F915F914F913F912F910F900FBE7D
:102780000F901F9018951F920F920FB60F92112461
:102790002F933F934F935F936F937F938F939F9369
:1027A000AF93BF93EF93FF93E091F421F091F52164
:1027B000309709F00995FF91EF91BF91AF919F91EB
:1027C0008F917F916F915F914F913F912F910F90DA
:1027D0000FBE0F901F9018951F920F920FB60F9279
:1027E00011242F933F934F935F936F937F938F9316
:1027F0009F93AF93BF93EF93FF93E091F621F091F6
:10280000F721309709F00995FF91EF91BF91AF91B2
:102810009F918F917F916F915F914F913F912F91F8
:102820000F900FBE0F901F9018951F920F920FB62A
:102830000F9211242F933F934F935F936F937F9346
:102840008F939F93AF93BF93EF93FF93E091F82102
:10285000F091F921309709F00995FF91EF91BF911F
:10286000AF919F918F917F916F915F914F913F9128
:102870002F910F900FBE0F901F9018951F920F92DF
:102880000FB60F9211242F933F934F935F936F9343
:102890007F938F939F93AF93BF93EF93FF93E091B9
:1028A000FA21F091FB21309709F00995FF91EF9102
:1028B000BF91AF919F918F917F916F915F914F9158
:1028C0003F912F910F900FBE0F901F9018951F9260
:1028D0000F920FB60F9211242F933F934F935F9354
:1028E0006F937F938F939F93AF93BF93EF93FF93D8
:1028F000E091FC21F091FD21309709F00995FF91BD
:10290000EF91BF91AF919F918F917F916F915F9167
:102910004F913F912F910F900FBE0F901F901895E0
:102920001F920F920FB60F9211242F933F934F9344
:102930005F936F937F938F939F93AF93BF93EF9327
:10294000FF93E091FE21F091FF21309709F0099566
:10295000FF91EF91BF91AF919F918F917F916F9177
:102960005F914F913F912F910F900FBE0F901F904D
:1029700018951F920F920FB60F9211242F933F9329
:102980004F935F936F937F938F939F93AF93BF9377
:10299000EF93FF93E0910022F0910122309709F02C
:1029A0000995FF91EF91BF91AF919F918F917F9189
:1029B0006F915F914F913F912F910F900FBE0F90AC
:1029C0001F9018951F920F920FB60F9211242F93FC
:1029D0003F934F935F936F937F938F939F93AF93A7
:1029E000BF93EF93FF93E0910222F091032230977F
:1029F00009F00995FF91EF91BF91AF919F918F9150
:102A00007F916F915F914F913F912F910F900FBEEA
:102A10000F901F9018951F920F920FB60F921124CE
:102A20002F933F934F935F936F937F938F939F93D6
:102A3000AF93BF93EF93FF93E0910422F0910522AF
:102A4000309709F00995FF91EF91BF91AF919F9158
:102A50008F917F916F915F914F913F912F910F9047
:102A60000FBE0F901F9018951F920F920FB60F92E6
:102A700011242F933F934F935F936F937F938F9383
:102A80009F93AF93BF93EF93FF93E0910622F09152
:102A90000722309709F00995FF91EF91BF91AF910F
:102AA0009F918F917F916F915F914F913F912F9166
:102AB0000F900FBE0F901F9018951F920F920FB698
:102AC0000F9211242F933F934F935F936F937F93B4
:102AD0008F939F93AF93BF93EF93FF93E09108225F
:102AE000F0910922309709F00995FF91EF91BF917C
:102AF000AF919F918F917F916F915F914F913F9196
:102B00002F910F900FBE0F901F9018951F920F924C
:102B10000FB60F9211242F933F934F935F936F93B0
:102B20007F938F939F93AF93BF93EF93FF93E09126
:102B30000A22F0910B22309709F00995FF91EF914D
:102B4000BF91AF919F918F917F916F915F914F91C5
:102B50003F912F910F900FBE0F901F9018951F92CD
:102B60000F920FB60F9211242F933F934F935F93C1
:102B70006F937F938F939F93AF93BF93EF93FF9345
:102B8000E0910C22F0910D22309709F00995FF9108
:102B9000EF91BF91AF919F918F917F916F915F91D5
:102BA0004F913F912F910F900FBE0F901F9018954E
:102BB0001F920F920FB60F9211242F933F934F93B2
:102BC0005F936F937F938F939F93AF93BF93EF9395
:102BD000FF93E0910E22F0910F22309709F00995B2
:102BE000FF91EF91BF91AF919F918F917F916F91E5
:102BF0005F914F913F912F910F900FBE0F901F90BB
:102C000018951F920F920FB60F9211242F933F9396
:102C10004F935F936F937F938F939F93AF93BF93E4
:102C2000EF93FF93E0911022F0911122309709F079
:102C30000995FF91EF91BF91AF919F918F917F91F6
:102C40006F915F914F913F912F910F900FBE0F9019
:102C50001F9018951F920F920FB60F9211242F9369
:102C60003F934F935F936F937F938F939F93AF9314
:102C7000BF93EF93FF93E0911222F09113223097CC
:102C800009F00995FF91EF91BF91AF919F918F91BD
:102C90007F916F915F914F913F912F910F900FBE58
:102CA0000F901F901895CF93CFB7F894811528E017
:102CB000920759F461E083E090E00E94130C64E015
:102CC00083E090E00E94130C3DC0803428E092071E
:102CD00059F462E083E090E00E94130C64E083E02A
:102CE00090E00E94130C2EC0811529E0920759F440
:102CF00061E084E090E00E94130C64E084E090E0E6
:102D00000E94130C1FC0803429E0920759F462E03E
:102D100084E090E00E94130C64E084E090E00E9464
:102D2000130C10C081159A4059F461E085E090E0E1
:102D30000E94130C64E085E090E00E94130C02C036
:102D4000CFBF09C08FB7F894E1E9F3E290819F5FAC
:102D500090838FBFCFBFCF910895FC01818185FF04
:102D6000FDCF608380E090E00895FC01818188239D
:102D7000ECF7808108954F925F926F927F928F92CD
:102D80009F92AF92BF92CF92DF92EF92FF920F93FA
:102D90001F93CF93DF93EC014A015B0128013901B6
:102DA000D901C801689412F8B695A79597958795AB
:102DB0001694D1F7B901A801032E36E176956795EF
:102DC000579547953A95D1F7302D2C8122FD08C0B3
:102DD000B695A79597958795769567955795479555
:102DE00088159905AA05BB0508F4AEC0841695069A
:102DF000A606B70608F4AAC08C8182FD04C0880C20
:102E0000991CAA1CBB1CC301B201A50194010E941C
:102E1000C4242F3F31054105510508F499C0C12C48
:102E2000D12C7601CA9419EF05C02C153D054E052D
:102E30005F0568F0CC0CDD1CEE1CFF1C1D3F14F47C
:102E40006894C0F81F5F173081F7212F54C0212FDD
:102E500011230CF050C0D501C401880F991FAA1F7F
:102E6000BB1F880F991FAA1FBB1F880F991FAA1F7E
:102E7000BB1F481A590A6A0A7B0A1E3FF4F46DEF19
:102E80007FEF611B710917FD739504C0440C551C3D
:102E9000661C771C6A95D2F7D501C401B695A79533
:102EA00097958795BC01CD01640D751D861D971DF5
:102EB000A50194010E94C4243EC0212F332727FD81
:102EC00030952D5F3F4FD501C40104C0880F991F75
:102ED000AA1FBB1F2A95D2F79C01AD01B695A795F5
:102EE00097958795BC01CD01640D751D861D971DB5
:102EF0000E94C42420C0332727FD30952D5F3F4F0B
:102F0000D501C40104C0880F991FAA1FBB1F2A95B1
:102F1000D2F79C01AD01B695A79597958795BC0111
:102F2000CD01640D751D861D971D0E94C42421507E
:102F3000310941095109832F8F701295107F182B89
:102F40001F832E8381E018C080E016C080E014C08B
:102F5000D501C401880F991FAA1FBB1F880F991F95
:102F6000AA1FBB1F880F991FAA1FBB1F481A590A07
:102F70006A0A7B0A19EF83CFDF91CF911F910F91DE
:102F8000FF90EF90DF90CF90BF90AF909F908F9089
:102F90007F906F905F904F9008950F931F93CF9302
:102FA000DF93EC018B01009709F4EEC0803C9105A2
:102FB00031F460E180E090E00E94130CE5C0C1159F
:102FC00084E0D80731F464E080E090E00E94130CC4
:102FD000DBC0C038E1E0DE0731F462E080E090E081
:102FE0000E94130CD1C0C115F1E0DF0731F461E09C
:102FF00080E090E00E94130CC7C0C03883E0D8077F
:1030000031F461E081E090E00E94130CBDC0C11575
:10301000E2E0DE0731F462E081E090E00E94130C10
:10302000B3C0C032F3E0DF0731F464E082E090E047
:103030000E94130CA9C0C11588E0D80731F461E0E3
:1030400083E090E00E94130C9FC0C115E9E0DE0709
:1030500031F461E084E090E00E94130C95C0C1154A
:10306000FAE0DF0731F461E085E090E00E94130CA4
:103070008BC0C03488E0D80731F462E083E090E090
:103080000E94130C81C0C034E9E0DE0731F462E035
:1030900084E090E00E94130C77C0C039F8E0DF07AD
:1030A00031F464E083E090E00E94130C6DC0C039FD
:1030B00089E0D80731F464E084E090E00E94130CCA
:1030C00063C0C039EAE0DE0731F464E085E090E0F7
:1030D0000E94130C59C0C03CF8E0DF0731F468E0EF
:1030E00083E090E00E94130C4FC0C03C89E0D807F9
:1030F00031F468E084E090E00E94130C45C0C03ACF
:10310000E8E0DE0731F460E183E090E00E94130C18
:103110003BC0C03AF9E0DF0731F460E184E090E0C1
:103120000E94130C31C0C03A8AE0D80731F460E144
:1031300085E090E00E94130C27C0C03BE8E0DE076A
:1031400031F460E283E090E00E94130C1DC0C03BAC
:10315000F9E0DF0731F460E284E090E00E94130CB4
:1031600013C0C03884E0D80731F460E483E090E015
:103170000E94130C09C0C03AE4E0DE0729F460E4C1
:1031800085E090E00E94130C8D818F738D83F80190
:1031900096818481892B9085992311F098E001C054
:1031A00090E0892B8D83F801408151816281738188
:1031B00000E01CE62CED32E0CE01DDDD9C81986064
:1031C0009C839C8190619C83DF91CF911F910F9193
:1031D0000895811118C090917822992389F09FB7A2
:1031E000F894E1E9F3E22081215020839FBF08C0D9
:1031F0009FB7F894E1E9F3E220812F5F20839FBF1E
:1032000080937822089590917822992389F3F8CFBA
:10321000282F2F7030E0220F331F992787FD9095BC
:103220008827990F881F9927280F391F220F331FCE
:10323000220F331F220F331F205E3D4D822F932F0D
:1032400008950F931F93CF93DF936370613039F02C
:1032500018F4C0E4D0E005C0C0E8D0E002C0C0EC83
:10326000D0E040385105F9F050F440325105A9F052
:1032700040345105A9F04031510561F420C0411599
:1032800092E05907B1F04F3F93E05907A9F041157B
:10329000514061F000E010E014C002E010E011C005
:1032A00003E010E00EC004E010E00BC005E010E009
:1032B00008C006E010E005C007E010E002C001E031
:1032C00010E0A6DFFC01118286E08083C02BC18361
:1032D000DF91CF911F910F9108950F93E8ECF4E0E7
:1032E00080818F7D808380818F7D8083E8E2F2E220
:1032F00002E0059310922A2210922B2200E20693FC
:1033000000E40693E0E2F2E200E2069300E40693B2
:103310001092A2231092A3231092A4231092A5230B
:103320001092A0231092A1231092392310923A23D5
:103330000F9108950F9385E090E080933923909347
:103340003A23E9E2F2E204E00593E1E2F2E204E08A
:1033500005930F9108950F9383E090E080933923B4
:1033600090933A2310922A2210922B22E8E2F2E262
:1033700002E006930F9108950F9384E090E080930C
:10338000392390933A23E0E2F2E202E006930F91B0
:103390000895E091A223F091A323309709F00995B5
:1033A00008950F93CF93DF938091392390913A231F
:1033B000039719F4EEDF91DF5AC080913D2390917D
:1033C0003E23C091A023D091A123C81BD90B41F566
:1033D00020913B2330913C23820F931F80933B230A
:1033E00090933C2320919C2330919D238217930737
:1033F00021F080913F23882311F0BEDF38C0E09197
:10340000A423F091A523309799F00995882381F0A2
:1034100010923D2310923E23C091A023D091A1236E
:10342000C034D10528F010923F23C0E4D0E003C09F
:1034300081E080933F23C0932A22D0932B22809156
:103440003D2390913E2320919E2330919F23280F6E
:10345000391F20932C2230932D22C80FD91FC093DF
:103460003D23D0933E23E8E2F2E202E00693DF91AF
:10347000CF910F910895FC01818187708430A9F06C
:1034800030F4823061F070F4813031F41AC086304B
:1034900091F070F0873091F028E030E014C020E225
:1034A00030E011C020E430E00EC020E830E00BC076
:1034B00020E031E008C020E032E005C02FEF33E02B
:1034C00002C020E130E0822F932F0895282F2F7023
:1034D00030E0220F331F992787FD90958827990F99
:1034E000881F9927280F391F22503109C901880FD9
:1034F000991F880F991F880F991F280F391F2C5A61
:103500003D4D822F932F08950F938091CC0480FF1F
:103510006DC081E08093CC04E0E2F2E200E8069323
:10352000E8E2F2E200E806938093CA04E0E2F2E205
:1035300000E106938091392390913A23009729F076
:103540000397029708F425DFC8DE8091222290912C
:103550002322089709F04CC088E0E9EFF2E2A6E9DF
:10356000B3E201900D928A95E1F7E8ECF4E08081F6
:10357000806280838081806280830E949A0F8111A3
:1035800003C0D8DE81E035C08091962388238CF477
:1035900010923B2310923C2310923D2310923E2325
:1035A00082E090E08093392390933A23FADE81E021
:1035B00020C080919C2390919D23892B19F4CBDE10
:1035C00081E017C010923B2310923C2310923D23C0
:1035D00010923E2381E090E08093392390933A2328
:1035E000E0E2F2E202E0069381E003C080E001C085
:1035F00081E00F910895BF92CF92DF92EF92FF92F8
:103600000F931F93CF93DF93B82E60DFEC018B2DC8
:10361000FFDD7C0130DF6C01BB200CF05FC0D70107
:1036200016962D913C9117978D819E81280F391FF9
:103630002D833E838B819C812817390709F43CC078
:10364000FC01E21BF30B9F012115F4E03F0740F062
:103650002FEF33E0C901B6010E94B024281B390BBB
:10366000888181FF0CC0C901B6010E94B02441E0ED
:1036700050E0892B11F040E050E0CA0102C080E028
:1036800090E0988180FB91F99883D70116961D925E
:103690001C92179712962D933C93139729813A8188
:1036A0008D819E81820F931F14968D939C93159705
:1036B000F70102E006939DC0888181FF8BC08D7F5A
:1036C0008883D70116961D921C92179712961D9209
:1036D0001C921397F70102E006938BC0D701129654
:1036E0000D911C911397888182FF19C029813A811D
:1036F0008D819E81280F391F8B819C81B6010E948C
:10370000B024B0E4BB9EF0011124E75CFD4D482FCE
:10371000592F6E2F7F2F822F932F0E94B4252D813A
:103720003E81200F311F2D833E83EB81FC81E21708
:10373000F30710F4ED83FE83D70116962D913C918B
:1037400017972017310709F045C08D819E81E81732
:10375000F90709F43FC0E81BF90BE115B4E0FB07DA
:1037600048F0EFEFF3E0CF01B6010E94B024E81B70
:10377000F90B06C0CF01B6010E94B024E81BF90B7B
:10378000D70112961D921C921397EC15FD0578F443
:10379000888184608883B0E4BB9EC0011124875C6B
:1037A0009D4DF70184839583C682D7820FC02981FE
:1037B0003A818D819E81820F931FD70114968D933C
:1037C0009C9315971696ED93FC931797F70102E0DB
:1037D00006930FC0888180FF0CC08E7F8883EF81A5
:1037E000F885309731F06D817E814B2D80E090E03F
:1037F0000995DF91CF911F910F91FF90EF90DF908E
:10380000CF90BF90089580E008958093C3040895F9
:103810008091C30408952091502230915122822F2B
:10382000932F089580E090E0089580939E239093D5
:103830009F236093A0237093A1230895EF92FF929A
:103840000F931F93CF93DF93F82EE62E8A01E0DCCF
:10385000EC018981807C89F4A8016E2D8F2DF1DC2B
:103860008981807C803C21F489818770873039F0A0
:1038700089818062898381E003C080E001C081E0AA
:10388000DF91CF911F910F91FF90EF900895C0DCD1
:10389000FC01818182FB882780F90895CF93C82F8E
:1038A000B7DCFC01818182FF0FC081818B7F818326
:1038B0008C2F0CDEFC01808180FF06C08E7F808310
:1038C0000780F085E02D099581E0CF9108958F92D2
:1038D0009F92AF92BF92CF92DF92EF92FF920F939F
:1038E0001F93CF93DF93982E862E5A016901EEDD48
:1038F0007C01892D8DDCEC018981807C09F44DC02F
:103900008981807C803C19F0898182FD48C08FB715
:10391000F894F701908190FF03C08FBF80E040C012
:10392000F7019081916090838FBFA182B282C382A0
:10393000D4821582168207831087811008C021E087
:1039400030E0C114D10429F020E030E002C021E0D1
:1039500030E0F701808120FB81F98B7F8083992003
:103960001CF41E821F8215C08981807C803C69F412
:10397000CE0181DDBC01C601F3D7892B31F0F701FF
:1039800080818E7F808380E00BC01A821B821E8222
:103990001F82892D30DE81E003C080E001C080E01D
:1039A000DF91CF911F910F91FF90EF90DF90CF901B
:1039B000BF90AF909F908F9008950F931F93CF93D8
:1039C000DF93182F25DCEC01812F80DDDC01FE0167
:1039D00002E005938C9180FF13C08E7F8C93179625
:1039E000ED91FC911897309759F011231CF46E81DA
:1039F0007F8102C06A817B81412F81E090E009953F
:103A0000DF91CF911F910F9108950F93CF93C82FFE
:103A1000FFDBFC0181818460818301E006938C2FB0
:103A2000CCDF81E0CF910F910895CF93C82FC5DFF0
:103A30008C2FEEDBFC011182CF9108951F920F9223
:103A40000FB60F9211240F932F933F934F935F93D1
:103A50006F937F938F939F93AF93BF93EF93FF9356
:103A60008091CB04882334F480E88093CA040E94B8
:103A70006B0F84C08091CB0482FF23C084E08093CD
:103A8000CA048091282286FF79C08091CC0481FDF0
:103A900075C03ADD811172C08091392390913A232B
:103AA0008130910511F457DC69C0049709F066C0B4
:103AB000E9E2F2E204E00593E1E2F2E204E00593D8
:103AC0005DC08091CB0481FF54C082E08093CA0422
:103AD0008091202286FF52C08091CC0481FD4EC08F
:103AE00013DD81114BC08091392390913A238230AC
:103AF000910511F441DC42C0039709F03FC0E9E2AF
:103B0000F2E204E00593E1E2F2E204E0059336C05C
:103B100080E18093CA0481E050DF81E84EDF0E949B
:103B2000440F1092C30440E450E060E080E089DB81
:103B300040E450E060E080E884DB89EF92E280932B
:103B4000242290932522C9DB19C08091CB0486FFE3
:103B500006C080E48093CA0480E03BDB0FC0809104
:103B6000CB0485FF0BC080E28093CA0481E031DB87
:103B700005C08091CB0484FDCBCFE7CFFF91EF91BF
:103B8000BF91AF919F918F917F916F915F914F9175
:103B90003F912F910F910F900FBE0F901F9018958E
:103BA0001F920F920FB60F9211240F931F932F9312
:103BB0003F934F935F936F937F938F939F93AF93B5
:103BC000BF93CF93DF93EF93FF938091CC0481FD5C
:103BD00003C09ADC8111ACC082E08093CC04809158
:103BE000C5048195880FE0E2F2E2E81BF10920812B
:103BF0003181205232423695279536952795369554
:103C00002795822F869520FF02C0C0E801C0C0E042
:103C1000C80F8C2FFDDAFC01808185FF89C000E28E
:103C20000693C1117FC08091392390913A23049764
:103C300019F4AFDB52DB7CC0C0912222D091232249
:103C40008091A0239091A12300913D2310913E23C8
:103C500098012C0F3D1F8217930718F4EC01C01B2D
:103C6000D10B20919E2330919F23200F311F89EF8C
:103C700092E24C2F5D2F682F792F822F932F74D7CC
:103C80000C0F1D1F00933D2310933E23C034D1051C
:103C900069F480913B2390913C23800F911F2091E8
:103CA0009C2330919D238217930788F00093A023D3
:103CB0001093A123E091A423F091A523309729F03C
:103CC0000995811102C036DB33C045DB31C08091DC
:103CD000A0239091A12308171907F9F4E091A423D8
:103CE000F091A523309711F425DB22C009958111AD
:103CF00002C020DB1DC020913B2330913C238091EA
:103D00003D2390913E23820F931F80933B239093FA
:103D10003C2310923D2310923E23E0E2F2E202E0C7
:103D2000069306C0C03811F43CDB02C08C2F63DC64
:103D3000FF91EF91DF91CF91BF91AF919F918F91C3
:103D40007F916F915F914F913F912F911F910F91B3
:103D50000F900FBE0F901F901895CF92DF92EF92A9
:103D6000FF92CF93DF93EC016B01E12CF12C60E02B
:103D70007CE68CED92E0A701960106D6CA01B90156
:103D80002FEF3FEF40E050E0FFD52115310539F42A
:103D900081E090E08E839F8321E030E039C02230C3
:103DA000310538F482E090E08E839F8322E030E09A
:103DB0002FC02430310538F483E090E08E839F8358
:103DC00024E030E025C02830310538F484E090E06C
:103DD0008E839F8328E030E01BC02034310538F407
:103DE00085E090E08E839F8320E430E011C02F3F78
:103DF000310509F038F486E090E08E839F8320E05F
:103E000031E006C087E090E08E839F8320E034E0BD
:103E100040E050E060E07CE68CED92E0B5D5CA0170
:103E2000B901A7019601B0D5288739872436310515
:103E300020F41E821F8218861986DF91CF91FF9091
:103E4000EF90DF90CF9008950F931F93CF93DF9360
:103E5000EC01890162307105E1F140F461157105F1
:103E600071F06130710509F072C01EC063307105D8
:103E700009F444C06430710509F069C054C080E0A1
:103E800098E088839983E0E4F6E0A0819A012150CC
:103E9000310961E070E0CB0102C0880F991F2A95BB
:103EA000E2F78A2B808353C080E498E0888399836B
:103EB000E0E4F6E0A0819A012D5F3F4F61E070E001
:103EC000CB0102C0880F991F2A95E2F78A2B8083C5
:103ED0003EC080E099E088839983E0E6F6E0A08127
:103EE0009A012150310961E070E0CB0102C0880FD6
:103EF000991F2A95E2F78A2B808329C080E499E0F4
:103F000088839983E0E6F6E0A0819A012D5F3F4F18
:103F100061E070E0CB0102C0880F991F2A95E2F79B
:103F20008A2B808314C080E09AE088839983E0E83C
:103F3000F6E0A0819A012150310961E070E0CB01E7
:103F400002C0880F991F2A95E2F78A2B80834A8343
:103F50005B834230510589F020F441305105D9F49A
:103F600007C04330510571F044305105A1F40FC032
:103F700080E190E08C839D830EC080E290E08C8392
:103F80009D8309C080E490E08C839D8304C080E819
:103F900090E08C839D83888199810E945316E881EB
:103FA000F9818181887F83608183188619861E82CA
:103FB0001F82E881F9818081807F8083B801CE01F2
:103FC000CCDEDF91CF911F910F910895CF93DF93B6
:103FD000EC01A885B985262F30E0F8D424E630E03E
:103FE00040E050E0D1D48A819B81E881F981E6FDEF
:103FF00019C08230910569F018F40197F1F406C0F8
:104000008330910549F00497C1F409C020AF31AF66
:1040100014C022AF33AF11C024AF35AF0EC026AFEE
:1040200037AF0BC08130910519F0029731F403C00E
:1040300020AF31AF02C022AF33AF88859985E881C8
:10404000F98186A397A38C819D81E881F981E6FDA2
:1040500004C09181892B818305C0218180739927B8
:10406000822B8183E881F9818081807F9E81892BE9
:104070008083DF91CF9108951F920F920FB60F9218
:1040800011242F933F934F935F936F937F938F935D
:104090009F93AF93BF93EF93FF9380EA99E00E94C1
:1040A000B5168333B1F028F4813349F0823321F51A
:1040B0000BC08533C1F090F08633F1F419C080E174
:1040C000E0E4F6E0878318C080E2E0E4F6E087836E
:1040D00013C080E8E0E4F6E087830EC082E0E0EE03
:1040E000F7E0878309C081E0E0EEF7E0878304C052
:1040F00080E4E0E4F6E08783FF91EF91BF91AF9118
:104100009F918F917F916F915F914F913F912F91EF
:104110000F900FBE0F901F9018952F923F924F92C5
:104120005F926F927F928F929F92AF92BF92CF9247
:10413000DF92EF92FF920F931F93CF93DF9300D004
:10414000CDB7DEB782E390E089839A8389819A8133
:10415000843691050CF0EAC20F2EF0E48F2EF6E0C3
:104160009F2EF02D6894222424F86894332435F887
:104170006894442447F80F2EF0EE6F2EF7E07F2E60
:10418000F02D55245394F4012582E981FA819F2F63
:10419000990F990BA12C0F2EFCE6BF2EF02D0F2EA0
:1041A000FCEDCF2EF02D6894DD24D1F8E12CF12C1C
:1041B00000E010E02E2F3F2F492F592F692F792F24
:1041C000892F10D429513C4F4F4F5F4F6F4F7F4F76
:1041D0008F4F9F4F0E94FC0120E030E84BEB55E4ED
:1041E0000E9427050E944B01F22FE32F8F2F9E2F55
:1041F000A42FB52F0197A109B109E1F7F401358288
:10420000E981FA819F2F990F990BA12C0F2EFCE6C3
:10421000BF2EF02D0F2EFCEDCF2EF02D6894DD2457
:10422000D1F8E12CF12C00E010E02E2F3F2F492F88
:10423000592F692F792F892FD5D329513C4F4F4FB3
:104240005F4F6F4F7F4F8F4F9F4F0E94FC0120E0C9
:1042500030E84BEB55E40E9427050E944B01F22FFA
:10426000E32F8F2F9E2FA42FB52F0197A109B109FE
:10427000E1F7F4014582E981FA819F2F990F990BAB
:10428000A12C0F2EFCE6BF2EF02D0F2EFCEDCF2E15
:10429000F02D6894DD24D1F8E12CF12C00E010E041
:1042A0002E2F3F2F492F592F692F792F892F9AD3DE
:1042B00029513C4F4F4F5F4F6F4F7F4F8F4F9F4F55
:1042C0000E94FC0120E030E84BEB55E40E942705FA
:1042D0000E944B01F22FE32F8F2F9E2FA42FB52F7B
:1042E0000197A109B109E1F782E0F3018583E98132
:1042F000FA819F2F990F990BA12C0F2EFCE6BF2E50
:10430000F02D0F2EFCEDCF2EF02D6894DD24D1F88A
:10431000E12CF12C00E010E02E2F3F2F492F592FD8
:10432000692F792F892F5ED329513C4F4F4F5F4F13
:104330006F4F7F4F8F4F9F4F0E94FC0120E030E86E
:104340004BEB55E40E9427050E944B01F22FE32F0F
:104350008F2F9E2FA42FB52F0197A109B109E1F747
:10436000F3015582E981FA819F2F990F990BA12CB6
:104370000F2EFCE6BF2EF02D0F2EFCEDCF2EF02DD4
:104380006894DD24D1F8E12CF12C00E010E02E2F10
:104390003F2F492F592F692F792F892F23D3295147
:1043A0003C4F4F4F5F4F6F4F7F4F8F4F9F4F0E943C
:1043B000FC0120E030E84BEB55E40E9427050E9409
:1043C0004B01F22FE32F8F2F9E2FA42FB52F019794
:1043D000A109B109E1F780E4F4018583E981FA815B
:1043E0009F2F990F990BA12C0F2EFCE6BF2EF02DBD
:1043F0000F2EFCEDCF2EF02D6894DD24D1F8E12CAA
:10440000F12C00E010E02E2F3F2F492F592F692F5C
:10441000792F892FE7D229513C4F4F4F5F4F6F4F74
:104420007F4F8F4F9F4F0E94FC0120E030E84BEB05
:1044300055E40E9427050E944B01F22FE32F8F2F96
:104440009E2FA42FB52F0197A109B109E1F7F4011F
:104450002682E981FA819F2F990F990BA12C0F2EAB
:10446000FCE6BF2EF02D0F2EFCEDCF2EF02D689424
:10447000DD24D1F8E12CF12C00E010E02E2F3F2FAD
:10448000492F592F692F792F892FACD229513C4FB1
:104490004F4F5F4F6F4F7F4F8F4F9F4F0E94FC01D9
:1044A00020E030E84BEB55E40E9427050E944B01C9
:1044B000F22FE32F8F2F9E2FA42FB52F0197A10945
:1044C000B109E1F7F4013682E981FA819F2F990F52
:1044D000990BA12C0F2EFCE6BF2EF02D0F2EFCED1C
:1044E000CF2EF02D6894DD24D1F8E12CF12C00E0E2
:1044F00010E02E2F3F2F492F592F692F792F892F09
:1045000071D229513C4F4F4F5F4F6F4F7F4F8F4FAD
:104510009F4F0E94FC0120E030E84BEB55E40E94E5
:1045200027050E944B01F22FE32F8F2F9E2FA42FE0
:10453000B52F0197A109B109E1F7F4014682E9819C
:10454000FA819F2F990F990BA12C0F2EFCE6BF2EFD
:10455000F02D0F2EFCEDCF2EF02D6894DD24D1F838
:10456000E12CF12C00E010E02E2F3F2F492F592F86
:10457000692F792F892F36D229513C4F4F4F5F4FEA
:104580006F4F7F4F8F4F9F4F0E94FC0120E030E81C
:104590004BEB55E40E9427050E944B01F22FE32FBD
:1045A0008F2F9E2FA42FB52F0197A109B109E1F7F5
:1045B00082E0F3018683E981FA819F2F990F990B9D
:1045C000A12C0F2EFCE6BF2EF02D0F2EFCEDCF2ED2
:1045D000F02D6894DD24D1F8E12CF12C00E010E0FE
:1045E0002E2F3F2F492F592F692F792F892FFAD13D
:1045F00029513C4F4F4F5F4F6F4F7F4F8F4F9F4F12
:104600000E94FC0120E030E84BEB55E40E942705B6
:104610000E944B01F22FE32F8F2F9E2FA42FB52F37
:104620000197A109B109E1F7F3015682E981FA8105
:104630009F2F990F990BA12C0F2EFCE6BF2EF02D6A
:104640000F2EFCEDCF2EF02D6894DD24D1F8E12C57
:10465000F12C00E010E02E2F3F2F492F592F692F0A
:10466000792F892FBFD129513C4F4F4F5F4F6F4F4B
:104670007F4F8F4F9F4F0E94FC0120E030E84BEBB3
:1046800055E40E9427050E944B01F22FE32F8F2F44
:104690009E2FA42FB52F0197A109B109E1F780E45E
:1046A000F4018683E981FA819F2F990F990BA12C40
:1046B0000F2EFCE6BF2EF02D0F2EFCEDCF2EF02D91
:1046C0006894DD24D1F8E12CF12C00E010E02E2FCD
:1046D0003F2F492F592F692F792F892F83D12951A6
:1046E0003C4F4F4F5F4F6F4F7F4F8F4F9F4F0E94F9
:1046F000FC0120E030E84BEB55E40E9427050E94C6
:104700004B01F22FE32F8F2F9E2FA42FB52F019750
:10471000A109B109E1F789819A810F9689839A836A
:1047200089819A81843691050CF42DCD0F900F90DC
:10473000DF91CF911F910F91FF90EF90DF90CF907D
:10474000BF90AF909F908F907F906F905F904F90B1
:104750003F902F900895CF93DF9300D000D0CDB736
:10476000DEB7E0E0F6E081E0818382E0818384E0EF
:10477000818388E081830E94020ACFDC80E090E0A0
:104780000E94070A60E070E080E090E00E94520A18
:1047900080E092E1AAE7B0E00197A109B109E1F751
:1047A00064EF71E080E090E00E94520A80E092E1C4
:1047B000AAE7B0E00197A109B109E1F768EE73E05B
:1047C00080E090E00E94520A1B821C82EE24E39457
:1047D000F12CEC0EFD1E04EA10E24E0183E0880E7F
:1047E000911C0F2EF8EAAF2EF0E2BF2EF02D3E0105
:1047F00092E0690E711C0F2EC12CF6E0DF2EF02D19
:104800006894332433F86894222422F8689444246A
:1048100041F8552453940E943B09892B09F48CC01C
:10482000FF92EF921F930F93A8D10F900F900F90CC
:104830000F908981843409F440C024F4833409F052
:104840007BC007C08F3409F442C0843509F074C0BE
:104850001AC0FF92EF921F930F938FD10F900F907A
:104860000F900F908981813339F481E090E00E94AC
:104870005B09F601558260C080E090E00E945B0910
:10488000F601568259C0FF92EF921F930F9375D194
:104890000F900F900F900F908981813339F481E050
:1048A00090E00E947309F601458246C080E090E0E6
:1048B0000E947309F60146823FC09F928F92BF9279
:1048C000AF925BD10F900F900F900F9035C0FF9279
:1048D000EF921F930F9351D1FF92EF921F930F937B
:1048E0004CD17F926F921F930F9347D1CDBFDEBF04
:1048F0008981813389F48A81813339F481E090E0C0
:104900000E948B09F601258217C080E090E00E948A
:104910008B09F601268210C08A81813339F481E047
:1049200090E00E94A309F601358206C080E090E085
:104930000E94A309F60136828B819C81880F991F02
:104940009C01220F331F220F331F820F931F8B8373
:104950009C83682F792F80E090E00E94520A5BCF01
:10496000AA1BBB1B51E107C0AA1FBB1FA617B70795
:1049700010F0A61BB70B881F991F5A95A9F78095B1
:104980009095BC01CD010895A1E21A2EAA1BBB1B74
:10499000FD010DC0AA1FBB1FEE1FFF1FA217B3070B
:1049A000E407F50720F0A21BB30BE40BF50B661F21
:1049B000771F881F991F1A9469F7609570958095E5
:1049C00090959B01AC01BD01CF010895A29FB0015C
:1049D000B39FC001A39F01D0B29F700D811D112410
:1049E000911D0895DF93CF931F930F939A9DF02D00
:1049F000219FF00D8B9DF00D8A9DE02DF10D039F01
:104A0000F00D029FE00DF11D4E9DE00DF11D5E9D2C
:104A1000F00D4F9DF00D7F936F93BF92AF925F9318
:104A20004F93D501D3DF8B01AC01D701CFDFEB0171
:104A3000E80FF91FD6011FD02F913F91D601C6DF95
:104A4000C60FD71FE81FF91FAF91BF9114D02F9148
:104A50003F91BCDFC60FD71FE81FF91FD601B6DF95
:104A6000E60FF71F9801BE01CF0111240F911F918E
:104A7000CF91DF910895AADF460F571FC81FD91F96
:104A800008F43196089506D084FF0895CB0102D032
:104A9000805F0895AA27992329F4A85F982B11F421
:104AA00080E10895903118F4AD5F9295A395990F28
:104AB000E8F78A2F992708952F923F924F925F929D
:104AC0006F927F928F929F92AF92BF92CF92DF921E
:104AD000EF92FF920F931F93CF93DF93CDB7DEB783
:104AE000CA1BDB0BCDBFDEBF09942A8839884888F2
:104AF0005F846E847D848C849B84AA84B984C884FA
:104B0000DF80EE80FD800C811B81AA81B981CE0FF0
:104B1000D11DCDBFDEBFED0108950F930F7351F08E
:104B2000220F331F441F551F661F771F881F991FB1
:104B30000A95B1F70F9108950F930F7351F0969561
:104B400087957795679557954795379527950A9552
:104B5000B1F70F9108952A153B054C055D056E05CB
:104B60007F05800791070895FB01DC0102C00190D9
:104B70000D9241505040D8F70895A0E0B0E0E2EC2B
:104B8000F5E2AACFFE01359661917191AF01809156
:104B9000A6239091A7239DD1E2E0B7CF20FD09C0C5
:104BA000FC0123FD05C022FF02C073836283518391
:104BB00040830895CF92DF92EF92FF920F931F935D
:104BC00044FD10C046FD10C0DB01FC01AA0FBB1F55
:104BD000EE1FFF1F1094D1F76A0F7B1F8E1F9F1FC0
:104BE00031E003C033E001C034E0660F771F881F57
:104BF000991F3150D1F76B017C01C20ED11CE11C11
:104C0000F11C97018601B601C9011F910F91FF9018
:104C1000EF90DF90CF9008950F931F93CF93DF9382
:104C20008C01C80189D2EC0197FD06C072D2892B94
:104C3000C1F7B801CE01C0D2CE01DF91CF911F9153
:104C40000F9108958F929F92AF92CF92DF92EF9241
:104C5000FF920F931F93CF93DF93EC01A62E4A018F
:104C6000022F6AD2AC0155274B32510521F04D324B
:104C7000510549F40068AA9411F480E05CC0CE01AB
:104C80005BD297FDFACF102F1D7F302F3073D1F4F8
:104C90008033C1F4AA9409F43BC0CE014DD297FDF4
:104CA00037C0883711F0883541F41264AA9481F135
:104CB000CE0142D297FF06C02BC006FF02C0126091
:104CC00001C01261C12CD12C7601282F205328302D
:104CD00078F014FF03C0BE016FD217C02A3040F035
:104CE00016FFF9CF2F7D322F31513630A0F72750E4
:104CF000412FC701B6015EDF6B017C011260AA94EF
:104D000051F0CE0119D297FFE0CF11FD04C0B5CF0D
:104D1000C12CD12C760117FF08C0F094E094D094F8
:104D2000C094C11CD11CE11CF11C212FB701A601AC
:104D3000C40134DF81E0DF91CF911F910F91FF908B
:104D4000EF90DF90CF90AF909F908F9008956F92EB
:104D50007F929F92AF92BF92CF92DF92EF92FF929B
:104D60000F931F93CF93DF93CDB7DEB7A197CDBF3E
:104D7000DEBF6C017A018901FE01319680E2DF011C
:104D80001D928A95E9F7D60113969C9020E030E0B9
:104D9000A12CA0E0B12CCF0141E050E0F80193FC40
:104DA000759193FE71918F01711103C000E010E0C5
:104DB0007EC07E3519F42115310559F1EB2DF0E057
:104DC000E217F3073CF47D3569F17D3219F4AA232B
:104DD00019F103C0A11101C0A72EE72FE695E695B2
:104DE000E6953C016E0E711CF301A72FA7703A01E6
:104DF00002C0660C771CAA95E2F7D301B081BA2BEA
:104E0000B0837A1559F07A1510F47F5FE6CF7150B0
:104E1000E4CFBB24B39403C0A1E001C0A0E02F5FA6
:104E20003F4FBCCFAA2319F08E8180628E83B110D0
:104E300003C0BB24B3940BC0FE013196CE01819612
:104E4000208120952193E817F907D1F7F2CFC60109
:104E500069A372D169A197FD23C0282F26952695B5
:104E60002695E1E0F0E0EC0FFD1FE20FF11D20813F
:104E700030E0AC014770552702C0359527954A951B
:104E8000E2F720FD03C0B60197D10AC0E114F10496
:104E900019F0D7018D937D016150B12CC1F602C08C
:104EA000B11084CFE114F10411F0F7011082C801B0
:104EB000A196CDBFDEBFDF91CF911F910F91FF90E3
:104EC000EF90DF90CF90BF90AF909F907F906F90CA
:104ED00008954F925F927F928F929F92AF92BF926E
:104EE000CF92DF92EF92FF920F931F93CF93DF93B6
:104EF0001F92CDB7DEB78C012B017A01FC0116821F
:104F00001782A12CE2C08C2D90E003D1892B19F0DF
:104F1000C80182DEDAC0F5E2CF120AC0F201D3FC8A
:104F20003591D3FE31912F01353261F455E2C52E12
:104F3000C80102D197FDD4C0C81609F4C6C0B80193
:104F40003BD1D0C03A3241F4D3FC3591D3FE3191FC
:104F50002F01BB24B39401C0B12C712C0FC0F2E01F
:104F6000BF2A672D70E080E090E040E223DE762EDD
:104F7000F201D3FC3591D3FE31912F01232F205321
:104F80002A3068F3B1FE03C0711003C0ABC07724B0
:104F90007A94383619F03C3699F40AC0F201D3FC01
:104FA0003591D3FE31912F01383651F4F8E0BF2A04
:104FB00084E0B82AF201D3FC3591D3FE31912F0160
:104FC000332309F48FC0632F70E08CEF91E03983B5
:104FD000A8D03981892B09F485C0B0FC07C0F7013E
:104FE000C080D18082E0E80EF11C02C0C12CD12C1F
:104FF0003E3649F4F8014681578160E070E02B2D80
:10500000C601CCDD62C0333689F4B1FC02C077241E
:105010007394C80191D097FD63C0C114D10419F0F5
:10502000F60181936F017A94A1F74DC03B3551F49D
:105030009201A601672DC8018ADE2C01009709F0B4
:1050400042C03CC0C8013983E7DD398197FD48C0C3
:105050003F3641F128F4343611F1393631F527C0A5
:10506000333719F0353709F51AC0C80165D04C013E
:1050700097FD0FC04ED0892B21F0B801C4019CD000
:1050800008C0C114D10419F0F60181926F017A941D
:1050900061F7C114D104B9F0F601108214C0F0E236
:1050A000BF2A05C080E1B82A02C090E4B92A2B2D9E
:1050B000A601672DC801C6DD811105C0F8018381F5
:1050C000807371F40FC0B0FEA394F801D380F20195
:1050D000D3FCC590D3FEC1902F01C11014CF02C0E4
:1050E000AA2019F02A2D30E002C02FEF3FEFC901AE
:1050F0000F90DF91CF911F910F91FF90EF90DF9074
:10510000CF90BF90AF909F908F907F905F904F9087
:10511000089591116CC0803219F089508550D0F7F4
:105120000895FC010590061621F00020D9F7C00172
:1051300008953197CF010895CF93DF93EC013B8120
:1051400030FF34C036FF0AC03F7B3B838E819F8196
:1051500001968E839F832A8130E02AC032FF0FC0E0
:10516000E881F9818081992787FD9095009719F44E
:1051700030623B831BC03196E883F9830EC0EA8519
:10518000FB85099597FF09C02B81019611F480E1F9
:1051900001C080E2822B8B8309C02E813F812F5F6B
:1051A0003F4F2E833F839C01332702C02FEF3FEFF9
:1051B000C901DF91CF910895FB01238120FF13C026
:1051C00026FD11C08F3F3FEF930769F082832F7D4B
:1051D0002064238326813781215031092683378338
:1051E0009C01332702C02FEF3FEFC9010895992793
:0851F00088270895F894FFCF11
:1051F80000C20100030000000000000003000000DE
:10520800001D092D090000140E5C0C660C680C6664
:105218000D1E0C560C6A0C680C00007C202F2038E0
:10522800203320212017200009024300020100C07A
:1052380032090400000102020100052400100104E3
:105248002402020524060001052401030107058242
:105258000340001009040100020A0000000705814C
:10526800024000000705020240000000120100028F
:1052780002000040010001000001000000010403D9
:105288000904000000000000000025316325316991
:0C52980025336900253163002569000002
:00000001FF
