S0190000446F6D6F63746F707573426173652D76312E737265638F
S11300000AC1000025C100000C94F71221C10000B0
S11300101FC100001DC100001BC1000019C1000068
S113002017C1000015C1000099C700000C940B1300
S11300300FC100000DC100000BC1000009C1000088
S113004007C1000005C1000003C1000001C1000098
S1130050FFC00000FDC00000FBC00000F9C00000AC
S1130060F7C00000F5C00000F3C00000F1C00000BC
S1130070EFC00000EDC00000EBC00000E9C00000CC
S1130080E7C00000E5C00000E3C00000E1C00000DC
S1130090DFC00000DDC00000DBC00000D9C00000EC
S11300A0D7C00000D5C00000D3C00000D1C00000FC
S11300B0CFC00000CDC00000CBC00000C9C000000C
S11300C0C7C00000C5C00000C3C00000C1C000001C
S11300D0BFC00000BDC00000BBC00000B9C000002C
S11300E0B7C00000B5C00000B3C00000B1C000003C
S11300F0AFC00000ADC00000ABC00000A9C000004C
S11301000C94C912A5C00000A3C00000A1C0000047
S11301109FC000009DC000009BC0000099C000006B
S113012097C0000095C0000093C0000091C000007B
S11301308FC000008DC000008BC0000089C000008B
S113014087C0000085C0000083C0000081C000009B
S11301507FC000007DC000007BC0000079C00000AB
S113016077C0000075C0000073C0000071C00000BB
S11301706FC000006DC000006BC0000069C00000CB
S113018067C0000065C0000063C0000061C00000DB
S11301905FC000005DC000005BC0000059C00000EB
S11301A057C0000055C0000053C0000051C00000FB
S11301B04FC000004DC000004BC0000049C000000B
S11301C047C0000045C0000043C0000041C000001B
S11301D03FC000003DC000003BC0000039C000002B
S11301E037C0000035C0000033C0000031C000003B
S11301F02FC000000C94280E0C94DE0ECA0AB80A14
S1130200BB0ABE0AC10AC40AC70A6364696E6F7076
S1130210737578585B0011241FBECFEFCDBFDFE2AA
S1130220DEBF10E2A0E0B0E2E0E7F2E302C0059036
S11302300D92A839B107D9F723E2A8E9B0E201C0C9
S11302401D92AD31B207E1F70E943F130C943619A9
S1130250D7CECF93DF9300D000D0CDB7DEB78FEFEA
S11302608093700080937100809372008093730078
S11302708093740080937500809376006CE170E045
S113028082E062D68A836DE170E082E05DD6898384
S113029089819A81019621F480E493E289839A8387
S11302A089819A818B839C83E0E6F0E082838C8150
S11302B083838FB7F894E0E5F0E0908192609083B7
S11302C08FBF818181FFFDCF8FB7F894A0E5B0E0A7
S11302D016969C911697997F16969C931697E0E62E
S11302E0F0E090E895839BEB968316969C91169785
S11302F0946016969C939081916090838FBF61E087
S113030080E490E01BD68FB7F894E0E5F0E09081AC
S11303109E7F90838FBF8FB7F89490819460908371
S11303208FBF818182FFFDCF8DE0E0E4F0E0838325
S11303302496CDBFDEBFDF91CF9108959FB7F89487
S1130340E82FF0E0E059FF4F6095808168236083D7
S11303509FBF08951092AE211092BA211092BB2132
S113036081EA8093B02180E28093B1211092B2217E
S11303701092B3211092B4211092B52182E090E042
S11303808093B6219093B7211092B8211092B9218D
S113039080E092ECA1E0B0E08093BC219093BD2179
S11303A0A093BE21B093BF211092C0211092C1210D
S11303B088E08093C2218091AE218F5F8093AE212B
S11303C081E008958091AE2181508093AE210895FB
S11303D08091AD2181508093AD218091AD21109207
S11303E0AC21089580E0089580E00895809107236A
S11303F08823DCF480768032E9F580910823813209
S1130400D9F580910D2390910E230797B9F58CEBC4
S113041091E280930F239093102387E090E08093E0
S113042011239093122381E008958076803241F560
S113043080910823803221F0823221F581E00895F1
S113044080910D2390910E230797F1F486E492E0B6
S113045080931323909314238CEB91E280930F23C6
S11304609093102387E090E08093112390931223BC
S113047081E0089580E0089580E0089580E0089583
S113048080E0089580E0089580E008950895FF9243
S11304900F931F93CF93DF9380919B2081119CC076
S11304A00E946B0C882351F0C0919C20D0919D2018
S11304B00E94780CC817D90759F48EC0C0919C20AB
S11304C0D0919D200E94730CC817D90709F484C0E9
S11304D0DFB7F894C0919E20EC2FF0E0EE0FFF1FE1
S11304E0E156FF4D80819181892B09F580919820F7
S11304F090919920019680939820909399200E943E
S11305006B0C811107C080919820909199208436BA
S1130510910558F00E946B0C882349F08091982033
S1130520909199208032934010F4DFBF55C010920F
S113053098201092992080919A20811106C081E020
S1130540C11180E080939E2004C081E0C11180E04D
S1130550C82F81E080939B20DFBFD0E0FE01EE0F27
S1130560FF1FE156FF4DFF24F39480819181803475
S1130570910509F4F12CFF2091F00E946B0C882363
S113058039F00E94780C80939C2090939D200BC09E
S11305900E94730C80939C2090939D2004C0109221
S11305A09C2010929D20FE01EE0FFF1FE156FF4D8F
S11305B020813181AE0100245695479507945695C4
S11305C047950794542F402D4C555F4D02EF12E090
S11305D06F2D81E80E942A0DDF91CF911F910F9119
S11305E0FF900895811115C020919E2081E090E034
S11305F0222311F080E090E0FC01EE0FFF1FE15692
S1130600FF4D1082118210929A2010929B2080E05C
S11306103ECF089580E03BCF08954FB7F8942091E2
S1130620252130912621E0912721F0E0EE0FFF1FD4
S1130630E85DFE4D80819181821B930B4FBF08952D
S1130640ECDF21E0892B09F420E0822F08950F9339
S11306501F93CF93DF934FB7F89450912721809144
S11306602421811110C02091252130912621C52FEC
S1130670D0E0FE01EE0FFF1FE85DFE4D8081918109
S11306802817390718F44FBF80E023C010922521A2
S11306901092262181E0511180E08093272181E08E
S11306A0809324214FBF80E0CBDFAE010024569518
S11306B047950794569547950794542F402D445DCC
S11306C05E4D00EA13E020E430E061E082E00E9445
S11306D02A0DDF91CF911F910F9108951092AD21B2
S11306E010929B2010929A2010929E2010929F208C
S11306F01092A0201092A1201092A22010929C206F
S113070010929D2080E0C3DE1092242110922721B4
S1130710109228211092292110922521109226212D
S113072080E095DF882359F09091AD219F5F9093ED
S1130730AD219091AD21913011F49093AC210895A5
S11307400F931F93942F811129C080912721E1E0F9
S11307508111E0E061157105B1F4F0E00024F69533
S1130760E7950794F695E7950794FE2FE02DAF01E2
S1130770445D5E4D00EA13E020E430E061E0892F3F
S11307800E942A0D0BC0F0E0EE0FFF1FE85DFE4D46
S1130790608371831092242180E059DF1F910F91AF
S11307A00895E091C821F091C9210190F081E02DD4
S11307B0228133812E0F3F1FFC014081E40FF11D84
S11307C0E217F307A0F481818430A1F0861306C0F8
S11307D014C081818430A1F08617A9F08081E80FCC
S11307E0F11DE217F307A8F380E090E0089580E09C
S11307F090E0089580E090E008958E2F9F2F089553
S113080080E090E008958E2F9F2F08958091092312
S11308108F770C946D0C08959091CA21992381F1DE
S1130820E091C821F091C9210190F081E02D9481DB
S1130830891740F5E093C621F093C72122813381C3
S11308402E0F3F1FE217F307F8F49181943061F4FF
S11308509281981309C09381961306C0E093C62130
S1130860F093C72181E008959081E90FF11DE2170B
S1130870F30758F3E093C621F093C72180E008956D
S113088080E0089580E0089580E00895FF920F933A
S11308901F93CF93DF93C82F60E0BEDFF82E882329
S11308A081F1A091C821B091C921EC2FF0E0EE0FA5
S11308B0FF1F12962D913C911397E20FF31F0081B5
S11308C01181D8011696ED91FC9117970995682F1F
S11308D08C2FA2DFF82E8823A1F0C091C621D091DD
S11308E0C72165E0CE015DDFEC01009721F08A812C
S11308F00E94EA0DF6CFD8011296ED91FC91139760
S113090009958F2DDF91CF911F910F91FF9008953D
S11309101F93CF93DF93182F7FDF882339F1C09182
S1130920C621D091C72165E0CE013BDFEC010097E1
S113093041F04C815D816B818A81E6D78111F3CFCF
S113094015C0A091C821B091C921812F90E0880FD2
S1130950991F1296ED91FC911397E80FF91F0190DE
S1130960F081E02D0190F081E02D0995DF91CF9188
S11309701F910895CF938091CA218823C1F0E091FB
S1130980C821F091C9210190F081E02D8481882350
S113099071F0C0E08C2F7ADFCF5FE091C821F09135
S11309A0C9210190F081E02D8481C81798F3109239
S11309B0CA2181E090E08093CB219093CC21CF9108
S11309C00895CF938091CA21882341F1E091C821F1
S11309D0F091C921A081B18114968C918823F1F002
S11309E0C0E08C2F90E0880F991F0280F381E02DE6
S11309F0E80FF91F0190F081E02D0084F185E02DCE
S1130A00309709F00995CF5FE091C821F091C92191
S1130A10A081B18114968C91C81718F3CF910895D1
S1130A20EF92FF920F931F93CF93DF9310921123B2
S1130A301092122310921323109214231092152350
S1130A40109216232091072322230CF065C2809173
S1130A500D2390910E23009709F063C259C22F71A0
S1130A6009F08BC030910823363081F0383009F416
S1130A7079C0311182C0029739F462E070E08BECE6
S1130A8091E239D701E0C7C100E0C5C12091092333
S1130A9030910A23832F99278230910599F01CF411
S1130AA0019739F055C083309105D1F10F9759F171
S1130AB04FC08091142090911520DC016C9170E05E
S1130AC01AD735C0E0911420F09115208189281798
S1130AD008F040C0C9019927880F991F880F991FF2
S1130AE0E0911620F0911720E80FF91F8081918181
S1130AF0FC0162817381FFD6E0910F23F0911023F2
S1130B0082E0818314C0809118209091192000976D
S1130B1019F1DC0112966D917C911397ECD607C004
S1130B2021111CC064E070E088E790E2E4D6809173
S1130B300D2390910E2320911123309112238217BB
S1130B40930770F4809311239093122301E063C1FF
S1130B5000E061C100E05FC100E05DC100E05BC195
S1130B6001E059C1019739F461E070E08AEC91E247
S1130B70C2D601E050C100E04EC1213009F03FC0AF
S1130B80309108233A30D9F5019799F58091CA211B
S1130B90882389F1C0910B23D0910C23E090C821C4
S1130BA0F090C921D701ED91FC918481C81728F5F3
S1130BB060E08C2F31DE082F882309F42CC1CE018C
S1130BC09927880F991FD7011296ED91FC911397DD
S1130BD0E80FF91F0190F081E02D0680F781E02DE8
S1130BE009958093C52161E070E085EC91E283D69C
S1130BF012C100E010C100E00EC100E00CC12230BF
S1130C0009F00BC120910823211100C1029779F446
S1130C1080910B23DAD690E08093C3219093C42172
S1130C2062E070E083EC91E266D601E0F4C000E09B
S1130C30F2C02F7109F090C080910823833009F429
S1130C40E7C018F48130B1F087C0853019F08930DD
S1130C5061F182C080910D2390910E23892B41F480
S1130C6086E094E0809313239093142301E0D3C08F
S1130C7000E0D1C080910D2390910E23892B89F43B
S1130C808091092390910A23019769F48091CB21E3
S1130C909091CC218D7F8093CB219093CC2101E046
S1130CA0BAC000E0B8C000E0B6C080910D239091B6
S1130CB00E23892B09F046C013D6882309F444C0B7
S1130CC02091092330910A233327E0911420F091D5
S1130CD01520818990E082179307C0F14BDE809143
S1130CE0092390910A238093CA21882389F19927A3
S1130CF08150904C880F991F880F991FE0911620FE
S1130D00F0911720E80FF91FE093C821F093C9214F
S1130D100190F081E02D84818823E1F0C0E060E05F
S1130D208C2FF6DD082F882309F475C0CF5FE0917E
S1130D30C821F091C9210190F081E02D8481C81768
S1130D4070F369C000E067C000E065C000E063C004
S1130D5001E061C001E05FC0213009F58091082302
S1130D608B30E9F480910D2390910E23892B99F413
S1130D708091CA21882389F0C0910B23D091092343
S1130D808C2F84DD082F882309F445C06D2F8C2F08
S1130D90BFDD082F40C000E03EC000E03CC0223070
S1130DA009F03BC080910823813019F08330B1F001
S1130DB031C080910D2390910E23892B59F4809199
S1130DC0092390910A23892B39F480910B2318D697
S1130DD0082F21C000E01FC000E01DC080910D233A
S1130DE090910E23892B71F48091092390910A2309
S1130DF0892B51F4CBE0D3E28881B3D6888107D71D
S1130E00082F09C000E007C000E005C000E003C0EF
S1130E1000E001C000E0011189C0809107238F71B7
S1130E208130C1F58091CA218823A1F1C0910B239F
S1130E30D0910C230091C8211091C921D801ED91C2
S1130E40FC918481C81730F560E08C2FE5DC8823A1
S1130E5009F1CE019927880F991FD8011296ED91B7
S1130E60FC911397E80FF91F00811181D8011696A0
S1130E70ED91FC9117970995682F8C2FCDDC882371
S1130E8049F0D8011496ED91FC9115970995082F16
S1130E9081114CC0809107238F718230D9F58091E4
S1130EA0CA21882389F1E091C821F091C921A08148
S1130EB0B18114968C91882349F110E0212F30E000
S1130EC0220F331F0280F381E02DE20FF31FC08154
S1130ED0D181EE81FF810995682F812F9DDC082F38
S1130EE0882321F1EC81FD810995082F81111EC011
S1130EF01F5FE091C821F091C921A081B1811496AE
S1130F008C911817D8F212C000E010C000E00EC097
S1130F1000E00CC000E00AC0822F807609F07DCF8B
S1130F2088CE322F307609F078CF99CD802FDF919B
S1130F30CF911F910F91FF90EF9008951BBEFC017C
S1130F4028ED24BF608308954091CA01E62FF72F4E
S1130F508093CA0184914093CA0108951F920F920D
S1130F600FB60F9211248F939F93EF93FF93EFEF9C
S1130F70F2E280819181019680839183FF91EF91C8
S1130F809F918F910F900FBE0F901F901895FC01A9
S1130F90818185FFFDCF608380E090E00895FC01AE
S1130FA081818823ECF7808108954F925F926F923C
S1130FB07F928F929F92AF92BF92CF92DF92EF92E5
S1130FC0FF920F931F93CF93DF93EC014A015B01D0
S1130FD028013901D901C801689412F8B695A7957A
S1130FE0979587951694D1F7B901A801032E36E198
S1130FF076956795579547953A95D1F7302D2C817D
S113100022FD08C0B695A79597958795769567951F
S11310105795479588159905AA05BB0508F4A6C0F8
S113102084169506A606B70608F4A2C08C8182FD34
S113103004C0880C991CAA1CBB1CC301B201A501E5
S113104094010E945E152F3F31054105510508F4B6
S113105091C0C12CD12C7601CA9419EF05C02C156E
S11310603D054E055F0568F0CC0CDD1CEE1CFF1C35
S11310701D3F14F46894C0F81F5F173081F7212FC7
S113108050C0212F11230CF04CC0D501C401880F8E
S1131090991FAA1FBB1F880F991FAA1FBB1F880F68
S11310A0991FAA1FBB1F481A590A6A0A7B0A1E3FC6
S11310B0F4F46DEF7FEF611B710917FD739504C0A4
S11310C0440C551C661C771C6A95D2F7D501C401E3
S11310D0B695A79597958795BC01CD01640D751DAF
S11310E0861D971DA50194010E945E1536C023E05C
S11310F0210FD501C40104C0880F991FAA1FBB1F6B
S11311002A95D2F79C01AD01B695A7959795879539
S1131110BC01CD01640D751D861D971D0E945E15D1
S11311201CC02D5FD501C40104C0880F991FAA1FDC
S1131130BB1F2A95D2F79C01AD01B695A79597954B
S11311408795BC01CD01640D751D861D971D0E94F8
S11311505E152150310941095109832F8F70129571
S1131160107F182B1F832E8381E018C080E016C0E7
S113117080E014C0D501C401880F991FAA1FBB1FAA
S1131180880F991FAA1FBB1F880F991FAA1FBB1F77
S1131190481A590A6A0A7B0A19EF8BCFDF91CF915B
S11311A01F910F91FF90EF90DF90CF90BF90AF9081
S11311B09F908F907F906F905F904F9008950F93C2
S11311C01F93CF93DF93EC018B01009709F4BFC009
S11311D0803C910521F460E180E0B0D8B8C0C1152D
S11311E084E0D80721F464E080E0A8D8B0C0C03817
S11311F0E1E0DE0721F462E080E0A0D8A8C0C115D8
S1131200F1E0DF0721F461E080E098D8A0C0C038A5
S113121083E0D80721F461E081E090D898C0C1153B
S1131220E2E0DE0721F462E081E088D890C0C032B9
S1131230F3E0DF0721F464E082E080D888C0C115C0
S113124088E0D80721F461E083E078D880C0C11534
S1131250E9E0DE0721F461E084E070D878C0C115CC
S1131260FAE0DF0721F461E085E068D870C0C0349B
S113127088E0D80721F462E083E060D868C0C03415
S1131280E9E0DE0721F462E084E058D860C0C039A8
S1131290F8E0DF0721F464E083E050D858C0C03997
S11312A089E0D80721F464E084E048D850C0C0390C
S11312B0EAE0DE0721F464E085E040D848C0C03CA1
S11312C0F8E0DF0721F468E083E038D840C0C03C90
S11312D089E0D80721F468E084E030D838C0C03A07
S11312E0E8E0DE0721F460E183E028D830C0C03AAA
S11312F0F9E0DF0721F460E184E020D828C0C03A97
S11313008AE0D80721F460E185E018D820C0C03B0A
S1131310E8E0DE0721F460E283E010D818C0C03BA7
S1131320F9E0DF0721F460E284E008D810C0C03897
S113133084E0D80721F460E483E000D808C0C03A10
S1131340E4E0DE0721F460E485E00E949E018D81E3
S11313508F738D83F80194818581892B96819923DC
S113136011F098E001C090E0892B8D83F801408151
S113137051816281738100E01CE62CED32E0CE01E4
S113138014DE9C8198609C839C8190619C83DF9196
S1131390CF911F910F910895811118C09091F82257
S11313A0992389F09FB7F894EAEFF2E22081215063
S11313B020839FBF08C09FB7F894EAEFF2E2208130
S11313C02F5F20839FBF8093F82208959091F82285
S11313D0992389F3F8CF0F93E8ECF4E080818F7DB3
S11313E0808380818F7D8083ECECF2E202E00593C0
S11313F01092CE221092CF2200E2069300E40693CC
S1131400E4ECF2E200E2069300E406931092132364
S11314101092142310921523109216231092112364
S1131420109212231092B6220F9108950F9385E023
S11314308093B622EDECF2E204E00593E5ECF2E2EF
S113144004E005930F9108950F9383E08093B622EF
S11314501092CE221092CF22ECECF2E202E006933C
S11314600F910895E0911323F0911423309709F01C
S1131470099508950F93CF93DF938091B62283301B
S113148019F4F0DFA8DF60C08091B2229091B322FA
S1131490C0911123D0911223C81BD90B71F520914F
S11314A0B4223091B522820F931F8093B42290937B
S11314B0B52220910D2330910E238217930721F03A
S11314C08091CD21882341F084E08093B622E4EC1E
S11314D0F2E202E0069338C0E0911523F09116235E
S11314E0309799F00995882381F01092B2221092D6
S11314F0B322C0911123D0911223C034D10528F016
S11315001092CD21C0E4D0E003C081E08093CD21CE
S1131510C093CE22D093CF228091B2229091B32255
S113152020910F2330911023280F391F2093D022AC
S11315303093D122C80FD91FC093B222D093B322C3
S1131540ECECF2E202E00693DF91CF910F91089563
S1131550FC018181877090E0FC013197E730F1054F
S113156020F4E250FF4F0C94801588E090E0089539
S113157080E290E0089580E490E0089580E890E0AF
S1131580089580E091E0089580E092E008958FEF5F
S113159093E0089580E190E00895282F2F7030E0C3
S11315A0220F331F992787FD90958827990F881F4D
S11315B09927820F931F02979C01220F331F220F3A
S11315C0331F220F331F820F931F825B9D4D08959B
S11315D00F93CF938091CC0480FF62C081E080930D
S11315E0CC04E4ECF2E200E80693ECECF2E200E86E
S11315F006938093CA04E4ECF2E200E1069380913E
S1131600B622882329F08350823008F42BDFE3DEEE
S11316108091C6229091C722089709F043C088E0C0
S1131620E2E7F2E2A7E0B3E201900D928A95E1F7D6
S1131630E8ECF4E080818062808380818062808332
S1131640EFD9C82F811103C0F1DEC1E02CC0809115
S1131650072388236CF41092B4221092B5221092BE
S1131660B2221092B32282E08093B62203DF1BC021
S113167020910D2330910E23232B11F4E5DE13C0AA
S11316801092B4221092B5221092B2221092B32278
S113169081E08093B622E4ECF2E202E0069303C018
S11316A0C0E001C0C1E08C2FCF910F910895BF928B
S11316B0CF92DF92EF92FF920F931F93CF93DF931A
S11316C0B82E6BDFEC011B2D111F1127111F8B2D61
S11316D08F70E82EF12CEE0CFF1CE10EF11CC701FB
S11316E0880F991F880F991F880F991F9C012C53ED
S11316F03D4D7901C9012CDF6C01112309F45BC054
S1131700D70116962D913C9117978D819E81280FB4
S1131710391F2D833E838B819C8128173907C9F19A
S1131720FC01E21BF30B9F012115F4E03F0740F09D
S11317302FEF33E0C901B6010E944A15281B390B6B
S1131740888181FF0AC0C901B6010E944A1541E09F
S1131750892B09F040E0942F01C090E0888190FB30
S113176081F98883D70116961D921C9217971296B9
S11317702D933C93139729813A818D819E81820F09
S1131780931F14968D939C931597F70102E006938B
S113179098C0888181FF87C08D7F8883D701169682
S11317A01D921C92179712961D921C921397F70183
S11317B002E0069386C0D70112960D911C911397EF
S11317C0888182FF15C0E981FA812D813E818B8158
S11317D09C81B6010E944A15B0E4BB9EB00111245D
S11317E062577E4DAC01CF01820F931F0E94E61514
S11317F02D813E81200F311F2D833E83EB81FC819F
S1131800E217F30710F4ED83FE83D70116968D914A
S11318109C9117978017910709F045C08D819E818F
S1131820E817F90709F43FC0E81BF90BE115B4E028
S1131830FB0748F0EFEFF3E0CF01B6010E944A1531
S1131840E81BF90B06C0CF01B6010E944A15E81B3C
S1131850F90BD70112961D921C921397EC15FD05F6
S113186078F4888184608883B0E4BB9EC00111242D
S113187082579E4DF70184839583C682D7820FC019
S113188029813A818D819E81820F931FD7011496FD
S11318908D939C9315971696ED93FC931797F701E8
S11318A002E006930EC0888180FF0BC08E7F888380
S11318B0EF81F885309729F06D817E814B2D80E092
S11318C00995DF91CF911F910F91FF90EF90DF90D9
S11318D0CF90BF90089580E008958093C304089545
S11318E08091C30408958091F4229091F522089583
S11318F080E090E0089580930F23909310236093E9
S11319001123709312230895E82FEF70F0E0EE0F87
S1131910FF1F992787FD90958827990F881F99277E
S1131920E80FF91FEE0FFF1FEE0FFF1FEE0FFF1F53
S1131930EC53FD4D8181807C09F043C063706130BC
S113194029F010F480E403C080E801C080EC403842
S11319505105E1F050F440325105A1F040345105F5
S113196099F04031510561F419C0411592E05907CD
S113197089F04F3F93E0590779F04115514041F008
S113198020E00DC022E00BC023E009C024E007C022
S113199025E005C026E003C027E001C021E0118254
S11319A096E09083822B81838181807C803C21F42A
S11319B081818770873039F081818062818381E001
S11319C0089580E0089581E00895E82FEF70F0E035
S11319D0EE0FFF1F992787FD90958827990F881F81
S11319E09927E80FF91FEE0FFF1FEE0FFF1FEE0FF1
S11319F0FF1FEC53FD4D818182FB882780F90895F8
S1131A00E82FEF70F0E0EE0FFF1F282F332727FD9C
S1131A1030952227330F221F3327E20FF31FEE0FD7
S1131A20FF1FEE0FFF1FEE0FFF1FEC53FD4D9181C3
S1131A3092FF0EC091819B7F9183AFDDFC01808179
S1131A4080FF06C08E7F80830780F085E02D099596
S1131A5081E008957F928F929F92AF92BF92CF922E
S1131A60DF92EF92FF920F931F93CF93DF93982E01
S1131A70862E5A01690191DD7C01792C771C77242B
S1131A80771CC92DCF70D0E0CC0FDD1FC70DD11D41
S1131A90CC0FDD1FCC0FDD1FCC0FDD1FCC53DD4D74
S1131AA08981807C09F44BC08981807C803C19F059
S1131AB0898182FD46C08FB7F894F701908190FF29
S1131AC003C08FBF712C3EC0F70190819160908359
S1131AD08FBFF701A182B282C382D482158216829B
S1131AE007831087811006C091E0C114D10419F056
S1131AF090E001C091E0F701808190FB81F98B7F38
S1131B008083772019F01E821F8214C08981807C13
S1131B10803C61F4CE011CDDBC01C601BBD7892B1E
S1131B2029F0F70180818E7F80830CC01A821B828A
S1131B301E821F82892DBBDD7724739403C0712C10
S1131B4001C0712C872DDF91CF911F910F91FF90D0
S1131B50EF90DF90CF90BF90AF909F908F907F9049
S1131B600895FF920F931F93CF93DF93182FF82EAE
S1131B70FF1CFF24FF1CC82FCF70D0E0CC0FDD1F4B
S1131B80CF0DD11DCC0FDD1FCC0FDD1FCC0FDD1F02
S1131B90CC53DD4D02DDDC01FE0102E005938C91A6
S1131BA080FF12C08E7F8C931796ED91FC9118974D
S1131BB0309751F0FF2019F06E817F8102C06A8155
S1131BC07B81412F81E00995DF91CF911F910F9186
S1131BD0FF900895CF93C82FC4DFEC2FEF70F0E08F
S1131BE0EE0FFF1F8C2F992787FD90958827990F5B
S1131BF0881F9927E80FF91FEE0FFF1FEE0FFF1F35
S1131C00EE0FFF1FEC53FD4D1182CF9108950F93FA
S1131C10E82FEF70F0E0EE0FFF1F282F332727FD8A
S1131C2030952227330F221F3327E20FF31FEE0FC5
S1131C30FF1FEE0FFF1FEE0FFF1FEC53FD4D9181B1
S1131C409460918301E006938CDF81E00F91089505
S1131C501F920F920FB60F9211240F932F933F935D
S1131C604F935F936F937F938F939F93AF93BF93A0
S1131C70EF93FF938091CB04882334F480E880931E
S1131C80CA040E94E10488C08091CB0482FF20C072
S1131C9084E08093CA048091CC2286FF7DC0809129
S1131CA0CC0481FD79C094DC811176C08091B62288
S1131CB0813011F4C9DB70C0843009F06DC0EDECE3
S1131CC0F2E204E00593E5ECF2E204E0059364C07B
S1131CD08091CB0481FF5BC082E08093CA04809131
S1131CE0C42286FF59C08091CC0481FD55C070DCAC
S1131CF0811152C08091B622823041F484E08093F5
S1131D00B622E4ECF2E202E0069346C0833009F026
S1131D1043C0EDECF2E204E00593E5ECF2E204E00A
S1131D2005933AC080E18093CA0481E01ADF81E818
S1131D3018DF0E94BA041092C304E5ECF2E21082A8
S1131D4096E09093C42283E48083EDECF2E2108267
S1131D509093CC22808382E792E28093C82290936E
S1131D60C92239DB19C08091CB0486FF06C080E408
S1131D708093CA0480E010DB0FC08091CB0485FF00
S1131D800BC080E28093CA0481E006DB05C0809129
S1131D90CB0484FFE8CFC6CFFF91EF91BF91AF9101
S1131DA09F918F917F916F915F914F913F912F916F
S1131DB00F910F900FBE0F901F9018951F920F92C6
S1131DC00FB60F9211240F931F932F933F934F93AA
S1131DD05F936F937F938F939F93AF93BF93CF93AF
S1131DE0DF93EF93FF938091CC0481FD03C0F0DB7C
S1131DF08111B8C082E08093CC048091C5048195A0
S1131E00880FE4ECF2E2E81BF10920813181245CC3
S1131E103242369527953695279536952795822F04
S1131E20869520FF02C090E801C090E0890FE82F5A
S1131E30EF70F0E0EE0FFF1F282F332727FD3095BA
S1131E402227330F221F3327E20FF31FEE0FFF1F4A
S1131E50EE0FFF1FEE0FFF1FEC53FD4D908195FF1A
S1131E6081C000E20693811178C08091B62284304B
S1131E7019F4F8DAB0DA76C0C091C622D091C7223C
S1131E8080911123909112230091B2221091B322D8
S1131E9098012C0F3D1F8217930718F4EC01C01B07
S1131EA0D10B80910F2390911023AE0162E772E26F
S1131EB0800F911F8BD60C0F1D1F0093B22210931D
S1131EC0B322C034D10569F48091B4229091B52233
S1131ED0800F911F20910D2330910E2382179307B9
S1131EE088F00093112310931223E0911523F091AD
S1131EF01623309729F00995811102C097DA32C070
S1131F00A3DA30C080911123909112230817190786
S1131F10F9F4E0911523F0911623309711F486DA41
S1131F2021C00995811102C081DA1CC02091B4221C
S1131F303091B5228091B2229091B322820F931FE7
S1131F408093B4229093B5221092B2221092B322BD
S1131F50E4ECF2E202E0069305C0803811F48ADA78
S1131F6001C0A5DBFF91EF91DF91CF91BF91AF91BC
S1131F709F918F917F916F915F914F913F912F919D
S1131F801F910F910F900FBE0F901F901895CF9334
S1131F90DF93CDB7DEB72797CDBFDEBF88E0E0E69D
S1131FA0F6E08183809180208D83809181208E83CF
S1131FB0809182208F8380917C2090917D20A091BC
S1131FC07E20B0917F2089839A83AB83BC8360E1B8
S1131FD084E00E949E01BE016F5F7F4F80EA99E01A
S1131FE0EED883E890E28093192390931A23809388
S1131FF01723909318232796CDBFDEBFDF91CF918F
S11320000895682F80EA99E00C94C7070895CF9348
S1132010C82F8A3011F48DE0F4DF8C2FF2DF80E0DA
S113202090E0CF91089580EA99E00C94CF07089549
S11320301F93CF93DF93EC01F6DF182FBE01E7DF88
S1132040812F90E0DF91CF911F910895E0EAF9E0AC
S11320508181992787FD9095892F881F8827881F5C
S113206090E008950E94290115D08ED290DFE0E41B
S1132070F6E090E1918380E2818320E4218320E8EB
S11320802183E0E6F6E021E0218322E021839183AD
S113209082830895E0E0F6E088E0818380E1818333
S11320A080E2818380E4818308958130910531F059
S11320B08230910569F0892B79F405C088E0E0E06D
S11320C0F6E08583089588E0E0E0F6E086830895ED
S11320D088E0E0E0F6E0878308958130910531F0EF
S11320E08230910569F0892B79F405C080E1E0E044
S11320F0F6E08583089580E1E0E0F6E086830895C4
S113210080E1E0E0F6E0878308958130910531F0C5
S11321108230910569F0892B79F405C080E2E0E012
S1132120F6E08583089580E2E0E0F6E08683089592
S113213080E2E0E0F6E0878308958130910531F094
S11321408230910569F0892B79F405C080E4E0E0E0
S1132150F6E08583089580E4E0E0F6E08683089560
S113216080E4E0E0F6E087830895AF92BF92CF92D7
S1132170DF92EF92FF920F931F93CF93DF9300D0E0
S1132180CDB7DEB782E390E089839A8389819A810F
S1132190843691050CF0EBC181E090E086DFE981A3
S11321A0FA819F2F990F990BA12C0F2EFCE6BF2EBD
S11321B0F02D0F2EFCEDCF2EF02D6894DD24D1F8F8
S11321C0E12CF12C00E010E02E2F3F2F492F592F46
S11321D0692F792F892F9AD429513C4F4F4F5F4F44
S11321E06F4F7F4F8F4F9F4FB6D320E030E84BEBBC
S11321F055E40FD37BD3F22FE32F8F2F9E2FA42FE1
S1132200B52F0197A109B1090097A105B105C9F737
S113221081E090E062DFE981FA819F2F990F990BA9
S1132220A12C0F2EFCE6BF2EF02D0F2EFCEDCF2E91
S1132230F02D6894DD24D1F8E12CF12C00E010E0BD
S11322402E2F3F2F492F592F692F792F892F5ED495
S113225029513C4F4F4F5F4F6F4F7F4F8F4F9F4FD1
S11322607AD320E030E84BEB55E4D3D23FD3F22FBE
S1132270E32F8F2F9E2FA42FB52F0197A109B1090A
S11322800097A105B105C9F781E090E03EDFE9813F
S1132290FA819F2F990F990BA12C0F2EFCE6BF2ECC
S11322A0F02D0F2EFCEDCF2EF02D6894DD24D1F807
S11322B0E12CF12C00E010E02E2F3F2F492F592F55
S11322C0692F792F892F22D429513C4F4F4F5F4FCB
S11322D06F4F7F4F8F4F9F4F3ED320E030E84BEB43
S11322E055E497D203D3F22FE32F8F2F9E2FA42FE1
S11322F0B52F0197A109B1090097A105B105C9F747
S113230081E090E01ADFE981FA819F2F990F990B00
S1132310A12C0F2EFCE6BF2EF02D0F2EFCEDCF2EA0
S1132320F02D6894DD24D1F8E12CF12C00E010E0CC
S11323302E2F3F2F492F592F692F792F892FE6D31D
S113234029513C4F4F4F5F4F6F4F7F4F8F4F9F4FE0
S113235002D320E030E84BEB55E45BD2C7D2F22F36
S1132360E32F8F2F9E2FA42FB52F0197A109B10919
S11323700097A105B105C9F780E090E096DEE981F8
S1132380FA819F2F990F990BA12C0F2EFCE6BF2EDB
S1132390F02D0F2EFCEDCF2EF02D6894DD24D1F816
S11323A0E12CF12C00E010E02E2F3F2F492F592F64
S11323B0692F792F892FAAD329513C4F4F4F5F4F53
S11323C06F4F7F4F8F4F9F4FC6D220E030E84BEBCB
S11323D055E41FD28BD2F22FE32F8F2F9E2FA42FE1
S11323E0B52F0197A109B1090097A105B105C9F756
S11323F080E090E072DEE981FA819F2F990F990BBA
S1132400A12C0F2EFCE6BF2EF02D0F2EFCEDCF2EAF
S1132410F02D6894DD24D1F8E12CF12C00E010E0DB
S11324202E2F3F2F492F592F692F792F892F6ED3A4
S113243029513C4F4F4F5F4F6F4F7F4F8F4F9F4FEF
S11324408AD220E030E84BEB55E4E3D14FD2F22FAF
S1132450E32F8F2F9E2FA42FB52F0197A109B10928
S11324600097A105B105C9F780E090E04EDEE9814F
S1132470FA819F2F990F990BA12C0F2EFCE6BF2EEA
S1132480F02D0F2EFCEDCF2EF02D6894DD24D1F825
S1132490E12CF12C00E010E02E2F3F2F492F592F73
S11324A0692F792F892F32D329513C4F4F4F5F4FDA
S11324B06F4F7F4F8F4F9F4F4ED220E030E84BEB52
S11324C055E4A7D113D2F22FE32F8F2F9E2FA42FE1
S11324D0B52F0197A109B1090097A105B105C9F765
S11324E080E090E02ADEE981FA819F2F990F990B11
S11324F0A12C0F2EFCE6BF2EF02D0F2EFCEDCF2EBF
S1132500F02D6894DD24D1F8E12CF12C00E010E0EA
S11325102E2F3F2F492F592F692F792F892FF6D22C
S113252029513C4F4F4F5F4F6F4F7F4F8F4F9F4FFE
S113253012D220E030E84BEB55E46BD1D7D1F22F27
S1132540E32F8F2F9E2FA42FB52F0197A109B10937
S11325500097A105B105C9F789819A810F968983EE
S11325609A8389819A81843691050CF415CE0F9053
S11325700F90DF91CF911F910F91FF90EF90DF901B
S1132580CF90BF90AF90089588E0E0E4F6E08283B6
S113259008951F920F920FB60F9211242F933F9319
S11325A04F935F936F937F938F939F93AF93BF9357
S11325B0EF93FF93E0E0F4E0818180FDFDCFE0E064
S11325C0F4E01086118682E090E0B7DDFF91EF9190
S11325D0BF91AF919F918F917F916F915F914F9137
S11325E03F912F910F900FBE0F901F9018951F923F
S11325F00F920FB60F9211248F93EF93FF9380E104
S1132600E0E4F6E08783FF91EF918F910F900FBE86
S11326100F901F9018951F920F920FB60F921124CE
S11326202F933F934F935F936F937F938F939F93D6
S1132630AF93BF93EF93FF9380E1E0E6F6E08583E9
S113264082E090E062DD80E090E00196803426E054
S11326509207D9F780E1E0E6F6E08683FF91EF91F7
S1132660BF91AF919F918F917F916F915F914F91A6
S11326703F912F910F900FBE0F901F901895CF93FD
S1132680DF9300D01F92CDB7DEB7ECDC6EDDE0EA5D
S1132690F0E087E08283828180688283E0E4F6E070
S11326A081E0818788E0828783898260838B789444
S11326B0F894E0E6F6E083E0818780E2828785890A
S11326C08260858B7894F89464E080E00E949E0197
S11326D0E0E0F4E08FEF9FEF828793871086118606
S11326E080E090E8848795878CE0828381E0808312
S11326F078946E0182E0C80ED11CFE0131967F01F0
S113270001E910E2A12C6894BB24B2F80F2EF0E684
S11327106F2EF6E07F2EF02D222423940F2EF0E46A
S11327208F2EF6E09F2EF02D6894332434F86894AD
S1132730442447F86894552456F888DC892BE9F337
S1132740DF92CF92FF92EF921F930F9348D20F9094
S11327500F900F900F900F900F908981843471F136
S11327602CF48134F1F1833449F04FC08F3479F182
S11327708435D1F08D3409F048C03DC08A819B81F5
S11327800197D9F680E2F401858380E094E2A4EF16
S1132790B0E00197A109B1090097A105B105C9F7F6
S11327A080E2F4018683C9CF8A819B81019719F461
S11327B0F4013582C2CFF4013682BFCFF5018181A5
S11327C080FDFCCF8A819B8184879587B6CF8A81DF
S11327D09B81019719F4F3012582AFCFF30126827F
S11327E0ACCF8A819B81019719F4F4015582A5CF5E
S11327F0F4015682A2CF8A819B81019719F4F401D6
S113280045829BCFF401468298CF82E090E095DC2C
S113281094CF0CD005C1FDD040F0F4D030F021F4B9
S11328205F3F19F0D6C051112FC1D9C00AD198F316
S11328309923C9F35523B1F3951B550BBB27AA273D
S113284062177307840738F09F5F5F4F220F331FAF
S1132850441FAA1FA9F333D00E2E3AF0E0E830D07B
S113286091505040E695001CCAF729D0FE2F27D07E
S1132870660F771F881FBB1F261737074807AB074C
S1132880B0E809F0BB0B802DBF01FF2793585F4FC1
S11328902AF09E3F510568F09CC0F6C05F3FECF300
S11328A0983EDCF3869577956795B795F7959F5F86
S11328B0C9F7880F911D9695879597F90895E1E0DA
S11328C0660F771F881FBB1F621773078407BA0739
S11328D020F0621B730B840BBA0BEE1F88F7E09594
S11328E00895BEE304D008F490E80895BFE32227D6
S11328F03327A901AED058F19F5740F1B91738F1E9
S1132900BFE3B91B9927B8503AF4660F771F881FA5
S1132910991FB395D2F316C0B8504AF0232F342F21
S1132920452F562F672F782F8827B850BAF7B85FEE
S113293049F08695779567955795479537952795E7
S1132940BA95B9F70EF44ED088940895889460E04F
S113295070E0CB010895E894F92F96EBFF2381F002
S1132960121613061406440B9395F69587957795DE
S1132970679557954040FF23B9F71BC099270895E1
S1132980882351F49850D2F7872B762F652F542F34
S1132990432F322F20E0B1F3121613061406440B12
S11329A088233AF09A95440F551F661F771F881F96
S11329B0CAF755234AF4440F551F11F460FF04C0AD
S11329C06F5F7F4F8F4F9F4F880F9695879597F92D
S11329D0089597F99F6780E870E060E008959FEF9D
S11329E080EC0895909580957095609550954095EC
S11329F0309521953F4F4F4F5F4F6F4F7F4F8F4F14
S1132A009F4F089500240A941616170618060906FF
S1132A10089500240A941216130614060506089550
S1132A20092E0394000C11F4882352F0BB0F40F4D8
S1132A30BF2B11F460FF04C06F5F7F4F8F4F9F4F18
S1132A40089557FD9058440F551F59F05F3F71F09A
S1132A504795880F97FB991F61F09F3F79F0879501
S1132A600895121613061406551FF2CF4695F1DF8A
S1132A7008C0161617061806991FF1CF869571051A
S1132A80610508940895E894BB2766277727CB014E
S1132A9097F90895AA1BBB1B51E107C0AA1FBB1FCE
S1132AA0A617B70710F0A61BB70B881F991F5A95D6
S1132AB0A9F780959095BC01CD010895A1E21A2E45
S1132AC0AA1BBB1BFD010DC0AA1FBB1FEE1FFF1FCE
S1132AD0A217B307E407F50720F0A21BB30BE40B1E
S1132AE0F50B661F771F881F991F1A9469F7609565
S1132AF07095809590959B01AC01BD01CF0108951F
S1132B00EE0FFF1F0590F491E02D0994DF93CF930E
S1132B101F930F939A9DF02D219FF00D8B9DF00D27
S1132B208A9DE02DF10D039FF00D029FE00DF11D34
S1132B304E9DE00DF11D5E9DF00D4F9DF00D7F93B8
S1132B406F93BF92AF925F934F93D50130D08B01B7
S1132B50AC01D7012CD0EB01E80FF91FD6011FD02F
S1132B602F913F91D60123D0C60FD71FE81FF91F1D
S1132B70AF91BF9114D02F913F9119D0C60FD71F99
S1132B80E81FF91FD60113D0E60FF71F9801BE0105
S1132B90CF0111240F911F91CF91DF91089507D098
S1132BA0460F571FC81FD91F08F431960895A29FD6
S1132BB0B001B39FC001A39F700D811D1124911D0D
S1132BC0B29F700D811D1124911D0895FB01DC013C
S1132BD002C001900D9241505040D8F70895A0E0F2
S1132BE0B0E0E4EFF5E121C3FE0135966191719106
S1132BF0AF01809117239091182371D1E2E02EC385
S1132C0020FD09C0FC0123FD05C022FF02C073831F
S1132C10628351834083089544FD10C046FD10C073
S1132C20DB01FC01AA0FBB1FEE1FFF1F1094D1F79D
S1132C306A0F7B1F8E1F9F1F31E003C033E001C06A
S1132C4034E0660F771F881F991F3150D1F7620F48
S1132C50711D811D911D08950F931F93CF93DF93D1
S1132C608C01C80178D2EC0197FD06C061D2892B92
S1132C70C1F7B801CE01ADD2CE01DF91CF911F9142
S1132C800F9108958F929F92AF92CF92DF92EF921D
S1132C90FF920F931F93CF93DF93EC01A62E4A016B
S1132CA0022F59D2AC0155274B32510521F04D3238
S1132CB0510549F40068AA9411F480E060C0CE0183
S1132CC04AD297FDFACF102F1D7F302F3073F1F4C5
S1132CD08033E1F4FF24FA94FA0C09F43DC0CE01E8
S1132CE03AD297FD39C0382F3F7D383549F4126404
S1132CF0AA94AA9489F1CE012ED297FF07C02CC0C2
S1132D0006FF02C0126001C01261AF2CC12CD12C8D
S1132D10760120ED280F283078F014FF03C0BE019F
S1132D2058D217C02A3040F016FFF9CF2F7D3FEE5E
S1132D30320F3630A0F72750412FC701B6016CDFA0
S1132D406B017C011260AA9451F0CE0104D297FF6A
S1132D50E0CF11FD04C0B1CFC12CD12C760117FFF7
S1132D6008C0F094E094D094C094C11CD11CE11C20
S1132D70F11C212FB701A601C40142DF81E0DF91DC
S1132D80CF911F910F91FF90EF90DF90CF90AF9074
S1132D909F908F900895A1E2B0E0E0EDF6E13AC291
S1132DA05C017A018E010F5F1F4F680180E2D80138
S1132DB01D928A95E9F7F501738040E050E0812C7B
S1132DC0B0E0912C81E090E0F90173FCA59173FED1
S1132DD0A1918F017A2F9F01A11103C080E090E09F
S1132DE07BC0AE3519F44115510559F1E92DF0E0D8
S1132DF0E417F5073CF4AD3569F1AD3219F4BB23A2
S1132E0019F103C0B11101C08A2EE72FE695E695AA
S1132E10E69586010E0F111DF801A72FA7708C01EE
S1132E2002C0000F111FAA95E2F7D801B081BA2B96
S1132E30B083781559F0781510F47F5FE6CF7150A0
S1132E40E4CF9924939403C0B1E001C0B0E04F5F94
S1132E505F4FBACFBB2319F08E8180628E839110AD
S1132E6003C09924939415C0F601CE018196208164
S1132E7020952193E817F907D1F7F3CFE114F10472
S1132E8029F0D7018C93F70131967F016150F1F05D
S1132E90912CC50169A35FD169A197FD15C0282FA5
S1132EA0269526952695F601E20FF11D208130E046
S1132EB0AC014770552702C0359527954A95E2F72E
S1132EC020FDDCCFB50185D1911088CFE114F10448
S1132ED011F0D7011C92C801A196EDE0B4C14F9244
S1132EE05F927F928F929F92AF92BF92CF92DF9226
S1132EF0EF92FF920F931F93CF93DF931F92CDB75F
S1132F00DEB78C012B017A01FC0116821782A12CF9
S1132F10F801D380F201D3FC8591D3FE8191382F3F
S1132F202F01882309F4EEC090E0398301D139815F
S1132F30892B19F0C80190DEEBCF353241F4F20150
S1132F40D3FC3591D3FE31912F01353259F4C801A8
S1132F50398301D1398197FDD3C03817C9F2B8013B
S1132F6038D1D0C03A3241F4D3FC3591D3FE3191FB
S1132F702F01BB24B39401C0B12C712C20ED230F7D
S1132F802A3088F4FB2DF260BF2E672D70E080E0BC
S1132F9090E040E241DE762EF201D3FC3591D3FE7F
S1132FA031912F01EBCFB1FE03C0711003C0AAC051
S1132FB077247A94383619F03C3661F014C0F20163
S1132FC0D3FC3591D3FE31912F01383661F4FB2DBA
S1132FD0F860BF2E8B2D8460B82EF201D3FC35919E
S1132FE0D3FE31912F01332309F48CC0632F70E099
S1132FF08AE092E03983A4D03981892B09F482C014
S1133000B0FC07C0F701C080D180C70102967C01E3
S113301002C0C12CD12C3E3649F4F80146815781B7
S113302060E070E02B2DC601EBDD72CF333699F4EE
S1133030B1FC02C077247394C8018DD097FD60C0A1
S1133040C114D10429F0F6018083C60101966C01F4
S11330507A9491F751C03B3551F49201A601672D42
S1133060C80199DE2C01009709F046C040C0C80190
S11330703983F2DD398197FD43C03F3651F128F49D
S1133080343619F1393661F128C0333769F03537F0
S1133090E1F023C0C114D10429F0F6018082C601F5
S11330A001966C017A9459F0C80155D04C0197FDF2
S11330B006C03ED0892B71F3B801C4018AD0C11473
S11330C0D104D1F0F601108217C0FB2DF062BF2E9F
S11330D007C08B2D8061B82E03C09B2D9064B92E40
S11330E02B2DA601672DC801CDDD811105C0F80186
S11330F08381807329F406C0B0FC0ACFA39408CF5F
S1133100AA2019F08A2D90E002C08FEF9FEF0F9054
S1133110DF91CF911F910F91FF90EF90DF90CF90AF
S1133120BF90AF909F908F907F905F904F90089545
S1133130911168C0803219F089508550D0F70895F4
S1133140FC010590061621F00020D9F7C00108956E
S11331503197CF010895CF93DF93EC012B8120FFAA
S113316033C026FF0AC02F7B2B838E819F8101965B
S11331708E839F838A8190E029C022FF0FC0E8815B
S1133180F9818081992787FD9095009719F4206231
S11331902B831AC03196E883F9830EC0EA85FB8538
S11331A0099597FF09C02B81019611F480E101C0B4
S11331B080E2822B8B8308C02E813F812F5F3F4F9B
S11331C02E833F83992702C08FEF9FEFDF91CF912A
S11331D00895FB01238120FF12C026FD10C08F3FFC
S11331E03FEF930761F082832F7D20642383268140
S11331F037812150310926833783992708958FEF2A
S11332009FEF08959927882708952F923F924F9210
S11332105F926F927F928F929F92AF92BF92CF9262
S1133220DF92EF92FF920F931F93CF93DF93CDB76B
S1133230DEB7CA1BDB0BCDBFDEBF09942A883988F1
S113324048885F846E847D848C849B84AA84B9843A
S1133250C884DF80EE80FD800C811B81AA81B98146
S1133260CE0FD11DCDBFDEBFED010895F894FFCF81
S11332706E03E801F201F4010A03AA01E201F60176
S1133280F401000066201A20000022201E200A20DB
S1133290002009024300020100C064090400000187
S11332A00202010005240010010424020205240680
S11332B000010524010301070582034000100904ED
S11332C00100020A00000007058102400000070512
S11332D0020240000000120100020200004001004E
S11332E001000001000000010403090400C2010000
S11332F00300000000000300000000071018100085
S10B330000253163253364004C
S9030000FC
