S01400004A6F72645F4F63746F7075732E7372656335
S11300000AC1000025C100000C947E1721C1000024
S11300101FC100001DC100001BC1000019C1000068
S113002017C1000015C100002EC100000C94C217B6
S11300300FC100000DC100000C94F10A0C941A0BBE
S11300400C94430B0C946C0B0C94950B0C94BE0BFE
S11300500C94E70B0C94100C0C94390C0C94620C5B
S1130060F7C00000F5C00000F3C00000F1C00000BC
S1130070EFC00000EDC00000EBC00000E9C00000CC
S1130080E7C00000E5C00000E3C00000E1C00000DC
S1130090DFC00000DDC00000DBC00000D9C00000EC
S11300A0D7C00000D5C00000D3C00000D1C00000FC
S11300B0CFC00000CDC00000CBC000000C94250EC2
S11300C00C944E0E0C94770E0C94A00E0C94C90E46
S11300D00C94F20EBDC00000BBC00000B9C000000B
S11300E0B7C00000B5C00000B3C00000B1C000003C
S11300F0AFC00000ADC00000ABC00000A9C000004C
S11301000C946617A5C00000A3C00000A1C00000A5
S11301109FC000009DC000009BC0000099C000006B
S113012097C0000095C0000093C0000091C000007B
S11301308FC000000C948B0C0C94B40C0C94DD0C4C
S11301400C94060D0C942F0D0C94580D0C94810DE9
S11301500C94AA0D0C94D30D0C94FC0D79C00000E2
S11301600C94EE1775C0000073C0000071C000004D
S11301706FC000006DC000006BC0000069C00000CB
S113018067C0000065C0000063C0000061C00000DB
S11301905FC000005DC000005BC0000059C00000EB
S11301A057C0000055C0000053C0000051C00000FB
S11301B04FC000004DC000004BC0000049C000000B
S11301C047C0000045C0000043C0000041C000001B
S11301D03FC000003DC000003BC0000039C000002B
S11301E037C0000035C0000033C0000031C000003B
S11301F02FC000000C94BC150C947B1659124712A6
S11302004A124D125012531256126364696E6F7083
S1130210737578585B0011241FBECFEFCDBFDFE2AA
S1130220DEBF10E2A0E0B0E2E8EBF1E402C005902A
S11302300D92A03AB107D9F723E2A0EAB0E201C0D7
S11302401D92AB35B207E1F70E9432180C94DA2004
S1130250D7CE64E080E090E0BCD3E0E0F4E08FEF40
S11302609FEF82879387108611868FB7F894E2E414
S1130270F3E290819F5F90838FBFE0E0F4E081E040
S11302808283808308951F920F920FB60F921124D8
S11302908F939F93EF93FF93E7E3F3E28081918140
S11302A0019680839183FF91EF919F918F910F909D
S11302B00FBE0F901F901895CF93DF93CDB7DEB785
S11302C02997CDBFDEBF88E0E0E6F6E08183809128
S11302D00420909105208D839E8380910620909127
S11302E007208F8398878091082089878091002038
S11302F090910120A0910220B091032089839A83D8
S1130300AB83BC8360E184E090E063D3BE016F5FA4
S11303107F4F80EA99E00E94331089E090E2809355
S113032057239093582380935523909356232996CB
S1130330CDBFDEBFDF91CF910895682F80EA99E0A9
S11303400C941B0F0895CF93C82F8A3011F48DE0BD
S1130350F4DF8C2FF2DF80E090E0CF91089580EA03
S113036099E00C94230F08951F93CF93DF93EC012E
S1130370F6DF182FBE01E7DF812F90E0DF91CF91E8
S11303801F910895E0EAF9E08181992787FD90950E
S1130390892F881F8827881F90E00895E0E0F6E001
S11303A088E0818380E1818380E2818380E48183AA
S11303B008958130910531F08230910569F0892BDF
S11303C079F405C088E0E0E0F6E08583089588E0EC
S11303D0E0E0F6E08683089588E0E0E0F6E08783D5
S11303E008958130910531F08230910569F0892BAF
S11303F079F405C080E1E0E0F6E08583089580E1CA
S1130400E0E0F6E08683089580E1E0E0F6E08783AB
S113041008958130910531F08230910569F0892B7E
S113042079F405C080E2E0E0F6E08583089580E297
S1130430E0E0F6E08683089580E2E0E0F6E087837A
S113044008958130910531F08230910569F0892B4E
S113045079F405C080E4E0E0F6E08583089580E463
S1130460E0E0F6E08683089580E4E0E0F6E0878348
S11304700895AF92BF92CF92DF92EF92FF920F93C3
S11304801F93CF93DF9300D0CDB7DEB782E390E024
S113049089839A8389819A81843691050CF00BC2F1
S11304A081E090E086DFE981FA819F2F990F990B13
S11304B0A12C0F2EFCE6BF2EF02D0F2EFCEDCF2E1F
S11304C0F02D6894DD24D1F8E12CF12C00E010E04B
S11304D02E2F3F2F492F592F692F792F892F0E94B3
S11304E07E1929513C4F4F4F5F4F6F4F7F4F8F4FB6
S11304F09F4F0E94711A20E030E84BEB55E40E94B4
S1130500CF190E943C1AF22FE32F8F2F9E2FA42F76
S1130510B52F0197A109B1090097A105B105C9F744
S113052081E090E05EDFE981FA819F2F990F990BBA
S1130530A12C0F2EFCE6BF2EF02D0F2EFCEDCF2E9E
S1130540F02D6894DD24D1F8E12CF12C00E010E0CA
S11305502E2F3F2F492F592F692F792F892F0E9432
S11305607E1929513C4F4F4F5F4F6F4F7F4F8F4F35
S11305709F4F0E94711A20E030E84BEB55E40E9433
S1130580CF190E943C1AF22FE32F8F2F9E2FA42FF6
S1130590B52F0197A109B1090097A105B105C9F7C4
S11305A081E090E036DFE981FA819F2F990F990B62
S11305B0A12C0F2EFCE6BF2EF02D0F2EFCEDCF2E1E
S11305C0F02D6894DD24D1F8E12CF12C00E010E04A
S11305D02E2F3F2F492F592F692F792F892F0E94B2
S11305E07E1929513C4F4F4F5F4F6F4F7F4F8F4FB5
S11305F09F4F0E94711A20E030E84BEB55E40E94B3
S1130600CF190E943C1AF22FE32F8F2F9E2FA42F75
S1130610B52F0197A109B1090097A105B105C9F743
S113062081E090E00EDFE981FA819F2F990F990B09
S1130630A12C0F2EFCE6BF2EF02D0F2EFCEDCF2E9D
S1130640F02D6894DD24D1F8E12CF12C00E010E0C9
S11306502E2F3F2F492F592F692F792F892F0E9431
S11306607E1929513C4F4F4F5F4F6F4F7F4F8F4F34
S11306709F4F0E94711A20E030E84BEB55E40E9432
S1130680CF190E943C1AF22FE32F8F2F9E2FA42FF5
S1130690B52F0197A109B1090097A105B105C9F7C3
S11306A080E090E086DEE981FA819F2F990F990B13
S11306B0A12C0F2EFCE6BF2EF02D0F2EFCEDCF2E1D
S11306C0F02D6894DD24D1F8E12CF12C00E010E049
S11306D02E2F3F2F492F592F692F792F892F0E94B1
S11306E07E1929513C4F4F4F5F4F6F4F7F4F8F4FB4
S11306F09F4F0E94711A20E030E84BEB55E40E94B2
S1130700CF190E943C1AF22FE32F8F2F9E2FA42F74
S1130710B52F0197A109B1090097A105B105C9F742
S113072080E090E05EDEE981FA819F2F990F990BBA
S1130730A12C0F2EFCE6BF2EF02D0F2EFCEDCF2E9C
S1130740F02D6894DD24D1F8E12CF12C00E010E0C8
S11307502E2F3F2F492F592F692F792F892F0E9430
S11307607E1929513C4F4F4F5F4F6F4F7F4F8F4F33
S11307709F4F0E94711A20E030E84BEB55E40E9431
S1130780CF190E943C1AF22FE32F8F2F9E2FA42FF4
S1130790B52F0197A109B1090097A105B105C9F7C2
S11307A080E090E036DEE981FA819F2F990F990B62
S11307B0A12C0F2EFCE6BF2EF02D0F2EFCEDCF2E1C
S11307C0F02D6894DD24D1F8E12CF12C00E010E048
S11307D02E2F3F2F492F592F692F792F892F0E94B0
S11307E07E1929513C4F4F4F5F4F6F4F7F4F8F4FB3
S11307F09F4F0E94711A20E030E84BEB55E40E94B1
S1130800CF190E943C1AF22FE32F8F2F9E2FA42F73
S1130810B52F0197A109B1090097A105B105C9F741
S113082080E090E00EDEE981FA819F2F990F990B09
S1130830A12C0F2EFCE6BF2EF02D0F2EFCEDCF2E9B
S1130840F02D6894DD24D1F8E12CF12C00E010E0C7
S11308502E2F3F2F492F592F692F792F892F0E942F
S11308607E1929513C4F4F4F5F4F6F4F7F4F8F4F32
S11308709F4F0E94711A20E030E84BEB55E40E9430
S1130880CF190E943C1AF22FE32F8F2F9E2FA42FF3
S1130890B52F0197A109B1090097A105B105C9F7C1
S11308A089819A810F9689839A8389819A81843672
S11308B091050CF4F5CD0F900F90DF91CF911F911E
S11308C00F91FF90EF90DF90CF90BF90AF9008957D
S11308D00BD064DDF1DC01C00895E0E4F6E084E0CF
S11308E0828388E082830895CF93DF9300D000D081
S11308F0CDB7DEB78FEF8093700080937100809343
S113090072008093730080937400809375008093C9
S113091076006CE170E082E05AD68A836DE170E083
S113092082E055D6898389819A81019621F480E4F5
S113093093E289839A8389819A818B839C83E0E6FD
S1130940F0E082838C8183838FB7F894E0E5F0E054
S11309509081926090838FBF818181FFFDCF8FB79B
S1130960F894A0E5B0E016969C911697997F169698
S11309709C931697E0E6F0E090E895839BEB9683D2
S113098016969C911697946016969C93908191600C
S113099090838FBF61E080E490E013D68FB7F89422
S11309A0E0E5F0E090819E7F90838FBF8FB7F8944D
S11309B09081946090838FBF818182FFFDCF85E019
S11309C0E0E4F0E083832496CDBFDEBFDF91CF91D6
S11309D008952FB7F894FC01E059FF4F609580818A
S11309E0682360832FBF08951092B6211092C2210C
S11309F01092C32181EA8093B82180E28093B921C7
S1130A001092BA211092BB211092BC211092BD21E8
S1130A1082E090E08093BE219093BF211092C02188
S1130A201092C12180E092ECA1E0B0E08093C42157
S1130A309093C521A093C621B093C7211092C821D9
S1130A401092C92188E08093CA218091B6218F5FDA
S1130A508093B62181E008958091B62181508093DE
S1130A60B62108958091B52181508093B52180915C
S1130A70B5211092B421089580E0089580E008958E
S1130A80809145238823DCF480768032E9F58091D7
S1130A9046238132D9F580914B2390914C230797BB
S1130AA0B9F584EC91E280934D2390934E2387E033
S1130AB090E080934F239093502381E008958076B3
S1130AC0803241F580914623803221F0823221F533
S1130AD081E0089580914B2390914C230797F1F482
S1130AE080E995E0809351239093522384EC91E222
S1130AF080934D2390934E2387E090E080934F237F
S1130B009093502381E0089580E0089580E0089553
S1130B1080E0089580E0089580E0089580E00895DD
S1130B200895FF920F931F93CF93DF938091A32097
S1130B3081119CC00E94FE13882351F0C091A4200F
S1130B40D091A5200E940B14C817D90759F48EC060
S1130B50C091A420D091A5200E940614C817D907DB
S1130B6009F484C0DFB7F894C091A620EC2FF0E01C
S1130B70EE0FFF1FE955FF4D80819181892B09F507
S1130B808091A0209091A12001968093A020909321
S1130B90A1200E94FE13811107C08091A020909192
S1130BA0A1208436910558F00E94FE13882349F051
S1130BB08091A0209091A1208032934010F4DFBF57
S1130BC055C01092A0201092A1208091A2208111E2
S1130BD006C081E0C11180E08093A62004C081E0BA
S1130BE0C11180E0C82F81E08093A320DFBFD0E053
S1130BF0FE01EE0FFF1FE955FF4DFF24F3948081A2
S1130C0091818034910509F4F12CFF2091F00E9428
S1130C10FE13882339F00E940B148093A420909330
S1130C20A5200BC00E9406148093A4209093A520B5
S1130C3004C01092A4201092A520FE01EE0FFF1F05
S1130C40E955FF4D20813181AE0100245695479529
S1130C500794569547950794542F402D44555F4D5E
S1130C600CE316E06F2D81E80E94BD14DF91CF9153
S1130C701F910F91FF900895892BA9F42091A6202C
S1130C8081E090E0222311F080E090E0FC01EE0F7F
S1130C90FF1FE955FF4D108211821092A22010927D
S1130CA0A32080E03ECF089580E03BCF08954FB766
S1130CB0F89420912D2130912E21E0912F21F0E004
S1130CC0EE0FFF1FE05DFE4D80819181821B930B2F
S1130CD04FBF0895ECDF21E0892B09F420E0822F37
S1130CE008950F931F93CF93DF934FB7F8945091C8
S1130CF02F2180912C21811110C020912D21309120
S1130D002E21C52FD0E0FE01EE0FFF1FE05DFE4D4A
S1130D10808191812817390718F44FBF80E023C0E0
S1130D2010922D2110922E2181E0511180E08093A8
S1130D302F2181E080932C214FBF80E0CBDFAE01D7
S1130D400024569547950794569547950794542F34
S1130D50402D4C5C5E4D0AEE16E020E430E061E08C
S1130D6082E00E94BD14DF91CF911F910F910895ED
S1130D701092B5211092A3201092A2201092A620C6
S1130D801092A7201092A8201092A9201092AA20B5
S1130D901092A4201092A52080E0C3DE10922C2192
S1130DA010922F21109230211092312110922D2176
S1130DB010922E2180E095DF882359F09091B5217F
S1130DC09F5F9093B5219091B521913011F4909348
S1130DD0B42108950F931F93A42F892B49F5809173
S1130DE02F21E1E08111E0E061157105B1F4F0E03B
S1130DF00024F695E7950794F695E7950794FE2F5A
S1130E00E02DAF014C5C5E4D0AEE16E020E430E0CC
S1130E1061E08A2F0E94BD140BC0F0E0EE0FFF1FAB
S1130E20E05DFE4D6083718310922C2180E059DFD8
S1130E301F910F910895E091D021F091D12101905B
S1130E40F081E02D228133812E0F3F1FFC01408170
S1130E50E40FF11DE217F307A0F481818430A1F0BF
S1130E60861306C014C081818430A1F08617A9F0CE
S1130E708081E80FF11DE217F307A8F380E090E00A
S1130E80089580E090E0089580E090E008958E2F2A
S1130E909F2F089580E090E008958E2F9F2F08954E
S1130EA0809147238F770C94001408959091D22158
S1130EB0992381F1E091D021F091D1210190F08129
S1130EC0E02D9481891740F5E093CE21F093CF2152
S1130ED0228133812E0F3F1FE217F307F8F491812B
S1130EE0943061F49281981309C09381961306C0DB
S1130EF0E093CE21F093CF2181E008959081E90F12
S1130F00F11DE217F30758F3E093CE21F093CF21BC
S1130F1080E0089580E0089580E0089580E00895D9
S1130F20FF920F931F93CF93DF93C82F60E0BEDF30
S1130F30F82E882381F1A091D021B091D121EC2FFA
S1130F40F0E0EE0FFF1F12962D913C911397E20FE4
S1130F50F31F00811181D8011696ED91FC9117972A
S1130F600995682F8C2FA2DFF82E8823A1F0C09159
S1130F70CE21D091CF2165E0CE015DDFEC01009759
S1130F8021F08A810E947E15F6CFD8011296ED9148
S1130F90FC91139709958F2DDF91CF911F910F919C
S1130FA0FF9008951F93CF93DF93182F7FDF88233B
S1130FB041F1C091CE21D091CF2165E0CE013BDF3C
S1130FC0EC01009749F04C815D816B818A810E941C
S1130FD017148111F2CF15C0A091D021B091D12165
S1130FE0812F90E0880F991F1296ED91FC91139731
S1130FF0E80FF91F0190F081E02D0190F081E02DC0
S11310000995DF91CF911F910895CF938091D221BB
S11310108823C1F0E091D021F091D1210190F08199
S1131020E02D8481882371F0C0E08C2F79DFCF5FBD
S1131030E091D021F091D1210190F081E02D8481C3
S1131040C81798F31092D22181E090E08093D321C5
S11310509093D421CF910895CF938091D221882366
S113106041F1E091D021F091D121A081B181149678
S11310708C918823F1F0C0E08C2F90E0880F991FA9
S11310800280F381E02DE80FF91F0190F081E02D3B
S11310900084F185E02D309709F00995CF5FE09148
S11310A0D021F091D121A081B18114968C91C817DF
S11310B018F3CF910895EF92FF920F931F93CF935C
S11310C0DF9310924F2310925023109251231092C9
S11310D05223109253231092542320914523222308
S11310E00CF05DC280914B2390914C23009709F042
S11310F05BC251C22F7109F07CC030914623363057
S113110089F0383009F469C0311173C0029741F491
S113111062E070E083ED91E20E940E1401E0BEC132
S113112000E0BCC12091472330914823832F9927A5
S11311308230910581F08330910571F1019709F0B6
S113114044C080912B2090912C20DC016C9170E0A4
S11311500E940E1429C0E0912B20F0912C2081894B
S11311602817A8F5C9019927880F991F880F991F77
S1131170E0912D20F0912E20E80FF91F80819181BC
S1131180FC01628173810E940E14E0914D23F09161
S11311904E2382E0818308C021111BC064E070E00B
S11311A08EE890E20E940E1480914B2390914C2380
S11311B020914F23309150238217930760F480933A
S11311C04F239093502301E069C100E067C100E020
S11311D065C100E063C101E061C1019741F461E0D0
S11311E070E082ED91E20E940E1401E057C100E02C
S11311F055C1213009F040C0309146233A30E1F521
S11312000197A1F58091D221882391F1C0914923BE
S1131210D0914A23E090D021F090D121D701ED91D3
S1131220FC918481C81730F560E08C2F3FDE082FD5
S1131230882309F433C1CE019927880F991FD70158
S11312401296ED91FC911397E80FF91F0190F0812C
S1131250E02D0680F781E02D09958093CD2161E092
S113126070E08DEC91E20E940E1418C100E016C1EA
S113127000E014C100E012C1223009F011C1209134
S11312804623211106C1029789F4809149230E94C3
S1131290781490E08093CB219093CC2162E070E0AD
S11312A08BEC91E20E940E1401E0F8C000E0F6C05D
S11312B02F7109F091C080914623833009F4EBC06B
S11312C018F48130B1F088C0853019F0893061F1AB
S11312D083C080914B2390914C23892B41F480E56A
S11312E097E0809351239093522301E0D7C000E00C
S11312F0D5C080914B2390914C23892B89F4809104
S1131300472390914823019769F48091D3219091C8
S1131310D4218D7F8093D3219093D42101E0BEC04A
S113132000E0BCC000E0BAC080914B2390914C23F4
S1131330892B09F047C00E940314882309F444C090
S113134020914723309148233327E0912B20F091BB
S11313502C20818990E082179307C0F156DE80919A
S11313604723909148238093D221882389F1992798
S11313708150904C880F991F880F991FE0912D2060
S1131380F0912E20E80FF91FE093D021F093D121A2
S11313900190F081E02D84818823E1F0C0E060E0D9
S11313A08C2F00DE082F882309F478C0CF5FE091EA
S11313B0D021F091D1210190F081E02D8481C817D2
S11313C070F36CC000E06AC000E068C000E066C072
S11313D001E064C001E062C0213009F58091462338
S11313E08B30E9F480914B2390914C23892B99F411
S11313F08091D221882389F0C0914923D091472339
S11314008C2F8EDD082F882309F448C06D2F8C2F74
S1131410C9DD082F43C000E041C000E03FC02230D6
S113142009F03EC080914623813019F08330B9F031
S113143034C080914B2390914C23892B61F480918B
S1131440472390914823892B41F4809149230E949A
S11314509314082F23C000E021C000E01FC0809136
S11314604B2390914C23892B81F4809147239091B5
S11314704823892B61F4C9E4D3E288810E9444158E
S113148088810E949B15082F09C000E007C000E076
S113149005C000E003C000E001C000E0011189C004
S11314A0809145238F718130C1F58091D2218823A9
S11314B0A1F1C0914923D0914A230091D0211091E8
S11314C0D121D801ED91FC918481C81730F560E0F9
S11314D08C2FECDC882309F1CE019927880F991F02
S11314E0D8011296ED91FC911397E80FF91F008132
S11314F01181D8011696ED91FC9117970995682FE3
S11315008C2FD4DC882349F0D8011496ED91FC91FA
S113151015970995082F81114CC0809145238F712F
S11315208230D9F58091D221882389F1E091D021AC
S1131530F091D121A081B18114968C91882349F135
S113154010E0212F30E0220F331F0280F381E02DC1
S1131550E20FF31FC081D181EE81FF810995682FCD
S1131560812FA4DC082F882321F1EC81FD810995CA
S1131570082F81111EC01F5FE091D021F091D1216D
S1131580A081B18114968C911817D8F212C000E092
S113159010C000E00EC000E00CC000E00AC0822FC2
S11315A0807609F07DCF84CE322F307609F078CF63
S11315B0A1CD802FDF91CF911F910F91FF90EF90DC
S11315C008951BBEFC0128ED24BF6083089540915B
S11315D0CA01E62FF72F8093CA0184914093CA0170
S11315E008951F920F920FB60F9211242F933F93D9
S11315F04F935F936F937F938F939F93AF93BF9317
S1131600EF93FF93E0910722F0910822309709F0BD
S11316100995FF91EF91BF91AF919F918F917F9128
S11316206F915F914F913F912F910F900FBE0F904B
S11316301F9018951F920F920FB60F9211242F939B
S11316403F934F935F936F937F938F939F93AF9346
S1131650BF93EF93FF93E0910522F0910622309718
S113166009F00995FF91EF91BF91AF919F918F91EF
S11316707F916F915F914F913F912F910F900FBE8A
S11316800F901F9018951F920F920FB60F9211246E
S11316902F933F934F935F936F937F938F939F9376
S11316A0AF93BF93EF93FF93E0910322F091042251
S11316B0309709F00995FF91EF91BF91AF919F91F8
S11316C08F917F916F915F914F913F912F910F90E7
S11316D00FBE0F901F9018951F920F920FB60F9286
S11316E011242F933F934F935F936F937F938F9323
S11316F09F93AF93BF93EF93FF93E0910122F091F7
S11317000222309709F00995FF91EF91BF91AF91B3
S11317109F918F917F916F915F914F913F912F9105
S11317200F900FBE0F901F9018951F920F920FB637
S11317300F9211242F933F934F935F936F937F9353
S11317408F939F93AF93BF93EF93FF93E091FF2108
S1131750F0910022309709F00995FF91EF91BF9124
S1131760AF919F918F917F916F915F914F913F9135
S11317702F910F900FBE0F901F9018951F920F92EC
S11317800FB60F9211242F933F934F935F936F9350
S11317907F938F939F93AF93BF93EF93FF93E091C6
S11317A0FD21F091FE21309709F00995FF91EF9109
S11317B0BF91AF919F918F917F916F915F914F9165
S11317C03F912F910F900FBE0F901F9018951F926D
S11317D00F920FB60F9211242F933F934F935F9361
S11317E06F937F938F939F93AF93BF93EF93FF93E5
S11317F0E091FB21F091FC21309709F00995FF91CC
S1131800EF91BF91AF919F918F917F916F915F9174
S11318104F913F912F910F900FBE0F901F901895ED
S11318201F920F920FB60F9211242F933F934F9351
S11318305F936F937F938F939F93AF93BF93EF9334
S1131840FF93E091F921F091FA21309709F009957D
S1131850FF91EF91BF91AF919F918F917F916F9184
S11318605F914F913F912F910F900FBE0F901F905A
S113187018951F920F920FB60F9211242F933F9336
S11318804F935F936F937F938F939F93AF93BF9384
S1131890EF93FF93E091F721F091F821309709F04D
S11318A00995FF91EF91BF91AF919F918F917F9196
S11318B06F915F914F913F912F910F900FBE0F90B9
S11318C01F9018951F920F920FB60F9211242F9309
S11318D03F934F935F936F937F938F939F93AF93B4
S11318E0BF93EF93FF93E091F521F091F6213097A8
S11318F009F00995FF91EF91BF91AF919F918F915D
S11319007F916F915F914F913F912F910F900FBEF7
S11319100F901F9018951F920F920FB60F921124DB
S11319202F933F934F935F936F937F938F939F93E3
S1131930AF93BF93EF93FF93E091F321F091F421E0
S1131940309709F00995FF91EF91BF91AF919F9165
S11319508F917F916F915F914F913F912F910F9054
S11319600FBE0F901F9018951F920F920FB60F92F3
S113197011242F933F934F935F936F937F938F9390
S11319809F93AF93BF93EF93FF93E091F121F09175
S1131990F221309709F00995FF91EF91BF91AF9132
S11319A09F918F917F916F915F914F913F912F9173
S11319B00F900FBE0F901F9018951F920F920FB6A5
S11319C00F9211242F933F934F935F936F937F93C1
S11319D08F939F93AF93BF93EF93FF93E091EF2186
S11319E0F091F021309709F00995FF91EF91BF91A3
S11319F0AF919F918F917F916F915F914F913F91A3
S1131A002F910F900FBE0F901F9018951F920F9259
S1131A100FB60F9211242F933F934F935F936F93BD
S1131A207F938F939F93AF93BF93EF93FF93E09133
S1131A30ED21F091EE21309709F00995FF91EF9196
S1131A40BF91AF919F918F917F916F915F914F91D2
S1131A503F912F910F900FBE0F901F9018951F92DA
S1131A600F920FB60F9211242F933F934F935F93CE
S1131A706F937F938F939F93AF93BF93EF93FF9352
S1131A80E091EB21F091EC21309709F00995FF9159
S1131A90EF91BF91AF919F918F917F916F915F91E2
S1131AA04F913F912F910F900FBE0F901F9018955B
S1131AB01F920F920FB60F9211242F933F934F93BF
S1131AC05F936F937F938F939F93AF93BF93EF93A2
S1131AD0FF93E091E921F091EA21309709F009950B
S1131AE0FF91EF91BF91AF919F918F917F916F91F2
S1131AF05F914F913F912F910F900FBE0F901F90C8
S1131B0018951F920F920FB60F9211242F933F93A3
S1131B104F935F936F937F938F939F93AF93BF93F1
S1131B20EF93FF93E091E721F091E821309709F0DA
S1131B300995FF91EF91BF91AF919F918F917F9103
S1131B406F915F914F913F912F910F900FBE0F9026
S1131B501F9018951F920F920FB60F9211242F9376
S1131B603F934F935F936F937F938F939F93AF9321
S1131B70BF93EF93FF93E091E521F091E621309735
S1131B8009F00995FF91EF91BF91AF919F918F91CA
S1131B907F916F915F914F913F912F910F900FBE65
S1131BA00F901F9018951F920F920FB60F92112449
S1131BB02F933F934F935F936F937F938F939F9351
S1131BC0AF93BF93EF93FF93E091E321F091E4216E
S1131BD0309709F00995FF91EF91BF91AF919F91D3
S1131BE08F917F916F915F914F913F912F910F90C2
S1131BF00FBE0F901F9018951F920F920FB60F9261
S1131C0011242F933F934F935F936F937F938F93FD
S1131C109F93AF93BF93EF93FF93E091E121F091F2
S1131C20E221309709F00995FF91EF91BF91AF91AF
S1131C309F918F917F916F915F914F913F912F91E0
S1131C400F900FBE0F901F9018951F920F920FB612
S1131C500F9211242F933F934F935F936F937F932E
S1131C608F939F93AF93BF93EF93FF93E091DF2103
S1131C70F091E021309709F00995FF91EF91BF9120
S1131C80AF919F918F917F916F915F914F913F9110
S1131C902F910F900FBE0F901F9018951F920F92C7
S1131CA00FB60F9211242F933F934F935F936F932B
S1131CB07F938F939F93AF93BF93EF93FF93E091A1
S1131CC0DD21F091DE21309709F00995FF91EF9124
S1131CD0BF91AF919F918F917F916F915F914F9140
S1131CE03F912F910F900FBE0F901F9018951F9248
S1131CF00F920FB60F9211242F933F934F935F933C
S1131D006F937F938F939F93AF93BF93EF93FF93BF
S1131D10E091DB21F091DC21309709F00995FF91E6
S1131D20EF91BF91AF919F918F917F916F915F914F
S1131D304F913F912F910F900FBE0F901F901895C8
S1131D401F920F920FB60F9211242F933F934F932C
S1131D505F936F937F938F939F93AF93BF93EF930F
S1131D60FF93E091D921F091DA21309709F0099598
S1131D70FF91EF91BF91AF919F918F917F916F915F
S1131D805F914F913F912F910F900FBE0F901F9035
S1131D9018951F920F920FB60F9211242F933F9311
S1131DA04F935F936F937F938F939F93AF93BF935F
S1131DB0EF93FF93E091D721F091D821309709F068
S1131DC00995FF91EF91BF91AF919F918F917F9171
S1131DD06F915F914F913F912F910F900FBE0F9094
S1131DE01F9018951F920F920FB60F9211242F93E4
S1131DF03F934F935F936F937F938F939F93AF938F
S1131E00BF93EF93FF93E091D521F091D6213097C2
S1131E1009F00995FF91EF91BF91AF919F918F9137
S1131E207F916F915F914F913F912F910F900FBED2
S1131E300F901F901895FC01818185FFFDCF608371
S1131E4080E090E00895FC0181818823ECF7808193
S1131E5008954F925F926F927F928F929F92AF926A
S1131E60BF92CF92DF92EF92FF920F931F93CF9383
S1131E70DF93EC014A015B0128013901D901C80152
S1131E80689412F8B695A795979587951694D1F707
S1131E90B901A801032E36E17695679557954795C4
S1131EA03A95D1F7302D2C8122FD08C0B695A7951F
S1131EB097958795769567955795479588159905CC
S1131EC0AA05BB0508F4A6C084169506A606B7069F
S1131ED008F4A2C08C8182FD04C0880C991CAA1C41
S1131EE0BB1CC301B201A50194010E9447192F3FF5
S1131EF031054105510508F491C0C12CD12C76015E
S1131F00CA9419EF05C02C153D054E055F0568F010
S1131F10CC0CDD1CEE1CFF1C1D3F14F46894C0F8AF
S1131F201F5F173081F7212F50C0212F11230CF090
S1131F304CC0D501C401880F991FAA1FBB1F880F6D
S1131F40991FAA1FBB1F880F991FAA1FBB1F481ADE
S1131F50590A6A0A7B0A1E3FF4F46DEF7FEF611B96
S1131F60710917FD739504C0440C551C661C771C3D
S1131F706A95D2F7D501C401B695A795979587952B
S1131F80BC01CD01640D751D861D971DA50194012D
S1131F900E94471936C023E0210FD501C40104C0B3
S1131FA0880F991FAA1FBB1F2A95D2F79C01AD0168
S1131FB0B695A79597958795BC01CD01640D751DC0
S1131FC0861D971D0E9447191CC02D5FD501C401B1
S1131FD004C0880F991FAA1FBB1F2A95D2F79C0122
S1131FE0AD01B695A79597958795BC01CD01640D74
S1131FF0751D861D971D0E944719215031094109FD
S11320005109832F8F701295107F182B1F832E83F5
S113201081E018C080E016C080E014C0D501C4017E
S1132020880F991FAA1FBB1F880F991FAA1FBB1FC8
S1132030880F991FAA1FBB1F481A590A6A0A7B0AEC
S113204019EF8BCFDF91CF911F910F91FF90EF90FC
S1132050DF90CF90BF90AF909F908F907F906F90C4
S11320605F904F9008950F931F93CF93DF93EC01EC
S11320708B01009709F4EEC0803C910531F460E1D6
S113208080E090E00E94E904E5C0C11584E0D8072F
S113209031F464E080E090E00E94E904DBC0C038E1
S11320A0E1E0DE0731F462E080E090E00E94E904C0
S11320B0D1C0C115F1E0DF0731F461E080E090E0C8
S11320C00E94E904C7C0C03883E0D80731F461E056
S11320D081E090E00E94E904BDC0C115E2E0DE07A2
S11320E031F462E081E090E00E94E904B3C0C032C0
S11320F0F3E0DF0731F464E082E090E00E94E90459
S1132100A9C0C11588E0D80731F461E083E090E00C
S11321100E94E9049FC0C115E9E0DE0731F461E0E3
S113212084E090E00E94E90495C0C115FAE0DF075D
S113213031F461E085E090E00E94E9048BC0C03492
S113214088E0D80731F462E083E090E00E94E9047B
S113215081C0C034E9E0DE0731F462E084E090E05D
S11321600E94E90477C0C039F8E0DF0731F464E085
S113217083E090E00E94E9046DC0C03989E0D8078B
S113218031F464E084E090E00E94E90463C0C03963
S1132190EAE0DE0731F464E085E090E00E94E904BF
S11321A059C0C03CF8E0DF0731F468E083E090E018
S11321B00E94E9044FC0C03C89E0D80731F468E0CC
S11321C084E090E00E94E90445C0C03AE8E0DE07FC
S11321D031F460E183E090E00E94E9043BC0C03A3E
S11321E0F9E0DF0731F460E184E090E00E94E90463
S11321F031C0C03A8AE0D80731F460E185E090E06C
S11322000E94E90427C0C03BE8E0DE0731F460E245
S113221083E090E00E94E9041DC0C03BF9E0DF07C1
S113222031F460E284E090E00E94E90413C0C03815
S113223084E0D80731F460E483E090E00E94E9048C
S113224009C0C03AE4E0DE0729F460E485E090E0E8
S11322500E94E9048D818F738D83F80196818481B6
S1132260892B9085992311F098E001C090E0892B87
S11322708D83F801408151816281738100E01CE605
S11322802CED32E0CE01E5DD9C8198609C839C813D
S113229090619C83DF91CF911F910F9108958111DB
S11322A018C090913423992389F09FB7F894E0E4FF
S11322B0F3E22081215020839FBF08C09FB7F89488
S11322C0E0E4F3E220812F5F20839FBF80933423D7
S11322D0089590913423992389F3F8CF0F93E8EC70
S11322E0F4E080818F7D808380818F7D8083E8E02E
S11322F0F3E202E0059310920A2310920B2300E20A
S1132300069300E40693E0E0F3E200E2069300E4BF
S11323100693109251231092522310925323109239
S1132320542310924F23109250231092F2221092B1
S1132330F3220F9108950F9385E090E08093F222A9
S11323409093F322E9E0F3E204E00593E1E0F3E2A1
S113235004E005930F9108950F9383E090E0809338
S1132360F2229093F32210920A2310920B23E8E0B6
S1132370F3E202E006930F910895E0915123F09166
S11323805223309709F0099508950F93CF93DF9363
S11323908091F2229091F322039719F4EEDF9EDFED
S11323A063C08091EE229091EF22C0914F23D0918F
S11323B05023C81BD90B89F52091F0223091F122CA
S11323C0820F931F8093F0229093F12220914B234C
S11323D030914C238217930721F08091092288239E
S11323E059F084E090E08093F2229093F322E0E0AD
S11323F0F3E202E0069338C0E0915323F0915423B2
S1132400309799F00995882381F01092EE2210926A
S1132410EF22C0914F23D0915023C034D10528F02E
S113242010920922C0E4D0E003C081E08093092225
S1132430C0930A23D0930B238091EE229091EF2234
S113244020914D2330914E23280F391F20930C23C4
S113245030930D23C80FD91FC093EE22D093EF22DF
S1132460E8E0F3E202E00693DF91CF910F91089543
S1132470FC018181877090E0FC013197E730F10520
S113248018F4E250FF4F25C788E090E0089580E2F9
S113249090E0089580E490E0089580E890E0089545
S11324A080E091E0089580E092E008958FEF93E05A
S11324B0089580E190E00895282F2F7030E0220FD6
S11324C0331F992787FD90958827990F881F99278F
S11324D0820F931F02979C01220F331F220F331F79
S11324E0220F331F820F931F86579D4D08950F931C
S11324F0CF938091CC0480FF6BC081E08093CC04A7
S1132500E0E0F3E200E80693E8E0F3E200E8069393
S11325108093CA04E0E0F3E200E106938091F222A2
S11325209091F322009729F00397029708F425DF8E
S1132530D5DE8091022390910323089709F04AC0C5
S113254088E0EEEAF2E2A5E4B3E201900D928A9506
S1132550E1F7E8ECF4E0808180628083808180622E
S113256080830E945B08C82F811103C0E4DEC1E0B0
S113257032C080914523882384F41092F022109273
S1132580F1221092EE221092EF2222E030E020930A
S1132590F2223093F322F9DE1EC020914B233091B6
S11325A04C23232B11F4D8DE16C01092F022109283
S11325B0F1221092EE221092EF2221E030E02093DB
S11325C0F2223093F322E0E0F3E202E0069303C048
S11325D0C0E001C0C1E08C2FCF910F910895BF924C
S11325E0CF92DF92EF92FF920F931F93CF93DF93DB
S11325F0B82E62DFEC011B2D111F1127111F8B2D2B
S11326008F70E82EF12CEE0CFF1CE10EF11CC701BB
S1132610880F991F880F991F880F991F9C012050BC
S11326203D4D7901C90124DF6C01112309F459C01E
S1132630D70116962D913C9117978D819E81280F75
S1132640391F2D833E838B819C8128173907B9F16B
S1132650FC01E21BF30B9F012115F4E03F0738F066
S11326602FEF33E0C901B601FED5281B390B888151
S113267081FF09C0C901B601F6D541E0892B09F0F3
S113268040E0942F01C090E0888190FB81F9888319
S1132690D70116961D921C92179712962D933C9370
S11326A0139729813A818D819E81820F931F1496FD
S11326B08D939C931597F70102E0069395C088814A
S11326C081FF83C08D7F8883D70116961D921C924B
S11326D0179712961D921C921397F70102E0069326
S11326E083C0D70112960D911C911397888182FFA4
S11326F013C0E981FA812D813E818B819C81B601D1
S1132700B2D5B0E4BB9EB001112466537E4DAC013A
S1132710CF01820F931F84D72D813E81200F311F5B
S11327202D833E83EB81FC81E217F30710F4ED83E4
S1132730FE83D70116968D919C9117978017910768
S113274009F043C08D819E81E817F90709F43DC063
S1132750E81BF90BE115B4E0FB0740F0EFEFF3E001
S1132760CF01B60180D5E81BF90B05C0CF01B60136
S11327707AD5E81BF90BD70112961D921C92139778
S1132780EC15FD0578F4888184608883B0E4BB9EF1
S1132790C001112486539E4DF70184839583C6821C
S11327A0D7820FC029813A818D819E81820F931F28
S11327B0D70114968D939C9315971696ED93FC93DD
S11327C01797F70102E006930FC0888180FF0CC0C1
S11327D08E7F8883EF81F885309731F06D817E811B
S11327E04B2D80E090E00995DF91CF911F910F91DF
S11327F0FF90EF90DF90CF90BF90089580E0089510
S11328008093C30408958091C30408958091302374
S113281090913123089580E090E0089580934D23B2
S113282090934E2360934F23709350230895E82F81
S1132830EF70F0E0EE0FFF1F992787FD9095882732
S1132840990F881F9927E80FF91FEE0FFF1FEE0F4E
S1132850FF1FEE0FFF1FE050FD4D8181807C09F0CA
S113286043C06370613029F010F480E403C080E851
S113287001C080EC40385105E1F050F4403251057C
S1132880A1F04034510599F04031510561F419C06B
S1132890411592E0590789F04F3F93E0590779F0C9
S11328A04115514041F020E00DC022E00BC023E06F
S11328B009C024E007C025E005C026E003C027E0E6
S11328C001C021E0118296E09083822B8183818173
S11328D0807C803C21F481818770873039F081814C
S11328E08062818381E0089580E0089581E0089505
S11328F0E82FEF70F0E0EE0FFF1F992787FD90950A
S11329008827990F881F9927E80FF91FEE0FFF1FDB
S1132910EE0FFF1FEE0FFF1FE050FD4D818182FB84
S1132920882780F90895E82FEF70F0E0EE0FFF1F7D
S1132930282F332727FD30952227330F221F3327D3
S1132940E20FF31FEE0FFF1FEE0FFF1FEE0FFF1F2F
S1132950E050FD4D918192FF0EC091819B7F918348
S1132960ABDDFC01808180FF06C08E7F8083078001
S1132970F085E02D099581E008957F928F929F92D2
S1132980AF92BF92CF92DF92EF92FF920F931F9379
S1132990CF93DF93982E862E5A0169018DDD7C0139
S11329A0792C771C7724771CC92DCF70D0E0CC0FFD
S11329B0DD1FC70DD11DCC0FDD1FCC0FDD1FCC0FCC
S11329C0DD1FC050DD4D8981807C09F44BC08981B5
S11329D0807C803C19F0898182FD46C08FB7F894D1
S11329E0F701908190FF03C08FBF712C3EC0F701A7
S11329F09081916090838FBFF701A182B282C382DC
S1132A00D4821582168207831087811006C091E054
S1132A10C114D10419F090E001C091E0F701808164
S1132A2090FB81F98B7F8083772019F01E821F82AF
S1132A3014C08981807C803C61F4CE0119DDBC0125
S1132A40C60111D4892B29F0F70180818E7F808300
S1132A500CC01A821B821E821F82892DC0DD77243E
S1132A60739403C0712C01C0712C872DDF91CF9119
S1132A701F910F91FF90EF90DF90CF90BF90AF9098
S1132A809F908F907F900895FF920F931F93CF9301
S1132A90DF93182FF82EFF1CFF24FF1CC82FCF70C4
S1132AA0D0E0CC0FDD1FCF0DD11DCC0FDD1FCC0F1F
S1132AB0DD1FCC0FDD1FC050DD4DFEDCDC01FE014F
S1132AC002E005938C9180FF13C08E7F8C93179640
S1132AD0ED91FC911897309759F0FF2019F06E8111
S1132AE07F8102C06A817B81412F81E090E009955A
S1132AF0DF91CF911F910F91FF900895CF93C82F2D
S1132B00C3DFEC2FEF70F0E0EE0FFF1F8C2F99273F
S1132B1087FD90958827990F881F9927E80FF91F3B
S1132B20EE0FFF1FEE0FFF1FEE0FFF1FE050FD4DD6
S1132B301182CF9108950F93E82FEF70F0E0EE0F1C
S1132B40FF1F282F332727FD30952227330F221FFD
S1132B503327E20FF31FEE0FFF1FEE0FFF1FEE0FE1
S1132B60FF1FE050FD4D91819460918301E0069335
S1132B708BDF81E00F9108951F920F920FB60F9291
S1132B8011240F932F933F934F935F936F937F93EE
S1132B908F939F93AF93BF93EF93FF938091CB0455
S1132BA0882334F480E88093CA040E942C0891C0DE
S1132BB08091CB0482FF23C084E08093CA04809177
S1132BC0082386FF86C08091CC0481FD82C08FDCFF
S1132BD081117FC08091F2229091F322813091057E
S1132BE011F4BADB76C0049709F073C0E9E0F3E2AC
S1132BF004E00593E1E0F3E204E005936AC0809108
S1132C00CB0481FF61C082E08093CA0480910023D9
S1132C1086FF5FC08091CC0481FD5BC068DC8111BC
S1132C2058C08091F2229091F3228230910559F498
S1132C3084E090E08093F2229093F322E0E0F3E2C8
S1132C4002E0069346C0039709F043C0E9E0F3E2CB
S1132C5004E00593E1E0F3E204E005933AC080E187
S1132C608093CA0481E010DF81E80EDF0E9405082A
S1132C701092C304E1E0F3E2108296E09093002303
S1132C8083E48083E9E0F3E2108290930823808355
S1132C908EEA92E280930423909305231FDB19C0EC
S1132CA08091CB0486FF06C080E48093CA0480E050
S1132CB0F6DA0FC08091CB0485FF0BC080E28093CD
S1132CC0CA0481E0ECDA05C08091CB0484FFE8CF2C
S1132CD0C6CFFF91EF91BF91AF919F918F917F915B
S1132CE06F915F914F913F912F910F910F900FBE74
S1132CF00F901F9018951F920F920FB60F921124E8
S1132D000F931F932F933F934F935F936F937F93EF
S1132D108F939F93AF93BF93CF93DF93EF93FF93DF
S1132D208091CC0481FD03C0E2DB8111BAC082E052
S1132D308093CC048091C5048195880FE0E0F3E290
S1132D40E81BF109208131812050334236952795C3
S1132D503695279536952795822F869520FF02C0B4
S1132D6090E801C090E0890FE82FEF70F0E0EE0FDB
S1132D70FF1F282F332727FD30952227330F221FCB
S1132D803327E20FF31FEE0FFF1FEE0FFF1FEE0FAF
S1132D90FF1FE050FD4D908195FF83C000E2069334
S1132DA081117AC08091F2229091F322049719F450
S1132DB0E4DA94DA76C0C0910223D091032380919F
S1132DC04F23909150230091EE221091EF2298010D
S1132DD02C0F3D1F8217930718F4EC01C01BD10B75
S1132DE080914D2390914E23AE016EEA72E2800FE2
S1132DF0911F16D40C0F1D1F0093EE221093EF2287
S1132E00C034D10569F48091F0229091F122800FB1
S1132E10911F20914B2330914C238217930788F004
S1132E2000934F2310935023E0915323F0915423A4
S1132E30309729F00995811102C07DDA32C08CDA0D
S1132E4030C080914F239091502308171907F9F44B
S1132E50E0915323F0915423309711F46CDA21C09C
S1132E600995811102C067DA1CC02091F0223091CB
S1132E70F1228091EE229091EF22820F931F809392
S1132E80F0229093F1221092EE221092EF22E0E0D1
S1132E90F3E202E0069305C0803811F476DA01C04B
S1132EA09EDBFF91EF91DF91CF91BF91AF919F9105
S1132EB08F917F916F915F914F913F912F911F91CE
S1132EC00F910F900FBE0F901F9018951F920F92A5
S1132ED00FB60F9211248F93EF93FF93E0E0F4E089
S1132EE01086118680E1E0E0F6E08783FF91EF91A0
S1132EF08F910F900FBE0F901F9018951F920F92F5
S1132F000FB60F9211242F933F938F939F93AF93F8
S1132F10BF93EF93FF93E0E4F6E090E1968380E2C1
S1132F20868320E4268330E83683A0E6B6E031E0E9
S1132F3016963C93169732E016963C93169716967F
S1132F409C93169716968C93A0E0B6E038E01696FC
S1132F503C93169716969C93169716968C931697F1
S1132F6016962C93848581608487FF91EF91BF919D
S1132F70AF919F918F913F912F910F900FBE0F9022
S1132F801F9018951F920F920FB60F9211242F9332
S1132F908F939F93EF93FF9380E1E0E6F6E08583C0
S1132FA088E0E0E0F6E0878380E090E001968034FA
S1132FB02FE19207D9F780E1E0E6F6E08683E0E0CE
S1132FC0F4E0838182608383FF91EF919F918F91DD
S1132FD02F910F900FBE0F901F9018951F920F9274
S1132FE00FB60F9211242F933F934F935F936F93D8
S1132FF07F938F939F93AF93BF93EF93FF9380EA55
S113300099E00E94230F823371F018F4813331F078
S113301018C0833369F0843381F013C088E0E0E0A2
S1133020F6E087830EC080E1E0E0F6E0878309C024
S113303080E2E0E0F6E0878304C080E4E0E0F6E0CC
S11330408783FF91EF91BF91AF919F918F917F9172
S11330506F915F914F913F912F910F900FBE0F9001
S11330601F901895CF93DF9300D0CDB7DEB700E45F
S113307016E090E1F801918380E2818320E42183CA
S113308020E82183E0E6F6E021E0218322E02183A9
S1133090918382830E9468040E943902E0EAF0E08E
S11330A087E0828382818068828383E0F80181875C
S11330B088E0828783898260838B7894F894E0E641
S11330C0F6E083E0818780E2828785898160858B51
S11330D078940E94290102E910E2CE0101966C0164
S11330E00F2EF8E9EF2EF0E2FF2EF02D0F2EF5E370
S11330F08F2EF3E29F2EF02D0F2EFCE96F2EF0E2BF
S11331007F2EF02D212C6894332432F82E0192E086
S1133110490E511C0F2EF0E4AF2EF6E0BF2EF02D19
S11331201F930F9386D20E94C2010F900F90892B98
S1133130B9F3DF92CF92FF92EF928CD20F900F905F
S11331400F900F908981843409F442C01CF48334B5
S113315039F0E6CF8F3409F44CC08435E9F0E0CF80
S1133160DF92CF92FF92EF9275D20F900F900F9053
S11331700F908981813341F481E090E00E94D9016C
S113318080E1F5018583CCCF80E090E00E94D901F5
S113319080E1F5018683C4CFDF92CF92FF92EF9254
S11331A059D20F900F900F900F908981813341F481
S11331B081E090E00E94F10180E2F5018583B0CFC7
S11331C080E090E00E94F10180E2F5018683A8CFBF
S11331D09F928F927F926F923DD2809135239091EE
S11331E03623F101848795870F900F900F900F90ED
S11331F097CFDF92CF92FF92EF922CD2DF92CF92B1
S1133200FF92EF9227D25F924F92FF92EF9222D2D7
S1133210CDBFDEBF8981813399F48A81813341F442
S113322081E090E00E94090280E4F501858378CF73
S113323080E090E00E94090280E4F501868370CF6B
S11332408A81813341F481E090E00E94210280E888
S1133250F501858365CF80E090E00E94210280E83B
S1133260F50186835DCFAA1BBB1B51E107C0AA1FD2
S1133270BB1FA617B70710F0A61BB70B881F991F13
S11332805A95A9F780959095BC01CD010895A1E2C6
S11332901A2EAA1BBB1BFD010DC0AA1FBB1FEE1FCC
S11332A0FF1FA217B307E407F50720F0A21BB30B17
S11332B0E40BF50B661F771F881F991F1A9469F793
S11332C060957095809590959B01AC01BD01CF01EF
S11332D00895EE0FFF1F0590F491E02D0994A29F2D
S11332E0B001B39FC001A39F700D811D1124911DD6
S11332F0B29F700D811D1124911D0895DF93CF930A
S11333001F930F939A9DF02D219FF00D8B9DF00D2F
S11333108A9DE02DF10D039FF00D029FE00DF11D3C
S11333204E9DE00DF11D5E9DF00D4F9DF00D7F93C0
S11333306F93BF92AF925F934F93D501D0DF8B0110
S1133340AC01D701CCDFEB01E80FF91FD6011FD088
S11333502F913F91D601C3DFC60FD71FE81FF91F76
S1133360AF91BF9114D02F913F91B9DFC60FD71FF2
S1133370E81FF91FD601B3DFE60FF71F9801BE015E
S1133380CF0111240F911F91CF91DF910895A7DFF1
S1133390460F571FC81FD91F08F4319608950CD043
S11333A005C1FDD040F0F4D030F021F45F3F19F0B6
S11333B0D6C051112FC1D9C00AD198F39923C9F3AA
S11333C05523B1F3951B550BBB27AA276217730727
S11333D0840738F09F5F5F4F220F331F441FAA1FDB
S11333E0A9F333D00E2E3AF0E0E830D0915050409B
S11333F0E695001CCAF729D0FE2F27D0660F771F49
S1133400881FBB1F261737074807AB07B0E809F02A
S1133410BB0B802DBF01FF2793585F4F2AF09E3FBF
S1133420510568F09CC0F6C05F3FECF3983EDCF3B6
S1133430869577956795B795F7959F5FC9F7880F38
S1133440911D9695879597F90895E1E0660F771F8A
S1133450881FBB1F621773078407BA0720F0621B1B
S1133460730B840BBA0BEE1F88F7E0950895BEE347
S113347004D008F490E80895BFE322273327A90174
S1133480AED058F19F5740F1B91738F1BFE3B91BDB
S11334909927B8503AF4660F771F881F991FB39580
S11334A0D2F316C0B8504AF0232F342F452F562F8D
S11334B0672F782F8827B850BAF7B85F49F08695F8
S11334C0779567955795479537952795BA95B9F7A1
S11334D00EF44ED088940895889460E070E0CB0197
S11334E00895E894F92F96EBFF2381F01216130642
S11334F01406440B9395F69587957795679557959C
S11335004040FF23B9F71BC099270895882351F43D
S11335109850D2F7872B762F652F542F432F322FB5
S113352020E0B1F3121613061406440B88233AF074
S11335309A95440F551F661F771F881FCAF7552396
S11335404AF4440F551F11F460FF04C06F5F7F4FAE
S11335508F4F9F4F880F9695879597F9089597F900
S11335609F6780E870E060E008959FEF80EC089525
S113357090958095709560955095409530952195DE
S11335803F4F4F4F5F4F6F4F7F4F8F4F9F4F089568
S113359000240A941616170618060906089500242E
S11335A00A9412161306140605060895092E0394A8
S11335B0000C11F4882352F0BB0F40F4BF2B11F41C
S11335C060FF04C06F5F7F4F8F4F9F4F089557FD7B
S11335D09058440F551F59F05F3F71F04795880F7D
S11335E097FB991F61F09F3F79F087950895121614
S11335F013061406551FF2CF4695F1DF08C01616C0
S113360017061806991FF1CF869571056105089470
S11336100895E894BB2766277727CB0197F9089587
S1133620FB01DC0102C001900D9241505040D8F7DB
S11336300895A0E0B0E0EEE1FBE19BC5FE01359604
S113364061917191AF01809157239091582313D0C8
S1133650E2E0A8C5A0E0B0E0EFE2FBE18AC5FE012C
S1133660359661917191AF018091552390915623C4
S113367034D3E2E097C5ACE0B0E0E0E4FBE169C537
S11336807C016B018A01FC0116821782838181FF10
S1133690B0C1CE0101964C01F7019381F60193FD6F
S11336A0859193FF81916F01882309F49EC185322E
S11336B039F493FD859193FF81916F01853221F453
S11336C0B70190E09AD4E8CF512C312C20E020327D
S11336D0A0F48B3269F030F4803259F0833269F40B
S11336E020612CC08D3239F0803339F4216026C03A
S11336F02260246023C0286021C027FD27C030ED4C
S1133700380F3A3078F426FF06C0FAE05F9E300D99
S11337101124532E13C08AE0389E300D1124332E09
S113372020620CC08E3221F426FD5FC1206406C0E5
S11337308C3611F4206802C0883641F4F60193FDFA
S1133740859193FF81916F018111C1CF982F9F7D46
S11337509554933028F40C5F1F4FFFE3F9830DC099
S1133760833631F0833771F0833509F057C021C0B7
S1133770F801808189830E5F1F4F44244394512CA8
S1133780540114C03801F2E06F0E711CF801A080DE
S1133790B18026FF03C0652D70E002C06FEF7FEF9C
S11337A0C5012C87E1D32C0183012C852F77222E90
S11337B016C03801F2E06F0E711CF801A080B180D0
S11337C026FF03C0652D70E002C06FEF7FEFC501D7
S11337D02C87BFD32C012C852068222E830123FC47
S11337E019C0832D90E048165906A0F4B70180E271
S11337F090E003D43A94F5CFF50127FC859127FE98
S113380081915F01B70190E0F8D331103A94F1E06F
S11338104F1A51084114510479F7DEC0843611F06F
S1133820893631F5F80127FF07C0608171818281F3
S113383093810C5F1F4F08C060817181882777FDD9
S11338408095982F0E5F1F4F2F76B22E97FF09C0D9
S113385090958095709561957F4F8F4F9F4F20680D
S1133860B22E2AE030E0A40113D4A82EA81843C035
S1133870853729F42F7EB22E2AE030E025C0F22FBE
S1133880F97FBF2E8F36C1F018F4883579F0ADC0BA
S1133890803719F0883721F0A8C02F2F2061B22E6D
S11338A0B4FE0DC08B2D8460B82E09C024FF0AC05D
S11338B09F2F9660B92E06C028E030E005C020E1B5
S11338C030E002C020E132E0F801B7FE07C06081B9
S11338D07181828193810C5F1F4F06C06081718169
S11338E080E090E00E5F1F4FA401D2D3A82EA81849
S11338F0FB2DFF77BF2EB6FE0BC02B2D2E7FA514FC
S113390050F4B4FE0AC0B2FC08C02B2D2E7E05C0B4
S11339107A2C2B2D03C07A2C01C0752C24FF0DC0EA
S1133920FE01EA0DF11D8081803311F4297E09C066
S113393022FF06C07394739404C0822F867809F022
S1133940739423FD12C020FF06C05A2C731418F47C
S1133950530C5718732C731460F4B70180E290E091
S11339602C874BD373942C85F6CF731410F437182B
S113397001C0312C24FF11C0B70180E390E02C87F3
S11339803CD32C8522FF16C021FF03C088E590E0BC
S113399002C088E790E0B7010CC0822F867851F00E
S11339A021FD02C080E201C08BE227FD8DE2B70158
S11339B090E023D3A51430F4B70180E390E01DD345
S11339C05A94F8CFAA94F401EA0DF11D8081B7014D
S11339D090E013D3A110F6CF332009F45DCEB701E4
S11339E080E290E00AD33A94F7CFF7018681978179
S11339F002C08FEF9FEF2C96E2E1C4C320FD09C003
S1133A00FC0123FD05C022FF02C07383628351833E
S1133A104083089544FD10C046FD10C0DB01FC0145
S1133A20AA0FBB1FEE1FFF1F1094D1F76A0F7B1F55
S1133A308E1F9F1F31E003C033E001C034E0660FE6
S1133A40771F881F991F3150D1F7620F711D811D97
S1133A50911D08950F931F93CF93DF938C01C80199
S1133A608ED2EC0197FD06C061D2892BC1F7B80153
S1133A70CE01F5D2CE01DF91CF911F910F91089520
S1133A808F929F92AF92CF92DF92EF92FF920F9319
S1133A901F93CF93DF93EC01A62E4A01022F6FD21E
S1133AA0AC0155274B32510521F04D32510549F4F3
S1133AB00068AA9411F480E060C0CE0160D297FD42
S1133AC0FACF102F1D7F302F3073F1F48033E1F4DF
S1133AD0FF24FA94FA0C09F43DC0CE0150D297FDAC
S1133AE039C0382F3F7D383549F41264AA94AA941A
S1133AF089F1CE0144D297FF07C02CC006FF02C053
S1133B00126001C01261AF2CC12CD12C760120EDC2
S1133B10280F283078F014FF03C0BE01A0D217C0CC
S1133B202A3040F016FFF9CF2F7D3FEE320F3630AA
S1133B30A0F72750412FC701B6016CDF6B017C0150
S1133B401260AA9451F0CE011AD297FFE0CF11FD72
S1133B5004C0B1CFC12CD12C760117FF08C0F0945A
S1133B60E094D094C094C11CD11CE11CF11C212F01
S1133B70B701A601C40142DF81E0DF91CF911F911B
S1133B800F91FF90EF90DF90CF90AF909F908F9028
S1133B900895A1E2B0E0EEECFDE1E0C25C017A013F
S1133BA08E010F5F1F4F680180E2D8011D928A9534
S1133BB0E9F7F501738040E050E0812CB0E0912CEE
S1133BC081E090E0F90173FCA59173FEA1918F014E
S1133BD07A2F9F01A11103C080E090E07BC0AE3535
S1133BE019F44115510559F1E92DF0E0E417F507F1
S1133BF03CF4AD3569F1AD3219F4BB2319F103C0BE
S1133C00B11101C08A2EE72FE695E695E695860167
S1133C100E0F111DF801A72FA7708C0102C0000F11
S1133C20111FAA95E2F7D801B081BA2BB083781599
S1133C3059F0781510F47F5FE6CF7150E4CF9924E2
S1133C40939403C0B1E001C0B0E04F5F5F4FBACFBF
S1133C50BB2319F08E8180628E83911003C0992456
S1133C60939415C0F601CE0181962081209521936D
S1133C70E817F907D1F7F3CFE114F10429F0D701DC
S1133C808C93F70131967F016150F1F0912CC501BD
S1133C9069A375D169A197FD15C0282F269526958E
S1133CA02695F601E20FF11D208130E0AC0147704A
S1133CB0552702C0359527954A95E2F720FDDCCFBC
S1133CC0B501CDD1911088CFE114F10411F0D701E1
S1133CD01C92C801A196EDE05AC24F925F927F9266
S1133CE08F929F92AF92BF92CF92DF92EF92FF9208
S1133CF00F931F93CF93DF931F92CDB7DEB78C0141
S1133D002B017A01FC0116821782A12CF801D380C1
S1133D10F201D3FC8591D3FE8191382F2F018823A2
S1133D2009F4EEC090E0398301D13981892B19F06F
S1133D30C80190DEEBCF353241F4F201D3FC35916A
S1133D40D3FE31912F01353259F4C801398317D18B
S1133D50398197FDD3C03817C9F2B80180D1D0C0DA
S1133D603A3241F4D3FC3591D3FE31912F01BB2477
S1133D70B39401C0B12C712C20ED230F2A3088F4A8
S1133D80FB2DF260BF2E672D70E080E090E040E2F2
S1133D9041DE762EF201D3FC3591D3FE31912F0111
S1133DA0EBCFB1FE03C0711003C0AAC077247A948C
S1133DB0383619F03C3661F014C0F201D3FC359169
S1133DC0D3FE31912F01383661F4FB2DF860BF2EFC
S1133DD08B2D8460B82EF201D3FC3591D3FE319142
S1133DE02F01332309F48CC0632F70E08AE092E042
S1133DF03983A4D03981892B09F482C0B0FC07C06F
S1133E00F701C080D180C70102967C0102C0C12C99
S1133E10D12C3E3649F4F8014681578160E070E0C8
S1133E202B2DC601EBDD72CF333699F4B1FC02C001
S1133E3077247394C801A3D097FD60C0C114D10442
S1133E4029F0F6018083C60101966C017A9491F7FA
S1133E5051C03B3551F49201A601672DC80199DE8A
S1133E602C01009709F046C040C0C8013983F2DD37
S1133E70398197FD43C03F3651F128F4343619F1A6
S1133E80393661F128C0333769F03537E1F023C0A2
S1133E90C114D10429F0F6018082C60101966C0197
S1133EA07A9459F0C8016BD04C0197FD06C03ED0FE
S1133EB0892B71F3B801C401D2D0C114D104D1F05B
S1133EC0F601108217C0FB2DF062BF2E07C08B2DA8
S1133ED08061B82E03C09B2D9064B92E2B2DA601B2
S1133EE0672DC801CDDD811105C0F8018381807380
S1133EF029F406C0B0FC0ACFA39408CFAA2019F075
S1133F008A2D90E002C08FEF9FEF0F90DF91CF9149
S1133F101F910F91FF90EF90DF90CF90BF90AF90E3
S1133F209F908F907F905F904F90089591110EC154
S1133F30803219F089508550D0F70895FC0105901E
S1133F40061621F00020D9F7C00108953197CF015A
S1133F500895FC010590615070400110D8F78095D8
S1133F6090958E0F9F1F0895FC0161507040019041
S1133F700110D8F7809590958E0F9F1F0895CF93C9
S1133F80DF93EC012B8120FF33C026FF0AC02F7B77
S1133F902B838E819F8101968E839F838A8190E0FB
S1133FA029C022FF0FC0E881F9818081992787FD0C
S1133FB09095009719F420622B831AC03196E883F8
S1133FC0F9830EC0EA85FB85099597FF09C02B810B
S1133FD0019611F480E101C080E2822B8B8308C03A
S1133FE02E813F812F5F3F4F2E833F83992702C04D
S1133FF08FEF9FEFDF91CF9108950F931F93CF938E
S1134000DF93182F092FEB018B8181FD03C08FEF04
S11340109FEF20C082FF10C04E815F812C813D81C3
S1134020421753077CF4E881F9819F012F5F3F4FCA
S113403028833983108306C0E885F985812F099583
S1134040892B29F72E813F812F5F3F4F2E833F839A
S1134050812F902FDF91CF911F910F910895FB0134
S1134060238120FF12C026FD10C08F3F3FEF93072E
S113407061F082832F7D2064238326813781215040
S1134080310926833783992708958FEF9FEF089589
S1134090FA01AA27283051F1203181F1E8946F9375
S11340A06E7F6E5F7F4F8F4F9F4FAF4FB1E03ED01B
S11340B0B4E03CD0670F781F891F9A1FA11D680FB9
S11340C0791F8A1F911DA11D6A0F711D811D911DEC
S11340D0A11D20D009F468943F912AE0269F112461
S11340E03019305D3193DEF6CF010895462F4770C5
S11340F0405D4193B3E00FD0C9F7F6CF462F4F7020
S1134100405D4A3318F0495D31FD4052419302D07D
S1134110A9F7EACFB4E0A695979587957795679523
S1134120BA95C9F700976105710508959B01AC0123
S11341300A2E06945795479537952795BA95C9F74A
S1134140620F731F841F951FA01D08959927882748
S113415008952F923F924F925F926F927F928F9227
S11341609F92AF92BF92CF92DF92EF92FF920F9302
S11341701F93CF93DF93CDB7DEB7CA1BDB0BCDBF45
S1134180DEBF09942A88398848885F846E847D84D8
S11341908C849B84AA84B984C884DF80EE80FD80EB
S11341A00C811B81AA81B981CE0FD11DCDBFDEBF89
S10B41B0ED010895F894FFCF1E
S11341B800C201000300000000000000030000002A
S11341C800A301B4010000B80632053C053E0554BD
S11341D806F4042C0540053E0500007C202F2038F9
S11341E8203320212017200009024300020100C0C7
S11341F83209040000010202010005240010010430
S1134208240202052406000105240103010705828E
S11342180340001009040100020A00000007058198
S113422802400000070502024000000012010002DB
S11342380200004001000100000100000001040325
S1134248090468656C6C6F002531630025690000FA
S9030000FC
