S01900005465737449525F446F6D6F63746F7075732E7372656344
S113000004C100001FC100000C949B121BC100001E
S113001019C1000017C1000015C1000013C1000080
S113002011C100000FC100000DC100000C94D112D9
S113003009C1000007C1000005C1000003C10000A0
S113004001C10000FFC00000FDC00000FBC00000B3
S1130050F9C00000F7C00000F5C00000F3C00000C4
S1130060F1C00000EFC00000EDC00000EBC00000D4
S1130070E9C00000E7C00000E5C00000E3C00000E4
S1130080E1C00000DFC00000DDC00000DBC00000F4
S1130090D9C00000D7C00000D5C00000D3C0000004
S11300A0D1C00000CFC00000CDC00000CBC0000014
S11300B0C9C00000C7C00000C5C00000C3C0000024
S11300C0C1C00000BFC00000BDC00000BBC0000034
S11300D0B9C00000B7C00000B5C00000B3C0000044
S11300E0B1C00000AFC00000ADC00000ABC0000054
S11300F0A9C00000A7C00000A5C00000A3C0000064
S1130100A1C000009FC000009DC000009BC0000073
S113011099C0000097C0000095C0000093C0000083
S113012091C000008FC000008DC000008BC0000093
S113013089C0000087C0000085C0000083C00000A3
S113014081C000007FC000007DC000007BC00000B3
S113015079C0000077C0000075C0000073C00000C3
S113016071C000006FC000006DC000006BC00000D3
S113017069C0000067C0000065C0000063C00000E3
S113018061C000005FC000005DC000005BC00000F3
S113019059C0000057C0000055C0000053C0000003
S11301A051C000004FC000004DC000004BC0000013
S11301B049C0000047C0000045C0000043C0000023
S11301C041C000003FC000003DC000003BC0000033
S11301D039C0000037C0000035C0000033C0000043
S11301E031C000002FC000002DC000002BC0000053
S11301F029C000000C94770D0C942D0E190A070ADF
S11302000A0A0D0A100A130A160A11241FBECFEF98
S1130210CDBFDFE2DEBF10E2A0E0B0E2EAE6FAE240
S113022002C005900D92A239B107D9F723E2A4E9DF
S1130230B0E201C01D92A331B207E1F70E941C1382
S11302400C943315DDCE1092AA211092B62110928F
S1130250B72181EA8093AC2180E28093AD21109292
S1130260AE211092AF211092B0211092B12182E000
S113027090E08093B2219093B3211092B421109214
S1130280B52180E092ECA1E0B0E08093B821909396
S1130290B921A093BA21B093BB211092BC21109232
S11302A0BD2188E08093BE218091AA218F5F809335
S11302B0AA2181E008958091AA2181508093AA21E6
S11302C008958091A92181508093A9218091A92129
S11302D01092A821089580E0089580E00895809107
S11302E0F7228823DCF480768032E9F58091F822C5
S11302F08132D9F58091FD229091FE220797B9F5BC
S113030088EB91E28093FF229093002387E090E0B2
S1130310809301239093022381E0089580768032B4
S113032041F58091F822803221F0823221F581E07A
S113033008958091FD229091FE220797F1F48FEBAE
S113034091E0809303239093042388EB91E28093BC
S1130350FF229093002387E090E080930123909301
S1130360022381E0089580E0089580E0089580E00C
S1130370089580E0089580E0089580E00895089548
S1130380FF920F931F93CF93DF9380919720811156
S11303909CC00E94BA0B882351F0C0919820D09140
S11303A099200E94C70BC817D90759F48EC0C09171
S11303B09820D09199200E94C20BC817D90709F43C
S11303C084C0DFB7F894C0919A20EC2FF0E0EE0FD0
S11303D0FF1FE556FF4D80819181892B09F580919E
S11303E09420909195200196809394209093952049
S11303F00E94BA0B811107C080919420909195209E
S11304008436910558F00E94BA0B882349F08091F4
S11304109420909195208032934010F4DFBF55C012
S1130420109294201092952080919620811106C0FC
S113043081E0C11180E080939A2004C081E0C11161
S113044080E0C82F81E080939720DFBFD0E0FE01D9
S1130450EE0FFF1FE556FF4DFF24F3948081918139
S11304608034910509F4F12CFF2091F00E94BA0B1D
S1130470882339F00E94C70B809398209093992089
S11304800BC00E94C20B809398209093992004C0C3
S11304901092982010929920FE01EE0FFF1FE5564E
S11304A0FF4D20813181AE01002456954795079474
S11304B0569547950794542F402D40565F4D0BE6B3
S11304C012E06F2D81E80E94790CDF91CF911F918A
S11304D00F91FF900895811115C020919A2081E019
S11304E090E0222311F080E090E0FC01EE0FFF1F6A
S11304F0E556FF4D1082118210929620109297209B
S113050080E03ECF089580E03BCF08954FB7F89444
S11305102091212130912221E0912321F0E0EE0F5E
S1130520FF1FEC5DFE4D80819181821B930B4FBFB9
S11305300895ECDF21E0892B09F420E0822F08954F
S11305400F931F93CF93DF934FB7F89450912321C8
S113055080912021811110C02091212130912221EC
S1130560C52FD0E0FE01EE0FFF1FEC5DFE4D808134
S113057091812817390718F44FBF80E023C01092E7
S113058021211092222181E0511180E080932321C6
S113059081E0809320214FBF80E0CBDFAE010024B7
S11305A0569547950794569547950794542F402D93
S11305B0485D5E4D09E113E020E430E061E082E053
S11305C00E94790CDF91CF911F910F9108951092A1
S11305D0A921109297201092962010929A2010929E
S11305E09B2010929C2010929D2010929E2010928D
S11305F098201092992080E0C3DE1092202110925E
S1130600232110922421109225211092212110924D
S1130610222180E095DF882359F09091A9219F5FE2
S11306209093A9219091A921913011F49093A8213C
S113063008950F931F93942F811129C08091232132
S1130640E1E08111E0E061157105B1F4F0E000240E
S1130650F695E7950794F695E7950794FE2FE02D18
S1130660AF01485D5E4D09E113E020E430E061E054
S1130670892F0E94790C0BC0F0E0EE0FFF1FEC5D98
S1130680FE4D608371831092202180E059DF1F9119
S11306900F910895E091C421F091C5210190F0815A
S11306A0E02D228133812E0F3F1FFC014081E40F96
S11306B0F11DE217F307A0F481818430A1F08613C1
S11306C006C014C081818430A1F08617A9F080810E
S11306D0E80FF11DE217F307A8F380E090E0089516
S11306E080E090E0089580E090E008958E2F9F2FA1
S11306F0089580E090E008958E2F9F2F08958091B3
S1130700F9228F770C94BC0B08959091C6219923FC
S113071081F1E091C421F091C5210190F081E02D97
S11307209481891740F5E093C221F093C32122817B
S113073033812E0F3F1FE217F307F8F491819430B1
S113074061F49281981309C09381961306C0E093D3
S1130750C221F093C32181E008959081E90FF11D36
S1130760E217F30758F3E093C221F093C32180E02A
S1130770089580E0089580E0089580E00895FF9250
S11307800F931F93CF93DF93C82F60E0BEDFF82E43
S1130790882381F1A091C421B091C521EC2FF0E010
S11307A0EE0FFF1F12962D913C911397E20FF31F4A
S11307B000811181D8011696ED91FC911797099546
S11307C0682F8C2FA2DFF82E8823A1F0C091C221BC
S11307D0D091C32165E0CE015DDFEC01009721F0EB
S11307E08A810E94390DF6CFD8011296ED91FC91C1
S11307F0139709958F2DDF91CF911F910F91FF9042
S113080008951F93CF93DF93182F7FDF882339F147
S1130810C091C221D091C32165E0CE013BDFEC0140
S1130820009741F04C815D816B818A81BCD7811135
S1130830F3CF15C0A091C421B091C521812F90E0C0
S1130840880F991F1296ED91FC911397E80FF91FE9
S11308500190F081E02D0190F081E02D0995DF9168
S1130860CF911F910895CF938091C6218823C1F021
S1130870E091C421F091C5210190F081E02D8481A3
S1130880882371F0C0E08C2F7ADFCF5FE091C42120
S1130890F091C5210190F081E02D8481C81798F36F
S11308A01092C62181E090E08093C7219093C821E3
S11308B0CF910895CF938091C621882341F1E0918F
S11308C0C421F091C521A081B18114968C91882313
S11308D0F1F0C0E08C2F90E0880F991F0280F38123
S11308E0E02DE80FF91F0190F081E02D0084F185DF
S11308F0E02D309709F00995CF5FE091C421F09184
S1130900C521A081B18114968C91C81718F3CF9199
S11309100895EF92FF920F931F93CF93DF9310925A
S113092001231092022310920323109204231092A5
S11309300523109206232091F72222230CF065C28E
S11309408091FD229091FE22009709F063C259C262
S11309502F7109F08BC03091F822363081F0383095
S113096009F479C0311182C0029739F462E070E071
S113097087EC91E20FD701E0C7C100E0C5C1209127
S1130980F9223091FA22832F99278230910599F028
S11309901CF4019739F055C083309105D1F10F97BC
S11309A059F14FC08091182090911920DC016C916D
S11309B070E0F0D635C0E0911820F09119208189BB
S11309C0281708F040C0C9019927880F991F880F7C
S11309D0991FE0911A20F0911B20E80FF91F8081E4
S11309E09181FC0162817381D5D6E091FF22F0915F
S11309F0002382E0818314C080911C2090911D20EB
S1130A00009719F1DC0112966D917C911397C2D66F
S1130A1007C021111CC064E070E084E190E2BAD602
S1130A208091FD229091FE22209101233091022396
S1130A308217930770F4809301239093022301E0BB
S1130A4063C100E061C100E05FC100E05DC100E09E
S1130A505BC101E059C1019739F461E070E086ECB3
S1130A6091E298D601E050C100E04EC1213009F076
S1130A703FC03091F8223A30D9F5019799F5809129
S1130A80C621882389F1C091FB22D091FC22E090F9
S1130A90C421F090C521D701ED91FC918481C81740
S1130AA028F560E08C2F31DE082F882309F42CC14F
S1130AB0CE019927880F991FD7011296ED91FC91C9
S1130AC01397E80FF91F0190F081E02D0680F7815C
S1130AD0E02D09958093C12161E070E081EC91E201
S1130AE059D612C100E010C100E00EC100E00CC1F3
S1130AF0223009F00BC12091F822211100C1029784
S1130B0079F48091FB22B0D690E08093BF2190933A
S1130B10C02162E070E08FEB91E23CD601E0F4C0CA
S1130B2000E0F2C02F7109F090C08091F822833068
S1130B3009F4E7C018F48130B1F087C0853019F0AA
S1130B40893061F182C08091FD229091FE22892B2F
S1130B5041F48FE793E0809303239093042301E00F
S1130B60D3C000E0D1C08091FD229091FE22892B58
S1130B7089F48091F9229091FA22019769F4809185
S1130B80C7219091C8218D7F8093C7219093C8215C
S1130B9001E0BAC000E0B8C000E0B6C08091FD2218
S1130BA09091FE22892B09F046C0E9D5882309F4E7
S1130BB044C02091F9223091FA223327E091182081
S1130BC0F0911920818990E082179307C0F14BDEE0
S1130BD08091F9229091FA228093C621882389F189
S1130BE099278150904C880F991F880F991FE09185
S1130BF01A20F0911B20E80FF91FE093C421F09311
S1130C00C5210190F081E02D84818823E1F0C0E0CA
S1130C1060E08C2FF6DD082F882309F475C0CF5FC0
S1130C20E091C421F091C5210190F081E02D8481EF
S1130C30C81770F369C000E067C000E065C000E059
S1130C4063C001E061C001E05FC0213009F580911B
S1130C50F8228B30E9F48091FD229091FE22892BB9
S1130C6099F48091C621882389F0C091FB22D09108
S1130C70F9228C2F84DD082F882309F445C06D2FB9
S1130C808C2FBFDD082F40C000E03EC000E03CC018
S1130C90223009F03BC08091F822813019F0833072
S1130CA0B1F031C08091FD229091FE22892B59F43C
S1130CB08091F9229091FA22892B39F48091FB22B8
S1130CC0EED5082F21C000E01FC000E01DC08091B8
S1130CD0FD229091FE22892B71F48091F92290914A
S1130CE0FA22892B51F4CBEFD2E2888189D688810C
S1130CF0DDD6082F09C000E007C000E005C000E011
S1130D0003C000E001C000E0011189C08091F72216
S1130D108F718130C1F58091C6218823A1F1C091E2
S1130D20FB22D091FC220091C4211091C521D8014D
S1130D30ED91FC918481C81730F560E08C2FE5DCDF
S1130D40882309F1CE019927880F991FD80112969B
S1130D50ED91FC911397E80FF91F00811181D801DF
S1130D601696ED91FC9117970995682F8C2FCDDC81
S1130D70882349F0D8011496ED91FC9115970995B3
S1130D80082F81114CC08091F7228F718230D9F5E0
S1130D908091C621882389F1E091C421F091C52175
S1130DA0A081B18114968C91882349F110E0212F00
S1130DB030E0220F331F0280F381E02DE20FF31F96
S1130DC0C081D181EE81FF810995682F812F9DDC3F
S1130DD0082F882321F1EC81FD810995082F8111C9
S1130DE01EC01F5FE091C421F091C521A081B18193
S1130DF014968C911817D8F212C000E010C000E0CD
S1130E000EC000E00CC000E00AC0822F807609F01A
S1130E107DCF88CE322F307609F078CF99CD802FD0
S1130E20DF91CF911F910F91FF90EF900895FC01F6
S1130E30818185FFFDCF608380E090E00895FC010F
S1130E4081818823ECF7808108954F925F926F929D
S1130E507F928F929F92AF92BF92CF92DF92EF9246
S1130E60FF920F931F93CF93DF93EC014A015B0131
S1130E7028013901D901C801689412F8B695A795DB
S1130E80979587951694D1F7B901A801032E36E1F9
S1130E9076956795579547953A95D1F7302D2C81DE
S1130EA022FD08C0B695A795979587957695679581
S1130EB05795479588159905AA05BB0508F4A6C05A
S1130EC084169506A606B70608F4A2C08C8182FD96
S1130ED004C0880C991CAA1CBB1CC301B201A50147
S1130EE094010E94A2142F3F31054105510508F4D5
S1130EF091C0C12CD12C7601CA9419EF05C02C15D0
S1130F003D054E055F0568F0CC0CDD1CEE1CFF1C96
S1130F101D3F14F46894C0F81F5F173081F7212F28
S1130F2050C0212F11230CF04CC0D501C401880FEF
S1130F30991FAA1FBB1F880F991FAA1FBB1F880FC9
S1130F40991FAA1FBB1F481A590A6A0A7B0A1E3F27
S1130F50F4F46DEF7FEF611B710917FD739504C005
S1130F60440C551C661C771C6A95D2F7D501C40144
S1130F70B695A79597958795BC01CD01640D751D10
S1130F80861D971DA50194010E94A21436C023E07A
S1130F90210FD501C40104C0880F991FAA1FBB1FCC
S1130FA02A95D2F79C01AD01B695A795979587959B
S1130FB0BC01CD01640D751D861D971D0E94A214F0
S1130FC01CC02D5FD501C40104C0880F991FAA1F3E
S1130FD0BB1F2A95D2F79C01AD01B695A7959795AD
S1130FE08795BC01CD01640D751D861D971D0E945A
S1130FF0A2142150310941095109832F8F70129590
S1131000107F182B1F832E8381E018C080E016C048
S113101080E014C0D501C401880F991FAA1FBB1F0B
S1131020880F991FAA1FBB1F880F991FAA1FBB1FD8
S1131030481A590A6A0A7B0A19EF8BCFDF91CF91BC
S11310401F910F91FF90EF90DF90CF90BF90AF90E2
S11310509F908F907F906F905F904F9008950F9323
S11310601F93CF93DF93EC018B01009709F4BEC06B
S1131070803C910521F460E180E04DD7B7C0C115F3
S113108084E0D80721F464E080E045D7AFC0C038DD
S1131090E1E0DE0721F462E080E03DD7A7C0C1159E
S11310A0F1E0DF0721F461E080E035D79FC0C0386C
S11310B083E0D80721F461E081E02DD797C0C11502
S11310C0E2E0DE0721F462E081E025D78FC0C03280
S11310D0F3E0DF0721F464E082E01DD787C0C11587
S11310E088E0D80721F461E083E015D77FC0C115FB
S11310F0E9E0DE0721F461E084E00DD777C0C11593
S1131100FAE0DF0721F461E085E005D76FC0C03461
S113111088E0D80721F462E083E0FDD667C0C034DC
S1131120E9E0DE0721F462E084E0F5D65FC0C0396F
S1131130F8E0DF0721F464E083E0EDD657C0C0395E
S113114089E0D80721F464E084E0E5D64FC0C039D3
S1131150EAE0DE0721F464E085E0DDD647C0C03C68
S1131160F8E0DF0721F468E083E0D5D63FC0C03C57
S113117089E0D80721F468E084E0CDD637C0C03ACE
S1131180E8E0DE0721F460E183E0C5D62FC0C03A71
S1131190F9E0DF0721F460E184E0BDD627C0C03A5E
S11311A08AE0D80721F460E185E0B5D61FC0C03BD2
S11311B0E8E0DE0721F460E283E0ADD617C0C03B6F
S11311C0F9E0DF0721F460E284E0A5D60FC0C0385F
S11311D084E0D80721F460E483E09DD607C0C03AD8
S11311E0E4E0DE0719F460E485E095D68D818F7321
S11311F08D83F80194818581892B9681992311F03F
S113120098E001C090E0892B8D83F80140815181E1
S11312106281738100E01CE62CED32E0CE0115DE24
S11312209C8198609C839C8190619C83DF91CF9189
S11312301F910F910895811118C09091F422992360
S113124089F09FB7F894E8E0F3E2208121502083ED
S11312509FBF08C09FB7F894E8E0F3E220812F5FB6
S113126020839FBF8093F42208959091F4229923C0
S113127089F3F8CF0F93E8ECF4E080818F7D8083CD
S113128080818F7D8083E8ECF2E202E00593109286
S1131290CA221092CB2200E2069300E40693E0EC0B
S11312A0F2E200E2069300E4069310920323109204
S11312B00423109205231092062310920123109206
S11312C002231092B2220F9108950F9385E0809328
S11312D0B222E9ECF2E204E00593E1ECF2E204E08C
S11312E005930F9108950F9383E08093B222109297
S11312F0CA221092CB22E8ECF2E202E006930F91AC
S11313000895E0910323F0910423309709F009959F
S113131008950F93CF93DF938091B222833019F411
S1131320F0DFA8DF60C08091AE229091AF22C0911F
S11313300123D0910223C81BD90B71F52091B0224F
S11313403091B122820F931F8093B0229093B122E7
S11313502091FD223091FE228217930721F0809183
S1131360C921882341F084E08093B222E0ECF2E2C8
S113137002E0069338C0E0910523F09106233097EC
S113138099F00995882381F01092AE221092AF2231
S1131390C0910123D0910223C034D10528F01092CA
S11313A0C921C0E4D0E003C081E08093C921C09387
S11313B0CA22D093CB228091AE229091AF22209169
S11313C0FF2230910023280F391F2093CC22309321
S11313D0CD22C80FD91FC093AE22D093AF22E8EC20
S11313E0F2E202E00693DF91CF910F910895FC01A0
S11313F08181877090E0FC013197E730F10520F49A
S1131400E250FF4F0C94C41488E090E0089580E209
S113141090E0089580E490E0089580E890E00895D5
S113142080E091E0089580E092E008958FEF93E0EA
S1131430089580E190E00895282F2F7030E0220F66
S1131440331F992787FD90958827990F881F99271F
S1131450820F931F02979C01220F331F220F331F09
S1131460220F331F820F931F865B9D4D08950F93A8
S1131470CF938091CC0480FF62C081E08093CC0440
S1131480E0ECF2E200E80693E8ECF2E200E806930E
S11314908093CA04E0ECF2E200E106938091B22268
S11314A0882329F08350823008F42BDFE3DE809117
S11314B0C2229091C322089709F043C088E0EEE667
S11314C0F2E2A7EFB2E201900D928A95E1F7E8EC1F
S11314D0F4E080818062808380818062808319DA75
S11314E0C82F811103C0F1DEC1E02CC08091F72226
S11314F088236CF41092B0221092B1221092AE2282
S11315001092AF2282E08093B22203DF1BC02091AD
S1131510FD223091FE22232B11F4E5DE13C010923C
S1131520B0221092B1221092AE221092AF2281E02A
S11315308093B222E0ECF2E202E0069303C0C0E042
S113154001C0C1E08C2FCF910F910895BF92CF922B
S1131550DF92EF92FF920F931F93CF93DF93B82EF6
S11315606BDFEC011B2D111F1127111F8B2D8F70A9
S1131570E82EF12CEE0CFF1CE10EF11CC701880FC4
S1131580991F880F991F880F991F9C0120543D4D66
S11315907901C9012CDF6C01112309F45BC0D70167
S11315A016962D913C9117978D819E81280F391F96
S11315B02D833E838B819C8128173907C9F1FC0157
S11315C0E21BF30B9F012115F4E03F0740F02FEFDE
S11315D033E0C901B6010E948E14281B390B88819F
S11315E081FF0AC0C901B6010E948E1441E0892B13
S11315F009F040E0942F01C090E0888190FB81F9CC
S11316008883D70116961D921C92179712962D93D4
S11316103C93139729813A818D819E81820F931F78
S113162014968D939C931597F70102E0069398C046
S1131630888181FF87C08D7F8883D70116961D928C
S11316401C92179712961D921C921397F70102E0B1
S1131650069386C0D70112960D911C911397888129
S113166082FF15C0E981FA812D813E818B819C81A5
S1131670B6010E948E14B0E4BB9EB00111246657DB
S11316807E4DAC01CF01820F931F0E942A152D813C
S11316903E81200F311F2D833E83EB81FC81E217B5
S11316A0F30710F4ED83FE83D70116968D919C9178
S11316B017978017910709F045C08D819E81E8171F
S11316C0F90709F43FC0E81BF90BE115B4E0FB0787
S11316D048F0EFEFF3E0CF01B6010E948E14E81B4F
S11316E0F90B06C0CF01B6010E948E14E81BF90B5A
S11316F0D70112961D921C921397EC15FD0578F4F0
S1131700888184608883B0E4BB9EC001112486571D
S11317109E4DF70184839583C682D7820FC02981A9
S11317203A818D819E81820F931FD70114968D93E8
S11317309C9315971696ED93FC931797F70102E087
S113174006930EC0888180FF0BC08E7F8883EF8153
S1131750F885309729F06D817E814B2D80E00995C5
S1131760DF91CF911F910F91FF90EF90DF90CF9079
S1131770BF90089580E008958093C30408958091F4
S1131780C30408958091F0229091F122089580E09D
S113179090E008958093FF229093002360930123A7
S11317A0709302230895E82FEF70F0E0EE0FFF1F0F
S11317B0992787FD90958827990F881F9927E80F07
S11317C0F91FEE0FFF1FEE0FFF1FEE0FFF1FE05478
S11317D0FD4D8181807C09F043C06370613029F044
S11317E010F480E403C080E801C080EC4038510567
S11317F0E1F050F440325105A1F04034510599F024
S11318004031510561F419C0411592E0590789F03E
S11318104F3F93E0590779F04115514041F020E0E2
S11318200DC022E00BC023E009C024E007C025E07E
S113183005C026E003C027E001C021E0118296E044
S11318409083822B81838181807C803C21F48181FF
S11318508770873039F081818062818381E00895C7
S113186080E0089581E00895E82FEF70F0E0EE0F36
S1131870FF1F992787FD90958827990F881F99271F
S1131880E80FF91FEE0FFF1FEE0FFF1FEE0FFF1FF4
S1131890E054FD4D818182FB882780F90895E82F6B
S11318A0EF70F0E0EE0FFF1F282F332727FD309550
S11318B02227330F221F3327E20FF31FEE0FFF1FE0
S11318C0EE0FFF1FEE0FFF1FE054FD4D918192FFBD
S11318D00EC091819B7F9183AFDDFC01808180FFED
S11318E006C08E7F80830780F085E02D099581E016
S11318F008957F928F929F92AF92BF92CF92DF9280
S1131900EF92FF920F931F93CF93DF93982E862E1F
S11319105A01690191DD7C01792C771C7724771CAD
S1131920C92DCF70D0E0CC0FDD1FC70DD11DCC0F5A
S1131930DD1FCC0FDD1FCC0FDD1FC054DD4D8981B1
S1131940807C09F44BC08981807C803C19F08981BA
S113195082FD46C08FB7F894F701908190FF03C0D1
S11319608FBF712C3EC0F7019081916090838FBF2F
S1131970F701A182B282C382D482158216820783C0
S11319801087811006C091E0C114D10419F090E0D1
S113199001C091E0F701808190FB81F98B7F808306
S11319A0772019F01E821F8214C08981807C803CBC
S11319B061F4CE011CDDBC01C601B0D7892B29F02E
S11319C0F70180818E7F80830CC01A821B821E8265
S11319D01F82892DBBDD7724739403C0712C01C051
S11319E0712C872DDF91CF911F910F91FF90EF9074
S11319F0DF90CF90BF90AF909F908F907F9008958D
S1131A00FF920F931F93CF93DF93182FF82EFF1C91
S1131A10FF24FF1CC82FCF70D0E0CC0FDD1FCF0DEB
S1131A20D11DCC0FDD1FCC0FDD1FCC0FDD1FC0542B
S1131A30DD4D02DDDC01FE0102E005938C9180FFA7
S1131A4012C08E7F8C931796ED91FC911897309766
S1131A5051F0FF2019F06E817F8102C06A817B8181
S1131A60412F81E00995DF91CF911F910F91FF9054
S1131A700895CF93C82FC4DFEC2FEF70F0E0EE0F82
S1131A80FF1F8C2F992787FD90958827990F881F12
S1131A909927E80FF91FEE0FFF1FEE0FFF1FEE0F40
S1131AA0FF1FE054FD4D1182CF9108950F93E82F4D
S1131AB0EF70F0E0EE0FFF1F282F332727FD30953E
S1131AC02227330F221F3327E20FF31FEE0FFF1FCE
S1131AD0EE0FFF1FEE0FFF1FE054FD4D9181946048
S1131AE0918301E006938CDF81E00F9108951F92AA
S1131AF00F920FB60F9211240F932F933F934F938E
S1131B005F936F937F938F939F93AF93BF93EF9361
S1131B10FF938091CB04882334F480E88093CA0433
S1131B200E945A0488C08091CB0482FF20C084E0C4
S1131B308093CA048091C82286FF7DC08091CC0422
S1131B4081FD79C094DC811176C08091B22281300C
S1131B5011F4C9DB70C0843009F06DC0E9ECF2E225
S1131B6004E00593E1ECF2E204E0059364C08091A3
S1131B70CB0481FF5BC082E08093CA048091C022C1
S1131B8086FF59C08091CC0481FD55C070DC811161
S1131B9052C08091B222823041F484E08093B22218
S1131BA0E0ECF2E202E0069346C0833009F043C061
S1131BB0E9ECF2E204E00593E1ECF2E204E00593DF
S1131BC03AC080E18093CA0481E01ADF81E818DF1B
S1131BD00E9433041092C304E1ECF2E2108296E016
S1131BE09093C02283E48083E9ECF2E21082909324
S1131BF0C82280838EE692E28093C4229093C52209
S1131C0039DB19C08091CB0486FF06C080E4809341
S1131C10CA0480E010DB0FC08091CB0485FF0BC0A9
S1131C2080E28093CA0481E006DB05C08091CB0486
S1131C3084FFE8CFC6CFFF91EF91BF91AF919F9101
S1131C408F917F916F915F914F913F912F910F9160
S1131C500F900FBE0F901F9018951F920F920FB602
S1131C600F9211240F931F932F933F934F935F93DE
S1131C706F937F938F939F93AF93BF93CF93DF9390
S1131C80EF93FF938091CC0481FD03C0F0DB8111BD
S1131C90B8C082E08093CC048091C5048195880FFC
S1131CA0E0ECF2E2E81BF10920813181205C324250
S1131CB0369527953695279536952795822F8695BF
S1131CC020FF02C090E801C090E0890FE82FEF7078
S1131CD0F0E0EE0FFF1F282F332727FD3095222732
S1131CE0330F221F3327E20FF31FEE0FFF1FEE0FF8
S1131CF0FF1FEE0FFF1FE054FD4D908195FF81C043
S1131D0000E20693811178C08091B222843019F4E4
S1131D10F8DAB0DA76C0C091C222D091C3228091A1
S1131D200123909102230091AE221091AF229801D9
S1131D302C0F3D1F8217930718F4EC01C01BD10B25
S1131D408091FF2290910023AE016EE672E2800F33
S1131D50911F80D60C0F1D1F0093AE221093AF224B
S1131D60C034D10569F48091B0229091B122800FE2
S1131D70911F2091FD223091FE228217930788F053
S1131D800093012310930223E0910523F09106238D
S1131D90309729F00995811102C097DA32C0A3DA8D
S1131DA030C0809101239091022308171907F9F498
S1131DB0E0910523F0910623309711F486DA21C0CF
S1131DC00995811102C081DA1CC02091B0223091A2
S1131DD0B1228091AE229091AF22820F931F809303
S1131DE0B0229093B1221092AE221092AF22E0EC76
S1131DF0F2E202E0069305C0803811F48ADA01C0E9
S1131E00A5DBFF91EF91DF91CF91BF91AF919F91AE
S1131E108F917F916F915F914F913F912F911F917E
S1131E200F910F900FBE0F901F901895CF93DF93D3
S1131E3000D000D0CDB7DEB78FEF809370008093D1
S1131E407100809372008093730080937400809378
S1131E507500809376006CE170E082E068D08A833C
S1131E606DE170E082E063D0898389819A81019673
S1131E7021F480E493E289839A8389819A818B8314
S1131E809C83E0E6F0E082838C8183838FB7F894AF
S1131E90E0E5F0E09081926090838FBF818181FFC3
S1131EA0FDCF8FB7F894A0E5B0E016969C911697F5
S1131EB0997F16969C931697E0E6F0E090E8958358
S1131EC09BEB968316969C911697946016969C931A
S1131ED09081916090838FBF61E080E490E031D085
S1131EE08FB7F894E0E5F0E090819E7F90838FBFF8
S1131EF08FB7F8949081946090838FBF818182FF23
S1131F00FDCF8DE0E0E4F0E083832496CDBFDEBF17
S1131F10DF91CF9108959FB7F894E82FF0E0E0594E
S1131F20FF4F60958081682360839FBF089540912F
S1131F30CA01E62FF72F8093CA0184914093CA0106
S1131F4008951BBEFC0128ED24BF60830895CF9340
S1131F50DF93CDB7DEB72797CDBFDEBF88E0E0E6DD
S1131F60F6E08183809180208D83809181208E830F
S1131F70809182208F8380917C2090917D20A091FC
S1131F807E20B0917F2089839A83AB83BC8360E1F8
S1131F9084E0C1DFBE016F5F7F4F80EA99E05FD8C4
S1131FA083E890E280930F239093102380930D2372
S1131FB090930E232796CDBFDEBFDF91CF91089576
S1131FC0682F80EA99E00C9417070895CF93C82FDF
S1131FD08A3011F48DE0F4DF8C2FF2DF80E090E0A2
S1131FE0CF91089580EA99E00C941F0708951F93F8
S1131FF0CF93DF93EC01F6DF182FBE01E7DF812FCB
S113200090E0DF91CF911F91089510DF15D08ED20B
S11320109EDFE0E4F6E090E1918380E2818320E4B6
S1132020218320E82183E0E6F6E021E0218322E019
S11320302183918382830895E0E0F6E088E0818340
S113204080E1818380E2818380E48183089581300B
S1132050910531F08230910569F0892B79F405C03E
S113206088E0E0E0F6E08583089588E0E0E0F6E0CB
S11320708683089588E0E0E0F6E087830895813060
S1132080910531F08230910569F0892B79F405C00E
S113209080E1E0E0F6E08583089580E1E0E0F6E0A9
S11320A08683089580E1E0E0F6E087830895813037
S11320B0910531F08230910569F0892B79F405C0DE
S11320C080E2E0E0F6E08583089580E2E0E0F6E077
S11320D08683089580E2E0E0F6E087830895813006
S11320E0910531F08230910569F0892B79F405C0AE
S11320F080E4E0E0F6E08583089580E4E0E0F6E043
S11321008683089580E4E0E0F6E087830895AF9243
S1132110BF92CF92DF92EF92FF920F931F93CF93D0
S1132120DF9300D0CDB7DEB782E390E089839A8352
S113213089819A81843691050CF0EBC181E090E0AD
S113214086DFE981FA819F2F990F990BA12C0F2E1D
S1132150FCE6BF2EF02D0F2EFCEDCF2EF02D689453
S1132160DD24D1F8E12CF12C00E010E02E2F3F2FDC
S1132170492F592F692F792F892F0CD429513C4F7E
S11321804F4F5F4F6F4F7F4F8F4F9F4F28D320E0AC
S113219030E84BEB55E481D2EDD2F22FE32F8F2FB1
S11321A09E2FA42FB52F0197A109B1090097A1056E
S11321B0B105C9F781E090E062DFE981FA819F2FE0
S11321C0990F990BA12C0F2EFCE6BF2EF02D0F2E8C
S11321D0FCEDCF2EF02D6894DD24D1F8E12CF12C08
S11321E000E010E02E2F3F2F492F592F692F792F10
S11321F0892FD0D329513C4F4F4F5F4F6F4F7F4FA3
S11322008F4F9F4FECD220E030E84BEB55E445D2A2
S1132210B1D2F22FE32F8F2F9E2FA42FB52F01972A
S1132220A109B1090097A105B105C9F781E090E0C2
S11322303EDFE981FA819F2F990F990BA12C0F2E74
S1132240FCE6BF2EF02D0F2EFCEDCF2EF02D689462
S1132250DD24D1F8E12CF12C00E010E02E2F3F2FEB
S1132260492F592F692F792F892F94D329513C4F06
S11322704F4F5F4F6F4F7F4F8F4F9F4FB0D220E034
S113228030E84BEB55E409D275D2F22FE32F8F2FB0
S11322909E2FA42FB52F0197A109B1090097A1057D
S11322A0B105C9F781E090E01ADFE981FA819F2F37
S11322B0990F990BA12C0F2EFCE6BF2EF02D0F2E9B
S11322C0FCEDCF2EF02D6894DD24D1F8E12CF12C17
S11322D000E010E02E2F3F2F492F592F692F792F1F
S11322E0892F58D329513C4F4F4F5F4F6F4F7F4F2A
S11322F08F4F9F4F74D220E030E84BEB55E4CDD1A3
S113230039D2F22FE32F8F2F9E2FA42FB52F0197B1
S1132310A109B1090097A105B105C9F780E090E0D2
S113232096DEE981FA819F2F990F990BA12C0F2E2C
S1132330FCE6BF2EF02D0F2EFCEDCF2EF02D689471
S1132340DD24D1F8E12CF12C00E010E02E2F3F2FFA
S1132350492F592F692F792F892F1CD329513C4F8D
S11323604F4F5F4F6F4F7F4F8F4F9F4F38D220E0BB
S113237030E84BEB55E491D1FDD1F22FE32F8F2FB1
S11323809E2FA42FB52F0197A109B1090097A1058C
S1132390B105C9F780E090E072DEE981FA819F2FF0
S11323A0990F990BA12C0F2EFCE6BF2EF02D0F2EAA
S11323B0FCEDCF2EF02D6894DD24D1F8E12CF12C26
S11323C000E010E02E2F3F2F492F592F692F792F2E
S11323D0892FE0D229513C4F4F4F5F4F6F4F7F4FB2
S11323E08F4F9F4FFCD120E030E84BEB55E455D1A3
S11323F0C1D1F22FE32F8F2F9E2FA42FB52F01973A
S1132400A109B1090097A105B105C9F780E090E0E1
S11324104EDEE981FA819F2F990F990BA12C0F2E83
S1132420FCE6BF2EF02D0F2EFCEDCF2EF02D689480
S1132430DD24D1F8E12CF12C00E010E02E2F3F2F09
S1132440492F592F692F792F892FA4D229513C4F15
S11324504F4F5F4F6F4F7F4F8F4F9F4FC0D120E043
S113246030E84BEB55E419D185D1F22FE32F8F2FB0
S11324709E2FA42FB52F0197A109B1090097A1059B
S1132480B105C9F780E090E02ADEE981FA819F2F47
S1132490990F990BA12C0F2EFCE6BF2EF02D0F2EB9
S11324A0FCEDCF2EF02D6894DD24D1F8E12CF12C35
S11324B000E010E02E2F3F2F492F592F692F792F3D
S11324C0892F68D229513C4F4F4F5F4F6F4F7F4F39
S11324D08F4F9F4F84D120E030E84BEB55E4DDD0A3
S11324E049D1F22FE32F8F2F9E2FA42FB52F0197C1
S11324F0A109B1090097A105B105C9F789819A819C
S11325000F9689839A8389819A81843691050CF484
S113251015CE0F900F90DF91CF911F910F91FF90E7
S1132520EF90DF90CF90BF90AF90089588E0E0E403
S1132530F6E0828308951F920F920FB60F92112432
S11325402F933F934F935F936F937F938F939F93B7
S1132550AF93BF93EF93FF9382E090E090DD80917F
S1132560F5229091F622892B29F01092F5221092EF
S1132570F62206C081E090E08093F5229093F62243
S1132580FF91EF91BF91AF919F918F917F916F9147
S11325905F914F913F912F910F900FBE0F901F901D
S11325A018951F920F920FB60F9211242F933F93F9
S11325B04F935F936F937F938F939F93AF93BF9347
S11325C0EF93FF93CF93DF9300D0CDB7DEB7E0E076
S11325D0F4E0818180FDFDCFE0E0F4E08485958521
S11325E089839A8382E090E032DD8091F522909194
S11325F0F622892B41F0E0E6F6E0808585FB88270A
S113260080F9805DDDDCE0E0F4E0108611860F9057
S11326100F90DF91CF91FF91EF91BF91AF919F9177
S11326208F917F916F915F914F913F912F910F9077
S11326300FBE0F901F901895E8DC69DDE0EAF0E02A
S113264087E08283828180688283E0E4F6E081E02F
S1132650818788E0828783898260838B7894F89469
S113266064E080E058DCE0E0F4E08FEF9FEF8287E5
S113267093871086118681E090E0848795878CE0AB
S1132680828381E080837894C0E6D6E0888585FBE8
S1132690882780F990E00BDDF9CF0CD005C1FDD07F
S11326A040F0F4D030F021F45F3F19F0D6C051115E
S11326B02FC1D9C00AD198F39923C9F35523B1F393
S11326C0951B550BBB27AA2762177307840738F09D
S11326D09F5F5F4F220F331F441FAA1FA9F333D0FC
S11326E00E2E3AF0E0E830D091505040E695001CB0
S11326F0CAF729D0FE2F27D0660F771F881FBB1F6C
S1132700261737074807AB07B0E809F0BB0B802D45
S1132710BF01FF2793585F4F2AF09E3F510568F091
S11327209CC0F6C05F3FECF3983EDCF3869577954A
S11327306795B795F7959F5FC9F7880F911D969593
S1132740879597F90895E1E0660F771F881FBB1FEF
S1132750621773078407BA0720F0621B730B840B9C
S1132760BA0BEE1F88F7E0950895BEE304D008F491
S113277090E80895BFE322273327A901AED058F18A
S11327809F5740F1B91738F1BFE3B91B9927B850E7
S11327903AF4660F771F881F991FB395D2F316C0BA
S11327A0B8504AF0232F342F452F562F672F782FF8
S11327B08827B850BAF7B85F49F08695779567953A
S11327C05795479537952795BA95B9F70EF44ED096
S11327D088940895889460E070E0CB010895E894AB
S11327E0F92F96EBFF2381F0121613061406440BFF
S11327F09395F69587957795679557954040FF2370
S1132800B9F71BC099270895882351F49850D2F73B
S1132810872B762F652F542F432F322F20E0B1F3CF
S1132820121613061406440B88233AF09A95440FA3
S1132830551F661F771F881FCAF755234AF4440F94
S1132840551F11F460FF04C06F5F7F4F8F4F9F4F80
S1132850880F9695879597F9089597F99F6780E86B
S113286070E060E008959FEF80EC08959095809566
S11328707095609550954095309521953F4F4F4FF9
S11328805F4F6F4F7F4F8F4F9F4F089500240A94DF
S11328901616170618060906089500240A94121637
S11328A01306140605060895092E0394000C11F46A
S11328B0882352F0BB0F40F4BF2B11F460FF04C017
S11328C06F5F7F4F8F4F9F4F089557FD9058440F70
S11328D0551F59F05F3F71F04795880F97FB991F7B
S11328E061F09F3F79F08795089512161306140638
S11328F0551FF2CF4695F1DF08C0161617061806C5
S1132900991FF1CF86957105610508940895E8949F
S1132910BB2766277727CB0197F90895AA1BBB1B12
S113292051E107C0AA1FBB1FA617B70710F0A61BCB
S1132930B70B881F991F5A95A9F780959095BC01EC
S1132940CD010895A1E21A2EAA1BBB1BFD010DC0E7
S1132950AA1FBB1FEE1FFF1FA217B307E407F5074B
S113296020F0A21BB30BE40BF50B661F771F881F27
S1132970991F1A9469F760957095809590959B01BD
S1132980AC01BD01CF010895EE0FFF1F0590F49136
S1132990E02D0994DF93CF931F930F939A9DF02D0D
S11329A0219FF00D8B9DF00D8A9DE02DF10D039F6D
S11329B0F00D029FE00DF11D4E9DE00DF11D5E9D99
S11329C0F00D4F9DF00D7F936F93BF92AF925F9385
S11329D04F93D50130D08B01AC01D7012CD0EB0142
S11329E0E80FF91FD6011FD02F913F91D60123D0B4
S11329F0C60FD71FE81FF91FAF91BF9114D02F91B5
S1132A003F9119D0C60FD71FE81FF91FD60113D065
S1132A10E60FF71F9801BE01CF0111240F911F91FA
S1132A20CF91DF91089507D0460F571FC81FD91FB4
S1132A3008F431960895A29FB001B39FC001A39FEB
S1132A40700D811D1124911DB29F700D811D1124E3
S1132A50911D0895FB01DC0102C001900D924150CB
S10D2A605040D8F70895F894FFCF12
S1132A6AE70261016B016D01830223015B016F01BE
S1132A7A6D010000040309046A201E2000002620B8
S1132A8A22200A20002009024300020100C0320960
S1132A9A04000001020201000524001001042402BA
S1132AAA02052406000105240103010705820340E7
S1132ABA001009040100020A00000007058102400F
S1132ACA0000070502024000000012010002020091
S1132ADA0040EB03042400010000000100C20100CD
S1132AEA0300000000000300000000E60FF70F00D7
S1052AFA0000D6
S9030000FC
